4328812TOXAMBAY                                    jbe.x 90 ml             00000000NNAustral         00000490020160512002000073313407798011651535000110SNN00
5702131ACIFUSIN                                    cr.x 15 g               00000000NNAndr¢maco       00001562120160511002080094266307793742002137000110SNN00
5702261ACIFUSIN                                    ung.x 15 g              00000000NNAndr¢maco       00001392320160511002080094266407793742002120000110SNN00
5875231ACNOXIN                                     spray x 140 ml          00000000NNAndr¢maco       00001908420160511002020094991607793742000461000110NNN00
9920061AVENO                                       acond.cap.x 250 ml      00000000NNAndr¢maco       00002165020160511001100092006107793742004353000110NNS00
9920683AVENO                                       emuls.x 250 ml          00000000NNAndr¢maco       00002571220160511001100092068307793742004377000110NNS00
9926260AVENO                                       gel de limp.x 250 ml    00000000NNAndr¢maco       00001913120160511001100092626007793742004346000110NNS00
9908730AVENO                                       jab.x 120 g             00000000NNAndr¢maco       00000987220160511001100090873007793742004384000110NNS00
9920062AVENO                                       shamp.x 250 ml          00000000NNAndr¢maco       00002165020160511001100092006207793742004360000110NNS00
0033012CLINAL                                      pda.x 25 g              00000000NNAndr¢maco       00000576220160511002000090025807793742001673000110SNN00
3387741DAIVONEX                                    ung.x 30 g              00015743NNAndr¢maco       00003677720160511002000091193707793742002373000110SNN00
2481892DERALBINE                                   loc.x 40 ml             00005907NNAndr¢maco       00000992420160511002020091997807793742002953000110NNN00
2983824DERMAGLOS                                   cr.x 150 g              00000000NNAndr¢maco       00001925520160511002020094930207793742007804000140SNN00
2983823DERMAGLOS                                   cr.x 200 g              00000000NNAndr¢maco       00002592920160511002020090940607793742001956000150SNN00
2983821DERMAGLOS                                   cr.x 50 g               00000000NNAndr¢maco       00000747220160511002020090940407793742001932000110SNN00
2704391DERMAGLOS                                   emuls.x 100 ml          00000000NNAndr¢maco       00001096920160511002020090828207793742001482000110SNN00
2704392DERMAGLOS                                   emuls.x 200 ml          00000000NNAndr¢maco       00002116220160511002020090026407793742001499000120SNN00
2704393DERMAGLOS                                   emuls.x 400 ml          00000000NNAndr¢maco       00003699420160511002020092187007793742002878000150SNN00
9939377DERMAGLOS LINEA SOLAR                       Barra protectora x 14 g 00000000NNAndr¢maco       00000930920160511001100093937707793742002618000110NNS00
9927857DERMAGLOS LINEA SOLAR                       FPS 20 spray RA x 150 ml00000000NNAndr¢maco       00001396320160511001100092785707793742003318000110NNS00
9949624DERMAGLOS LINEA SOLAR                       FPS 30 invis.sprayx180ml00000000NNAndr¢maco       00001683120160511001100094962407793742003448000110NNS00
9951653DERMAGLOS LINEA SOLAR                       FPS 40 barra x 14 g     00000000NNAndr¢maco       00001005320160511001100095165307793742003561000110NNS00
9949625DERMAGLOS LINEA SOLAR                       FPS 40 cont.spray x170ml00000000NNAndr¢maco       00002062120160511001100094962507793742003554000110NNS00
9951652DERMAGLOS LINEA SOLAR                       FPS 40 lapiz x 3.4 g    00000000NNAndr¢maco       00000789920160511001100095165207793742003578000110NNS00
9924248DERMAGLOS LINEA SOLAR                       FPS 45 RA crema x 150g  00000000NNAndr¢maco       00001506320160511001100092424807793742003226000110NNS00
9951650DERMAGLOS LINEA SOLAR                       FPS 50 beb‚s cr.x 150 g 00000000NNAndr¢maco       00001641520160511001100095165007793742033759000110NNS00
9924249DERMAGLOS LINEA SOLAR                       FPS 65 RA crema x 90g   00000000NNAndr¢maco       00001921920160511001100092424907793742003264000110NNS00
9949623DERMAGLOS LINEA SOLAR                       FPS 80 cr.x 90 g        00000000NNAndr¢maco       00002171320160511001100094962307793742003707000110NNS00
9936874DERMAGLOS LINEA SOLAR                       FPS20 RA emulsi¢n x250ml00000000NNAndr¢maco       00001396320160511001100093687407793742003493000110NNS00
9936875DERMAGLOS LINEA SOLAR                       FPS30 RA emulsi¢n x250ml00000000NNAndr¢maco       00001488220160511001100093687507793742003509000110NNS00
9936876DERMAGLOS LINEA SOLAR                       FPS40 RA emulsi¢n x250ml00000000NNAndr¢maco       00001622320160511001100093687607793742003516000110NNS00
9951651DERMAGLOS LINEA SOLAR                       FPS40 efecto seco x 180g00000000NNAndr¢maco       00002129720160511001100095165107793742003806000110NNS00
9951649DERMAGLOS LINEA SOLAR                       FPS40 ni¤o emuls.x 180ml00000000NNAndr¢maco       00001620720160511001100095164907793742003714000110NNS00
9948244DERMAGLOS LINEA SOLAR                       FPS50 RA emulsi¢n x250ml00000000NNAndr¢maco       00001766120160511001100094824407793742003431000110NNS00
9948246DERMAGLOS LINEA SOLAR                       Fac.matif. F30 cr.x 50g 00000000NNAndr¢maco       00001921920160511001100094824607793742003424000110NNS00
9938820DERMAGLOS LINEA SOLAR                       Ni¤osFac.35RAemul.x200ml00000000NNAndr¢maco       00001537520160511001100093882007793742103247000110NNS00
9914822DERMAGLOS LINEA SOLAR                       Post solar emuls.x 300ml00000000NNAndr¢maco       00001396220160511001100091482207793742002519000110NNS00
9924236DERMAGLOS LINEA SOLAR                       Post solar gel x 150 g  00000000NNAndr¢maco       00000997320160511001100092423607793742003233000110NNS00
9918157DERMAGLOS LINEA SOLAR                       Post solar gel x 200 g  00000000NNAndr¢maco       00001196820160511001100091815707793742002816000130NNS00
9941166DERMAGLOS LINEA SOLAR                       Protector labial x 3.4 g00000000NNAndr¢maco       00000731420160511001100094116607793742102639000110NNS00
9909560HIDROSAM                                    gel cr.x 50 g           00000000NNAndr¢maco       00001637620160511001100090956007793742000911000110NNS00
9909561HIDROSAM                                    shamp.gel x 250 ml      00000000NNAndr¢maco       00001595220160511001100090956107793742000904000130NNS00
3598112HIDROSAM T                                  0.010% env.x 20 g       00000000NNAndr¢maco       00002552620160511002020091512807793742000959000110SNN00
3598292HIDROSAM T                                  0.025% env.x 20 g       00000000NNAndr¢maco       00002996520160511002020091512907793742000966000110SNN00
3598372HIDROSAM T                                  0.050% env.x 20 g       00000000NNAndr¢maco       00003155220160511002020091513007793742000973000110SNN00
3598452HIDROSAM T                                  0.100% env.x 20 g       00000000NNAndr¢maco       00003550320160511002020092466007793742000980000110SNN00
6133001NOVOCORT                                    0.6 mg comp.x 30        00007307NNAndr¢maco       00001512420160511002000094812007793742000614003010SNN00
6133131NOVOCORT                                    1.2 mg comp.x 30        00009947NNAndr¢maco       00002013520160511002000094812107793742000621003010SNN00
6132971NOVOCORT                                    gts.x 30 ml             00006600NNAndr¢maco       00001248420160511002000094812207793742000607000110SNN00
3903521SALAC                                       loc.x 40 ml             00006592NNAndr¢maco       00001282920160511002020092321307793742003110000110SNN00
3903441SALAC                                       ung.x 20 g              00005798NNAndr¢maco       00001125620160511002020092321107793742003127000110SNN00
2810561VERRUTOPIC                                  fco.x 15 ml+acces.      00000000NNAndr¢maco       00001695420160511002000090249207793742005107000110SNN00
4856742VERRUTOPIC AS                               6 mm ap¢s.x 20+acces.   00009371NNAndr¢maco       00002433020160511002000093239907793742005244002010SNN00
4736374NEURYL                                      0.5 mg comp.x 60        00000000NNBag¢            00001457220160415403020215233207790375003463006050SNN00
4813254NEURYL                                      1 mg comp.x 60          00000000NNBag¢            00001468620160415403020215233307790375003487006030SNN00
4736454NEURYL                                      2 mg comp.x 60          00000000NNBag¢            00001680020160415403060215233707790375003470006050SNN00
6320683AGLUCIDE MR 60                              60 mg comp.x 30         00016493NNBeta            00002965520160512002060325122007795328057845006010SNN00
6320685AGLUCIDE MR 60                              60 mg comp.x 60         00033689NNBeta            00005676920160512002060325121907795328057869006030SNN00
4909702ANDROLONE                                   gel sob.x 30 x 5 g      00034593NNBeta            00007219520160512A03020323430907795328054325003010SNN00
4426581ATEROCLAR                                   10 mg comp.rec.x 30     00018800NNBeta            00003814220160512002060322443607795328050877003010SNN00
4426582ATEROCLAR                                   10 mg comp.rec.x 60     00038574NNBeta            00006137820160512002060324064307795328050884006030SNN00
4426661ATEROCLAR                                   20 mg comp.rec.x 30     00029300NNBeta            00006225820160512002060322443807795328050891003010SNN00
4426741ATEROCLAR                                   40 mg comp.rec.x 30     00042089NNBeta            00006479920160512002060322894307795328050914003010SNN00
5735682ATEROCLAR COMBI                             10/10 mg comp.x 30      00000000NNBeta            00003338020160512002020324226707795328050761003010SNN00
5735552ATEROCLAR COMBI                             20/10 mg comp.x 30      00000000NNBeta            00004310620160512002020324226807795328050785003010SNN00
5385841ATEROCLAR DUO                               10/10 mg blist.x 15+15  00000000NNBeta            00001156520160512002020323660307795328050808003010SNN00
5385842ATEROCLAR DUO                               10/10 mg blist.x 30+30  00000000NNBeta            00002149320160512002020323660407795328050815006030SNN00
5386422ATEROCLAR DUO                               20/10 mg blist.x 30+30  00000000NNBeta            00003079720160512002020323660507795328050839006010SNN00
5238711ATERONOVA                                   10 mg comp.x 15         00009114NNBeta            00001262520160512002020324590807795328055537001510SNN00
5238712ATERONOVA                                   10 mg comp.x 30         00019188NNBeta            00003236220160512002020324570707795328055544003030SNN00
5238872ATERONOVA                                   20 mg comp.x 30         00036300NNBeta            00006371620160512002020324590907795328055568003010SNN00
3894461BRINTENAL                                   5 mg comp.x 20          00000000NNBeta            00000828720160512002060321513807795328051805002010SNN00
3894464BRINTENAL                                   5 mg comp.x 60          00000000NNBeta            00001801620160512002060323744007795328051843006030SNN00
4748092CERELUC                                     15 mg comp.x 30         00000000NNBeta            00002416520160512002020322784507795328052529003010SNN00
4748172CERELUC                                     30 mg comp.x 30         00000000NNBeta            00004722320160512002020322717307795328052543003010SNN00
4748252CERELUC                                     45 mg comp.x 30         00000000NNBeta            00002958320160512002020322784807795328052567003010SNN00
5990682CERELUC MET                                 15/500 mg comp.x 30     00000000NNBeta            00004380020160512002020324710707795328053168003010SNN00
5990712CERELUC MET                                 15/850 mg comp.x 30     00000000NNBeta            00004572920160512002020324710907795328053182003010SNN00
2119463CIPROVIT CALCICO                            comp.blist.x 60         00000000NNBeta            00007132920160512002020324966807795328050471006010SNN00
2120271CIPROVIT CALCICO                            jbe.x 120 ml            00000000NNBeta            00003418420160512002020320133607795328050259000110SNN00
2120272CIPROVIT CALCICO                            jbe.x 150 ml            00000000NNBeta            00006573720160512002020325036607795328050266000130SNN00
3752892CIPROVIT ENERGIZANTE                        comp.rec.x 30           00000000NNBeta            00003824920160512002020321354107795328050297003010SNN00
3041631CIPROVIT MAGNESICO                          gran.sob.x 20           00000000NNBeta            00004214520160512002020320015807795328050273002010SNN00
4589522CLAROVIL                                    500 mg comp.rec.x 16    00018974NNBeta            00003645220160512003080323615007795328056121001630SNN00
4589524CLAROVIL                                    500 mg comp.rec.x 8     00008756NNBeta            00001857020160512003080324639207795328056138000810SNN00
5076031CLAROVIL UD                                 500 mg comp.lib.prol.x 400005164NNBeta            00000949220160512003080323615107795328056152000410SNN00
5076034CLAROVIL UD                                 500 mg comp.lib.prol.x 800010552NNBeta            00002126620160512003080323615207795328056169000830SNN00
4890803CLONAX                                      0.5 mg comp.x 30        00004300NNBeta            00001315920160512403020322849207795328055025003010SNN00
4890807CLONAX                                      0.5 mg comp.x 50        00006944NNBeta            00001671320160512403020324915507795328055063005020SNN00
5238663CLONAX                                      1 mg comp.x 30          00005200NNBeta            00001318620160512403020323430207795328055049003010SNN00
5238667CLONAX                                      1 mg comp.x 50          00008591NNBeta            00001231720160512403020324915607795328054974005020SNN00
4890983CLONAX                                      2 mg comp.x 30          00004800NNBeta            00001315920160512403060322849307795328055087003010SNN00
4890987CLONAX                                      2 mg comp.x 50          00008300NNBeta            00001671320160512403060324915707795328054998005020SNN00
5076713CLONAX RAPID                                0.25 mg comp.subl.x 30  00003727NNBeta            00000606220160512403020323173707795328055100003010SNN00
4902351CONEXINE                                    comp.rec.x 15           00008092SNBeta            00001577920160512002020323914607795328055117001510SNN00
4902352CONEXINE                                    comp.rec.x 30           00018795SNBeta            00004747720160512002020322913207795328055124003030SNN00
5935842CONEXINE 20                                 20 mg comp.rec.x 30     00027921SNBeta            00006568520160512002020324531707795328055155003010SNN00
6082421DOLO MECANYL                                sob.monods.x 15 x 4 g   00000000NNBeta            00002765120160512002020324737507795328053236001510SNN00
6082422DOLO MECANYL                                sob.monods.x 30 x 4 g   00000000NNBeta            00005689020160512002020324737407795328053243003030SNN00
2639631DOSODOS                                     gts.x 15 ml             00000000NNBeta            00000820220160512002020320135007795328052703000110SNN00
2137361DOSODOS                                     jbe.x 120 ml            00000000NNBeta            00001474720160512002020320135107795328052727000110SNN00
2327602DOSODOS                                     jbe.x 150 ml            00000000NNBeta            00002646220160512002020325191607795328052710000130SNN00
6236552DOSOMUK                                     600 mg comp.dispers.x 1000009200NNBeta            00001797920160512002020325206407795328052734001010SNN00
6236553DOSOMUK                                     600 mg comp.dispers.x 2000015000NNBeta            00002921920160512002020325206507795328052741002030SNN00
5323552DOXATEN                                     0.5 mg caps.x 30        00000000NNBeta            00004885720160512002020325221707795328056251003010SNN00
5239312DROPICINE                                   0.5 mg comp.rec.x 20    00000000NNBeta            00000634420160512A03020323430307795328058682002010SNN00
4815151DROPICINE                                   1 mg comp.rec.x 20      00000000NNBeta            00000955720160512A03020322706007795328058705002010SNN00
4815153DROPICINE                                   1 mg comp.rec.x 60      00000000NNBeta            00002283420160512A03020322706107795328058712006030SNN00
4815231DROPICINE                                   2 mg comp.rec.x 20      00000000NNBeta            00001850520160512A03020322706207795328058736002010SNN00
4815233DROPICINE                                   2 mg comp.rec.x 60      00000000NNBeta            00006313820160512A03020322706307795328058743006030SNN00
4815311DROPICINE                                   3 mg comp.rec.x 20      00000000NNBeta            00002615520160512A03020322706407795328058767002010SNN00
4815313DROPICINE                                   3 mg comp.rec.x 60      00000000NNBeta            00008170420160512A03020322706507795328058774006030SNN00
2984571ESTILOMICIN                                 comp.rec.x 20           00000000NNBeta            00001431620160512003020322049107795328053250002010SNN00
5564002EXOTRAN                                     500 mg comp.lib.prol.x3000029539SNBeta            00004100820160512002020323961207795328057005003010SNN00
5564004EXOTRAN                                     500 mg comp.lib.prol.x6000059078SNBeta            00009514520160512002020323961307795328057012006030SNN00
2770055FLOCUR                                      200 mg caps.x 20        00000000NNBeta            00004476620160512002020324998007795328053199002010SNN00
4696362FLOCUR RAPID                                comp.x 15               00000000NNBeta            00003747120160512002020324979107795328053212001510SNN00
4856662GINAL CENT                                  caps.blandas vag.x 6    00000000NNBeta            00001587120160512002020322815507795328051522000610SNN00
4768552GLIMIDE                                     4 mg comp.rec.x 30      00000000NNBeta            00004028720160512A03020322667907795328052611003010SNN00
4768632GLIMIDE                                     8 mg comp.rec.x 30      00000000NNBeta            00003914720160512A03020322668007795328052628003010SNN00
4802523INTESUL                                     5 mg comp.rec.x 30      00000000NNBeta            00001372420160512002020322706907795328057531003010SNN00
4802525INTESUL                                     5 mg comp.rec.x 60      00000000NNBeta            00002362420160512002020322707007795328057548006030SNN00
4748751LACTAMAX                                    0.5 mg comp.x 2         00008227NNBeta            00002693420160512002060322668207795328057302000210SNN00
4748753LACTAMAX                                    0.5 mg comp.x 8         00026654NNBeta            00007882520160512002060322668307795328057326000830SNN00
5988132LIPO PLUS                                   200 mg c ps.x 30        00000000NNBeta            00005371820160512002080325221807795328052215003010SNN00
0607576LOTOQUIS                                    comp.x 100              00000000NNBeta            00009903920160512304060320257407795328057104010010SNN00
0607313LOTOQUIS 5                                  comp.x 100              00000000NNBeta            00009706320160512304060320326707795328057128010010SNN00
1040503LOTOQUIS SIMPLE                             comp.x 100              00056778NNBeta            00009567720160512002060320420107795328057159010030SNN00
4380113LOTOQUIS SIMPLE                             comp.x 50               00016679NNBeta            00002982720160512002060324064407795328057142005010SNN00
4805833MECANYL                                     1500 mg gran.sob.x 30   00000000NNBeta            00003572520160512002020322707307795328053380003010SNN00
5081492MECANYL DUO                                 caps.x 30               00000000NNBeta            00002335320160512002020323173807795328053304003010SNN00
5081493MECANYL DUO                                 caps.x 60               00000000NNBeta            00003957720160512002020323173907795328053311006030SNN00
5186832MECANYL DUO                                 gran.sob.x 30           00000000NNBeta            00006182220160512002020323315007795328053298003010SNN00
5603972MECANYL K                                   1500 mg gran.sob.x 30   00000000NNBeta            00003302620160512002020323978807795328053403003010SNN00
5607712MECANYL K DUO                               gran.sob.x 30           00000000NNBeta            00005448720160512002020324037307795328053359003010SNN00
3538051MEDILAXAN                                   comp.rec.x 30           00000000NNBeta            00001740520160512002020321161707795328056473003010SNN00
0018422MEDILAXAN                                   gran.fco.x 250 g        00000000NNBeta            00004737620160512002020320146407795328056459000110SNN00
5860972MENOCLIM                                    ov.x 10                 00010581NNBeta            00002903820160512002020324546007795328054981001010SNN00
5631131MODIFICAL DUO                               comp.rec.x1+comp.mastx3000000000NNBeta            00003942620160512002020324037407795328051379003110SNN00
9951917MUCO DOSODOS                                jbe.x 150 ml            00000000NNBeta            00003428520160512002020325191707795328052765000130SNN00
4033873NEUREX                                      500 mg comp.x 40        00000000NNBeta            00009122320160512002020325036807795328051614004020SNN00
4033874NEUREX                                      500 mg comp.x 80        00000000NNBeta            00016712220160512002020325036907795328051638008040SNN00
5681551NEUROSOMAT 0.25 MG                          0.25 mg comp.x 30       00000000NNBeta            00001287520160512002020324495107795328056329003010SNN00
5681553NEUROSOMAT 0.25 MG                          0.25 mg comp.x 90       00000000NNBeta            00003712120160512002020324495207795328056343009030SNN00
5681681NEUROSOMAT 1 MG                             1 mg comp.x 30          00000000NNBeta            00004774220160512002020324495307795328056374003010SNN00
5681683NEUROSOMAT 1 MG                             1 mg comp.x 90          00000000NNBeta            00012890720160512002020324495407795328056398009030SNN00
4472103NEUTRACOL                                   600 mg comp.rec.x 40    00000000NNBeta            00009558820160512002020324967307795328050976004010SNN00
4472104NEUTRACOL                                   600 mg comp.rec.x 60    00000000NNBeta            00013853320160512002020324967407795328050983006030SNN00
5432263OXA 100                                     comp.rec.x 15           00009699NNBeta            00001693720160512002020323744107795328053809001510SNN00
5432265OXA 100                                     comp.rec.x 30           00019949NNBeta            00003483520160512002020323744207795328053816003030SNN00
3011851OXA 50                                      50 mg comp.rec.x 15     00006193NNBeta            00002016320160512002020321016107795328053632001510SNN00
3011852OXA 50                                      50 mg comp.rec.x 30     00007763NNBeta            00003416520160512002020320139007795328053649003020SNN00
3012001OXA 75                                      75 mg iny.a.x 6 x 3 ml  00008420NNBeta            00002147120160512002020320139107795328053656000610SNN00
3030401OXA B12                                     comp.rec.x 15           00000000NNBeta            00002366420160512002020321016307795328053410001510SNN00
3030402OXA B12                                     comp.rec.x 30           00000000NNBeta            00004645120160512002020320486707795328053427003030SNN00
4488621OXA FORTE                                   comp.rec.x 10           00000000NNBeta            00000848520160512803020322265307795328054066001010SNN00
4488622OXA FORTE                                   comp.rec.x 20           00000000NNBeta            00001500320160512803020322265407795328054073002030SNN00
3012182OXA GEL                                     gel x 100 g             00000000NNBeta            00003749920160512002020320291707795328053854000130SNN00
3012181OXA GEL                                     gel x 50 g              00000000NNBeta            00002344520160512002020321331207795328053847000110SNN00
4966351OXA GEL PLUS                                gel x 50 g              00000000NNBeta            00002536420160512002020322973207795328053885000110SNN00
2980691OXA RETARD                                  comp.rec.x 15           00006500NNBeta            00001414120160512002020321016207795328055339001510SNN00
2980692OXA RETARD                                  comp.rec.x 30           00012382NNBeta            00002663620160512002020320139507795328055353003030SNN00
3693311OXADISTEN                                   cr.x 50 g               00000000NNBeta            00002328520160512002020322009307795328053755000110SNN00
5720132OXADISTEN CB                                caps.blandas x 15       00000000NNBeta            00001664520160512002020324210807795328053779001510SNN00
5365714OXAGESIC FORTE                              comp.rec.x 15           00000000NNBeta            00002867920160512002020324997607795328053601001510SNN00
5365716OXAGESIC FORTE                              comp.rec.x 30           00000000NNBeta            00004480820160512002020324997507795328053625003020SNN00
0593624OXAPROST                                    comp.x 16               00000000NNBeta            00014506420160512A03020321093007795328053465001610NNN00
3119362OXAPROST 75                                 comp.x 16               00000000NNBeta            00014629420160512A03020321829907795328053502001610NNN00
5231214PSICOASTEN LC                               12.5 mg comp.rec.x 30   00019348NNBeta            00003757720160512403020323430507795328058422003030SNN00
5231374PSICOASTEN LC                               25 mg comp.rec.x 30     00019000NNBeta            00004314520160512403020323430707795328058446003010SNN00
5231424PSICOASTEN LC                               37.5 mg comp.rec.x 30   00018434NNBeta            00003439920160512403020323430807795328058460003010SNN00
6110131RIBASTAMIN 150 DUO                          comp.rec.x1+comp.mastx3000000000NNBeta            00003246120160512002000324737307795328057951003110SNN00
4566092SESTRINE                                    0.5 mg comp.x 30        00000000NNBeta            00002143920160512002020322647207795328058101003010SNN00
4566172SESTRINE                                    1 mg comp.x 30          00000000NNBeta            00002143920160512002020322647407795328058149003010SNN00
4566174SESTRINE                                    1 mg comp.x 90          00000000NNBeta            00006052720160512002020322647507795328058163009030SNN00
4566252SESTRINE                                    2 mg comp.x 30          00000000NNBeta            00001770920160512002020322647607795328058187003010SNN00
4566254SESTRINE                                    2 mg comp.x 90          00000000NNBeta            00005985820160512002020322647707795328058170009030SNN00
5397844SIBLIX                                      10 mg comp.x 30         00014388SNBeta            00002798220160512A03020323686107795328056503003030SNN00
5397974SIBLIX                                      15 mg comp.x 30         00026657SNBeta            00004082420160512A03020323686307795328056541003010SNN00
6146811SUPRAGESIC T NF                             comp.x 10               00004582SNBeta            00000750020160512A03020324923407795328054769001010SNN00
6146843SUPRAGESIC T NF                             comp.x 20               00008444SNBeta            00001569020160512A03020324923507795328054776002030SNN00
6234262SUPRAGESIC T PLUS                           comp.rec.x 10           00000000NNBeta            00001940020160512A03020324996207795328054714001010SNN00
6234264SUPRAGESIC T PLUS                           comp.rec.x 20           00000000NNBeta            00003898020160512A03020324996307795328054721002020SNN00
4925202TAXUS 400                                   400 mg comp.mast.x 30   00000000NNBeta            00002036620160512002080322892807795328055476003010SNN00
5420842TONAL 600                                   600 mg comp.x 30        00004175NNBeta            00000599220160512002020323724307795328052901003010SNN00
5420843TONAL 600                                   600 mg comp.x 60        00008351NNBeta            00001150320160512002020323724407795328052918006020SNN00
3969884TRIAL GEL                                   gel x 80 g              00029777NNBeta            00005333220160512002020325156607795328055926000110SNN00
3059631TRIAL SAT                                   0.025 mg sat x 8        00012000NNBeta            00002632520160512002020321299007795328055834000810SNN00
3059711TRIAL SAT                                   0.050 mg sat x 8        00019000NNBeta            00003752320160512002020320432207795328055803000810SNN00
5756712TRIAL SAT L.A.                              0.014 mg sat x 4        00015464NNBeta            00002806220160512002020324226607795328055889000410SNN00
3908652TRIAL SAT L.A.                              0.025 mg sat x 4        00016506NNBeta            00002995420160512002020321555107795328055896000410SNN00
3908732TRIAL SAT L.A.                              0.050 mg sat x 4        00025221NNBeta            00004576820160512002020321555207795328055858000410SNN00
4034021TRIAMID                                     500 mg comp.rec.x 3     00004959NNBeta            00001093420160512003080321758307795328051201000310SNN00
4034022TRIAMID                                     500 mg comp.rec.x 5     00005526NNBeta            00001621220160512003080322211707795328051218000530SNN00
4805911TRIASPAR                                    1 mg comp.x 30          00032661NNBeta            00011477620160512002060322784907795328058651003010SNN00
4806081TRIASPAR                                    2 mg comp.x 30          00057403NNBeta            00015454220160512002060322707607795328058606003010SNN00
5953392ULTREX 20                                   20 mg comp.rec.x 14     00009635NNBeta            00001450120160512002020324639307795328057654001410SNN00
5953393ULTREX 20                                   20 mg comp.rec.x 28     00021000NNBeta            00003745320160512002020324639407795328057661002850SNN00
5953422ULTREX 40                                   40 mg comp.rec.x 14     00013417NNBeta            00001941420160512002020324639507795328057678001410SNN00
5953423ULTREX 40                                   40 mg comp.rec.x 28     00029300NNBeta            00005377220160512002020324570807795328057685002850SNN00
1219972VI SYNERAL GE                               comp.rec.x 50           00000000NNBeta            00001833920160512002020320141007795328055223005010SNN00
4429051WETOL                                       comp.rec.x 30           00000000NNBeta            00002156120160512002020322198907795328058408003010SNN00
3635991AMOXOL 1000                                 1000 mg comp.x 10       00003179NNCassar          00000549020160512003000462950807795373012783001010SNN00
2689261AMOXOL DUO                                  875 mg comp.x 10        00001690NNCassar          00000590020160512003000464489807795373030770001010SNN00
4570791SINALER                                     10 mg comp.x 10         00002124NNCassar          00000329020160512002000462646107795373012141001010SNN00
33137215-ASA 400                                   400 mg comp.x 30        00029862SNDom¡nguez       00006055220160513002020671110507795327061164003010SNN00
33137225-ASA 400                                   400 mg comp.x 60        00059724SNDom¡nguez       00011513420160513002020671110607795327061171006030SNN00
33141315-ASA 400                                   400 mg sup.x 10         00014002SNDom¡nguez       00002834120160513002020671110707795327061188001011SNN00
33141325-ASA 400                                   400 mg sup.x 30         00042005SNDom¡nguez       00008112820160513002020671110807795327061195003031SNN00
58201315-ASA 500                                   500 mg comp.x 30        00029539SNDom¡nguez       00006432920160513002020674311907795327063625003010SNN00
58201325-ASA 500                                   500 mg comp.x 60        00059078SNDom¡nguez       00011579620160513002020674312007795327063632006030SNN00
58200015-ASA 800                                   800 mg comp.x 30        00038510SNDom¡nguez       00010292220160513002020674312107795327063670003010SNN00
58200025-ASA 800                                   800 mg comp.x 60        00077020SNDom¡nguez       00017799020160513002020674312207795327063687006030SNN00
2168891A ACIDO                                     0.05% cr.x 10 g         00000000NNDom¡nguez       00001054220160513002000670258607795327060006000110SNN00
2168971A ACIDO                                     0.1% cr.x 10 g          00000000NNDom¡nguez       00001247720160513002000670258707795327060020000110SNN00
2062361A ACIDO                                     0.2% cr.x 10 g          00000000NNDom¡nguez       00001366620160513002000670258807795327060037000110SNN00
3444242A ACIDO EMOLIENTE                           0.025% cr.x 30 g        00000000NNDom¡nguez       00002532120160513002000671212607795327060051000110SNN00
3068041A ACIDO VITAL                               cr.x 30 g               00000000NNDom¡nguez       00002472320160513002000670000507795327060044000110SNN00
3444321ACIFOL                                      1 mg comp.x 30          00003800NNDom¡nguez       00000755920160513002020671341807795327000040003010SNN00
3444322ACIFOL                                      1 mg comp.x 60          00006000NNDom¡nguez       00001284720160513002020671341907795327000057006030SNN00
4465431ACIFOL 10                                   10 mg comp.x 30         00000000NNDom¡nguez       00001798120160513002020672269307795327061300003010SNN00
4465432ACIFOL 10                                   10 mg comp.x 60         00000000NNDom¡nguez       00003062620160513002020672269407795327061317006030SNN00
3978451ACIFOL 5                                    5 mg comp.x 30          00004500NNDom¡nguez       00000992320160513002020671623107795327060082003010SNN00
3978452ACIFOL 5                                    5 mg comp.x 60          00007000NNDom¡nguez       00001689420160513002020671623207795327060099006030SNN00
5097631ACIFOL B12                                  comp.x 30               00000000NNDom¡nguez       00001430720160513002020673385607795327061980003010SNN00
5097632ACIFOL B12                                  comp.x 60               00000000NNDom¡nguez       00002437620160513002020673385907795327061997006030SNN00
4930571ACIFOL GOTAS                                fco.x 10 ml             00006291NNDom¡nguez       00001056820160513002020673344207795327060167000110SNN00
6084133AFLUSAN                                     50 mg comp.x 10         00000000NNDom¡nguez       00000785120160513002000674775907795327063779001010SNN00
6084131AFLUSAN                                     50 mg comp.x 30         00000000NNDom¡nguez       00002184620160513002000674710307795327063755003020SNN00
6084132AFLUSAN                                     50 mg comp.x 60         00000000NNDom¡nguez       00004151720160513002000674710407795327063762006050SNN00
3479312BAREX 70                                    pvo.p/sol.oral x 1 l    00000000NNDom¡nguez       00001246620160513002020671671307795327061225000110SNN00
5580551BAREX KIT                                   Barex70 x2+ 4c.Bisacodil00000000NNDom¡nguez       00004404020160513002020673954107795327062000000110SNN00
3479313BAREX S                                     pvo.hidrosol.sob.x 24   00000000NNDom¡nguez       00001846820160513002020672169007795327061232002410SNN00
3479314BAREX S                                     pvo.hidrosol.sob.x 50   00000000NNDom¡nguez       00003820820160513002020672169107795327061249005030SNN00
3479311BAREX SABORIZADO                            pvo.p/sol.oral x 4 l    00000000NNDom¡nguez       00004008120160513002020671145607795327061218000110SNN00
5638421BAREX UNIPEG                                sobres x 12             00000000NNDom¡nguez       00003922420160513002020674127907795327091345001210SNN00
5638422BAREX UNIPEG                                sobres x 24             00000000NNDom¡nguez       00007060720160513002020674822807795327091352002420SNN00
5638423BAREX UNIPEG                                sobres x 30             00000000NNDom¡nguez       00008825920160513002020675047607795327064080003050SNN00
6010261CITROMAG KIT                                sob.x 1+comp.x 4+sup.x 100000000NNDom¡nguez       00003648620160513002020674781507795327063151000110SNN00
4493651DEXO                                        150 mg comp.x 20        00010018NNDom¡nguez       00002058220160513002020672428207795327061560002010SNN00
4493731DEXO                                        300 mg comp.x 20        00023630NNDom¡nguez       00003933220160513002020672428307795327061591002010SNN00
4493732DEXO                                        300 mg comp.x 50        00047809NNDom¡nguez       00009204420160513002020672428407795327061607005030SNN00
5971391DINADOM                                     0.1 mg comp.x 30        00022182SNDom¡nguez       000043192201605130020A0674647707795327000019003010SNN00
5638551DINADOM                                     0.2 mg comp.x 30        00042821SNDom¡nguez       000071913201605130020A0674582507795327000026003010SNN00
5638711DINADOM                                     10mcg/ds.sp.nasal x 5 ml00050459SNDom¡nguez       000101930201605130020A0674582607795327000088000110SNN00
5639001FERIVE                                      100 mg a.x 5            00034388NNDom¡nguez       00004132820160513002020674168607795327091338000510NNN00
4129241FOSFO-DOM                                   env.x 45 ml             00011714NNDom¡nguez       00001532020160513002020671799207795327000118000110SNN00
5608261FOSFO-DOM KIT                               Fosfodom+Bisacod:4c+1sup00000000NNDom¡nguez       00002708020160513002020673980207795327062017000110SNN00
2317461GUTRON                                      2.5 mg comp.x 20        00000000NNDom¡nguez       00002231820160513002020674372607792796484111002010SNN00
2317462GUTRON                                      2.5 mg comp.x 50        00000000NNDom¡nguez       00005020920160513002020674372707792796484135005030SNN00
5408971LACTAS                                      caps.x 20               00000000NNDom¡nguez       00002495420160513002020673710107795327060921002010SNN00
5408972LACTAS                                      caps.x 50               00000000NNDom¡nguez       00005303020160513002020673710207795327060945005030SNN00
5699003LACTAS                                      comp.ran.x 10           00000000NNDom¡nguez       00001817020160513002020674472007795327063175001010SNN00
5699001LACTAS                                      comp.ran.x 20           00000000NNDom¡nguez       00003271020160513002020674197607795327091420002030SNN00
4987111LACTAS                                      gts.x 3.5 ml            00000000NNDom¡nguez       00001118420160513002020673827407795327060891000110SNN00
2414481MELASMAX                                    cr.x 10 g               00000000NNDom¡nguez       00002570320160513002020670260907795327060778000110SNN00
5002071NITRODOM                                    pomo x 15 g             00000000NNDom¡nguez       00004147620160513002080673053907795327060730000110SNN00
5154603NULITE                                      100 mg comp.x 10        00000000NNDom¡nguez       00000881420160513002020674421207795327013477001010SNN00
5154601NULITE                                      100 mg comp.x 30        00000000NNDom¡nguez       00002432820160513002020674369207795327063267003020SNN00
5154602NULITE                                      100 mg comp.x 60        00000000NNDom¡nguez       00004622420160513002020674369307795327063274006050SNN00
6291551PRAZODEX                                    20 mg c ps.x 14         00009635NNDom¡nguez       00001957020160513002020675094107795327064141001410SNN00
6291552PRAZODEX                                    20 mg c ps.x 28         00021000NNDom¡nguez       00003718420160513002020675094207795327064158002830SNN00
6291681PRAZODEX                                    40 mg c ps.x 14         00013417NNDom¡nguez       00002739920160513002020675094307795327064165001410SNN00
6291682PRAZODEX                                    40 mg c ps.x 28         00029300NNDom¡nguez       00005205820160513002020675094407795327064172002830SNN00
5736003RIFADOM                                     200 mg comp.x 20        00000000NNDom¡nguez       00003071920160513003020674952407795327063878002010SNN00
5736004RIFADOM                                     200 mg comp.x 40        00000000NNDom¡nguez       00005836420160513003020674952507795327063885004030SNN00
6246392RIFADOM                                     550 mg comp.x 10        00000000NNDom¡nguez       00003675220160513003020674963507795327063892001010SNN00
6246393RIFADOM                                     550 mg comp.x 30        00000000NNDom¡nguez       00009371920160513003020674963607795327063908003020SNN00
6246391RIFADOM                                     550 mg comp.x 60        00000000NNDom¡nguez       00015932220160513003020674963707795327063854006050SNN00
9921770SITZMARKS                                   caps.x 1                00000000NNDom¡nguez       00004551720160513012100672177007795327061409000110NNN00
5256891SL B12                                      comp.ran.x 15           00000000NNDom¡nguez       00001000020160513002020673518807795327060518001510SNN00
5256892SL B12                                      comp.ran.x 30           00000000NNDom¡nguez       00001738920160513002020673518907795327060525003030SNN00
9947987CONCERTA                                    18 mg comp.x 30         00053426SNJanssen-Cilag   00010565220160511213021274798707795314027005003050SNN00
5050543CONCERTA                                    36 mg comp.x 30         00076409SNJanssen-Cilag   00015110520160511213021274798807795314027012003030SNN00
9947989CONCERTA                                    54 mg comp.x 30         00103892SNJanssen-Cilag   00020545220160511213021274798907795314027029003020SNN00
3411731DAKTARIN                                    gel oral x 40 g         00005000NNJanssen-Cilag   00000706420160511012021271183407795314029641000110SNN00
0546642DUROGESIC D-TRANS                           25 mcg/h parch.matriz.x500000000NNJanssen-Cilag   00021826220160511613021273808207795314021928000510NNN00
0547684DUROGESIC D-TRANS                           50 mcg/h parch.matriz.x500000000NNJanssen-Cilag   00039285420160511613021273808307795314021935000510NNN00
5111011EVRA                                        parches transd‚rmicos x300000000NNJanssen-Cilag   00001973320160511012001273251707795314892375000310NNN00
3058644FLOXIL                                      200 mg comp.x 12        00000000NNJanssen-Cilag   00002683520160511013081273446607795314024011001250SNN00
3481113FLOXIL                                      400 mg comp.x 8         00000000NNJanssen-Cilag   00004010420160511013081273446707795314024028000810SNN00
1211612FRADEMICINA                                 300 mg a.x 4 x 1 ml     00000000NNJanssen-Cilag   00002317020160511013081270227607795314020099000460SNN00
1211792FRADEMICINA                                 500 mg caps.x 16        00000000NNJanssen-Cilag   00003487420160511013081270667507795314020143001610SNN00
1211451FRADEMICINA                                 600 mg a.x 1 x 2 ml     00000000NNJanssen-Cilag   00001212420160511013081270667707795314020112000160SNN00
1211452FRADEMICINA                                 600 mg a.x 4 x 2 ml     00000000NNJanssen-Cilag   00003716420160511013081270227707795314020129000460SNN00
0438862HALOPIDOL                                   1 mg comp.x 100         00008953NNJanssen-Cilag   00001629620160511413081270397407795314022154010010SNN00
2472722HALOPIDOL                                   10 mg comp.x 60         00022800NNJanssen-Cilag   00006450220160511413081270455407795314022178006010SNN00
0445116HALOPIDOL                                   2 mg/ml sol.oral x 30 ml00000000NNJanssen-Cilag   00001538020160511413081275172607795314026213000150SNN00
2472802HALOPIDOL                                   5 mg comp.x 60          00016184NNJanssen-Cilag   00003319920160511413081270397507795314022598006010SNN00
0439013HALOPIDOL                                   5 mg iny.a.x 5 x 1 ml   00022697NNJanssen-Cilag   00003655020160511413081272865907795314892061000510SNN00
3200101HALOPIDOL DECANOATO                         iny.a.x 1 ml            00013929NNJanssen-Cilag   00002147020160511413081270455507795314027289000110SNN00
3200102HALOPIDOL DECANOATO                         iny.a.x 3 ml            00019575NNJanssen-Cilag   00003983120160511413081270455607795314027296000110SNN00
2723022HALOPIDOL FORTE                             10 mg sol.x 30 ml       00022708NNJanssen-Cilag   00003528520160511413081272787307795314892221000110SNN00
5746001INVEGA                                      3 mg comp.lib.prol.x 28 00000000NNJanssen-Cilag   00018299820160511A13021274178707795314023489002810SNN00
0574613INVEGA                                      6 mg comp.lib.prol.x 28 00000000NNJanssen-Cilag   00019895320160511A13021274178807795314023496002810SNN00
9951656INVEGA SUSTENNA                             100 mg/1 ml jga.prell.  00000000NNJanssen-Cilag   00078555320160511A13021275165607795314023663000110NNN00
9951657INVEGA SUSTENNA                             150 mg/1.5 ml jga.prell.00000000NNJanssen-Cilag   00078555320160511A13021275165707795314023670000110NNN00
9951655INVEGA SUSTENNA                             50 mg/0.5 ml jga.prell. 00000000NNJanssen-Cilag   00041889920160511A13021275165507795314022642000110NNN00
9951654INVEGA SUSTENNA                             75 mg/0.75 ml jga.prell.00000000NNJanssen-Cilag   00061757020160511A13021275165407795314023656000110NNN00
6347421INVOKANA                                    100 mg comp.x 30        00000000NNJanssen-Cilag   00009363220160511012001275188107795314028569003010SNN00
6347551INVOKANA                                    300 mg comp.x 30        00000000NNJanssen-Cilag   00009363220160511012001275188207795314028576003010SNN00
3789441LEUSTAT                                     10 mg a.x 7 x 10 ml     00000000NNJanssen-Cilag   00429913220160511013001271392507795314000596000710NNN00
4291932LEVAQUIN                                    500 mg comp.x 7         00009543NNJanssen-Cilag   00004556320160511013081272115407795314891583000710SNN00
2596151NEMASOLE                                    susp.x 30 ml            00003819NNJanssen-Cilag   00000634120160511012021270456607795314022581000110SNN00
2848281NEMASOLE AD                                 comp.x 6                00005824NNJanssen-Cilag   00001042920160511012021270456707795314027739000610SNN00
2715023ORIFUNGAL                                   cr.x 15 g               00005360NNJanssen-Cilag   00001096620160511012021270457307795314027678000110SNN00
4189641PLETAAL                                     100 mg comp.x 20        00020168NNJanssen-Cilag   00003108620160511012081271899207798029230036002010SNN00
4189642PLETAAL                                     100 mg comp.x 40        00036338NNJanssen-Cilag   00005601220160511012081271899307798029230043004030SNN00
4189561PLETAAL                                     50 mg comp.x 20         00010746NNJanssen-Cilag   00001656420160511012081271899007798029230012002010SNN00
4189562PLETAAL                                     50 mg comp.x 40         00020168NNJanssen-Cilag   00003108620160511012081271899107798029230029004030SNN00
4846341REMINYL                                     12 mg tab.x 56          00075084SNJanssen-Cilag   00017027420160511012021272721307795314892092005610SNN00
4846181REMINYL                                     4 mg tab.x 14           00010755SNJanssen-Cilag   00002674920160511012021272721007795314892139001410SNN00
5445391REMINYL ER                                  16 mg caps.x 28         00075772SNJanssen-Cilag   00014984320160511012021273738107795314021768002810SNN00
5443711REMINYL ER                                  8 mg caps.x 28          00040298SNJanssen-Cilag   00009836820160511012021273738007795314021478002810SNN00
4581341RISPERDAL                                   0.25 mg comp.x 20       00000000NNJanssen-Cilag   00000893420160511A13021272542307795314891941002010SNN00
4581421RISPERDAL                                   0.5 mg comp.x 20        00000000NNJanssen-Cilag   00001343620160511A13021272542407795314891958002010SNN00
3711541RISPERDAL                                   1 mg comp.x 20          00000000NNJanssen-Cilag   00002199820160511A13021271314507795314029863002010SNN00
3711621RISPERDAL                                   2 mg comp.x 20          00000000NNJanssen-Cilag   00004181320160511A13021271499907795314000022002010SNN00
3711622RISPERDAL                                   2 mg comp.x 60          00000000NNJanssen-Cilag   00011873120160511A13021271500007795314000039006030SNN00
3711701RISPERDAL                                   3 mg comp.x 20          00000000NNJanssen-Cilag   00006245720160511A13021271314707795314029900002010SNN00
3711702RISPERDAL                                   3 mg comp.x 60          00000000NNJanssen-Cilag   00017545420160511A13021271314807795314029917006030SNN00
3711881RISPERDAL                                   4 mg comp.x 20          00000000NNJanssen-Cilag   00007883520160511A13021272115207795314891545002010SNN00
4253571RISPERDAL                                   sol.oral x 100 ml       00000000NNJanssen-Cilag   00013349620160511A13021272115307795314891552000130SNN00
4253572RISPERDAL                                   sol.oral x 30 ml        00000000NNJanssen-Cilag   00004486320160511A13021272220707795314891699000110SNN00
5111171RISPERDAL CONSTA                            25 mg vial a.x 1        00000000NNJanssen-Cilag   00020944920160511A13021273252007795314026800000110SNN00
9952460RISPERDAL CONSTA                            25 mg vial a.x 1+aguja  00000000NNJanssen-Cilag   00020944920160512A13001275246007795314028538000110NNN00
5111221RISPERDAL CONSTA                            37.5 mg vial a.x 1      00000000NNJanssen-Cilag   00030878520160511A13021273252107795314026817000110SNN00
9952461RISPERDAL CONSTA                            37.5 mg vial a.x 1+aguja00000000NNJanssen-Cilag   00030878520160512A13001275246107795314028545000110NNN00
2578093SIBELIUM                                    comp.x 30               00000000NNJanssen-Cilag   00001000820160511012021271228307795314027302003010SNN00
2578094SIBELIUM                                    comp.x 60               00000000NNJanssen-Cilag   00001862220160511012021271228407795314027319006030SNN00
3056904SPORANOX                                    caps.x 10               00008514SNJanssen-Cilag   00002111720160511012021272899807795314892313001020SNN00
3056902SPORANOX                                    caps.x 15               00013780SNJanssen-Cilag   00002918420160511012021270459807795314028347001550SNN00
3056901SPORANOX                                    caps.x 4                00006354SNJanssen-Cilag   00001212420160511012021270775207795314028330000410SNN00
4248541SPORANOX                                    sol.oral x 150 ml       00060504SNJanssen-Cilag   00011546020160511012021272570007795314891774000110SNN00
3056903SPORANOX PULSO                              caps.x 28               00023840SNJanssen-Cilag   00005475420160511012021272174207795314891705002810SNN00
1570172STUGERON                                    comp.x 60               00000000NNJanssen-Cilag   00000670420160511012021270459907795314022406006010SNN00
2065253STUGERON FORTE                              comp.x 100              00000000NNJanssen-Cilag   00001658520160511012021270458707795314022352010030SNN00
2065252STUGERON FORTE                              comp.x 60               00000000NNJanssen-Cilag   00001203120160511012021270458607795314022369006010SNN00
2639211SUPRASEC                                    comp.x 10               00003206NNJanssen-Cilag   00000661620160511012021270459107795314022468001010SNN00
4159941TOPAMAC                                     100 mg comp.x 28        00025367SNJanssen-Cilag   00007145620160511A13061271976207795314029993002810SNN00
4159943TOPAMAC                                     100 mg comp.x 60        00054359SNJanssen-Cilag   00013806920160511A13061273443207795314027784006050SNN00
4159781TOPAMAC                                     25 mg comp.x 28         00009952SNJanssen-Cilag   00002548220160511A13061271976007795314029979002810SNN00
4159861TOPAMAC                                     50 mg comp.x 28         00015769SNJanssen-Cilag   00004689120160511A13061271976107795314029986002810SNN00
4646361TOPAMAC SPRINKLE                            15 mg caps.disp.x 60    00020312SNJanssen-Cilag   00004016920160511A13061272566507795314891972006010SNN00
4684061TOPAMAC SPRINKLE                            25 mg caps.disp.x 60    00021325SNJanssen-Cilag   00006923120160511A13061272566607795314891989006010SNN00
5114491TRAMACET                                    comp.x 10               00000000NNJanssen-Cilag   00001523420160511A13021273511407795314026688001010SNN00
5114492TRAMACET                                    comp.x 20               00000000NNJanssen-Cilag   00002587920160511A13021274186507795314026695002030SNN00
3593666ALFADIMAN                                   300 mg comp.x 100       00000000NNLazar           00003000020160512002001385244607795347970972010010NNN00
9946527FLOGOLISIN                                  75 mg comp.rec.x 100    00000000NNLazar           00003900020160512002001384652707795347972082010010NNN00
5384551H36 LAZAR                                   20 mg comp.rec.x 2      00000000NNLazar           00002200020160512002021385244707795347934516000210NNN00
9946530LAZALGINA                                   125 mg comp.rec.x 100   00000000NNLazar           00002000020160512002001384653007795347973195010090NNN00
5754681NOVEMINA                                    jbe.x 120 ml            00001451NNLazar           00000800020160512002001380495907795347942030000110NNN00
9917128REGULACID                                   20 mg caps.x 14         00004770NNLazar           00000750020160512002021381712807795347949497001410NNN00
4026441DIURAL                                      50 mg comp.x 15         00002100NNLepetit         00000360020160512002021404378707798011652136001510SNN00
4029753ENATRAL 5 MG                                5 mg comp.x 30          00003300NNLepetit         00000360020160512002001403562107798011651627003010SNN00
4017115RANITRAL 300                                300 mg comp.rec.x 10    00003761NNLepetit         00000390020160512002001402832107798011651115001010SNN00
2307141ALIDASE                                     comp.x 10               00002527NNLaboratorios Ber00000440920160511002021570124307792175000147001010SNN00
2778071ALIDASE 500                                 comp.x 10               00004364NNLaboratorios Ber00000814320160511002021570059407792175000888001010SNN00
2778073ALIDASE 500                                 comp.x 40               00012536NNLaboratorios Ber00002187020160511002021570060307792175000895004030SNN00
5355713ALIPAS                                      10 mg comp.x 30         00013500NNLaboratorios Ber00002093020160511002021573651207792175008013003010SNN00
5331554ALIPAS DUO                                  10/10 mg comp.x 30      00000000NNLaboratorios Ber00002899920160511002021573736207792175007924003010SNN00
5331684ALIPAS DUO                                  10/20 mg comp.x 30      00000000NNLaboratorios Ber00002409620160511002021573736307792175007948003010SNN00
5331714ALIPAS DUO                                  10/40 mg comp.x 30      00000000NNLaboratorios Ber00002412620160511002021573736407792175007962003010SNN00
6301001AMAPOLI                                     comp.rec.x 28           00000000NNLaboratorios Ber00002297220160511002001575048807792175009423002810NNN00
3341522AMIXEN                                      500 mg comp.x 16        00003322NNLaboratorios Ber00000665720160511003081571060507792175000994001620SNN00
3341523AMIXEN                                      500 mg comp.x 21        00005000NNLaboratorios Ber00000843520160511003081573577107792175007726002150SNN00
3341521AMIXEN                                      500 mg comp.x 8         00001667NNLaboratorios Ber00000317420160511003081571060407792175000987000810SNN00
3925302AMIXEN                                      750 mg comp.x 16        00006496NNLaboratorios Ber00001010120160511003081571548207792175000970001610SNN00
6137003AMIXEN BRONQUIAL DUO                        comp.rec.x 14           00000000NNLaboratorios Ber00001518320160511003021574764807792175007115001410SNN00
5217812AMIXEN CLAVULANICO                          500 mg comp.rec.x 16    00014308NNLaboratorios Ber00002515620160511003081573422807792175007535001630SNN00
5217811AMIXEN CLAVULANICO                          500 mg comp.rec.x 8     00007000NNLaboratorios Ber00001273220160511003081573422707792175007528000810SNN00
5217951AMIXEN CLAVULANICO 1 G                      1 g comp.rec.x 14       00016300NNLaboratorios Ber00002497320160511003081573422907792175007542001410SNN00
5430973AMIXEN DUO                                  comp.rec.x 14           00007000NNLaboratorios Ber00001032320160511002081573817507792175008211001410SNN00
3965162AMIXEN PLUS                                 comp.rec.x 16           00000000NNLaboratorios Ber00002094720160511003021571626207792175001137001630SNN00
3965161AMIXEN PLUS                                 comp.rec.x 8            00000000NNLaboratorios Ber00001351220160511003021571626107792175001120000810SNN00
3842142ANIMEX-ON                                   20 mg comp.x 30         00010500NNLaboratorios Ber00001104620160511403021571490707792175001069003010SNN00
4077692ARTERIOSAN                                  10 mg comp.x 30         00013000NNLaboratorios Ber00002727520160511002081571791407792175001946003010SNN00
4077512ARTERIOSAN                                  5 mg comp.x 30          00008300NNLaboratorios Ber00001500420160511002081571791207792175001939003010SNN00
6107555ARTERIOSAN COMPUESTO                        5/100 mg comp.x 30      00000000NNLaboratorios Ber00003473120160511002021574775307792175009355003010SNN00
6107425ARTERIOSAN COMPUESTO                        5/50 mg comp.x 30       00000000NNLaboratorios Ber00003366220160511002021574775207792175009348003010SNN00
5078332ARTERIOSAN PLUS                             2.5/10 mg caps.x 30     00000000NNLaboratorios Ber00001237020160511002021573189607792175005883003010SNN00
5078492ARTERIOSAN PLUS                             5/10 mg caps.x 30       00000000NNLaboratorios Ber00001804320160511002021573189707792175005890003010SNN00
5078542ARTERIOSAN PLUS                             5/20 mg comp.x 30       00000000NNLaboratorios Ber00002831720160511002021574616707792175009225003010SNN00
6145391AZUCENA                                     comp.rec.x 28           00000000NNLaboratorios Ber00002107420160511002001574782807792175009331002810NNN00
5892972BACFURON                                    500 mg comp.rec.x 14    00015945NNLaboratorios Ber00002118320160511003081574469307792175009096001430SNN00
5892971BACFURON                                    500 mg comp.rec.x 7     00009543NNLaboratorios Ber00001343420160511003081574469207792175009089000710SNN00
5842841BACFURON                                    750 mg comp.rec.x 5     00011351NNLaboratorios Ber00001662020160511003081574469407792175009102000510SNN00
3365541BEDIX                                       comp.x 10               00002124NNLaboratorios Ber00000459520160511002021571119007792175005043001010SNN00
3365543BEDIX                                       comp.x 30               00005404NNLaboratorios Ber00001048220160511002021571119107792175005036003030SNN00
5883263BERNAFOLIC 1                                1 mg comp.x 30          00003800NNLaboratorios Ber00000557520160511002021574468807792175008990003010SNN00
5883266BERNAFOLIC 1                                1 mg comp.x 60          00006000NNLaboratorios Ber00000920520160511002021574468907792175009010006030SNN00
5883393BERNAFOLIC 5                                5 mg comp.x 30          00004500NNLaboratorios Ber00000703020160511002021574469007792175009027003010SNN00
5883396BERNAFOLIC 5                                5 mg comp.x 60          00007000NNLaboratorios Ber00001184220160511002021574469107792175009034006030SNN00
9935770BLANC DIENT                                 10% gel t¢pico x 15 ml  00000000NNLaboratorios Ber00000796220160511001101573577007792175007719000110NNN00
2680042BRONQ C                                     comp.x 30               00000000NNLaboratorios Ber00000489820160511002081571823007792175005111003010SNN00
2680121BRONQ C                                     jbe.x 100 ml            00000000NNLaboratorios Ber00000690220160511002081570548707792175005081000110SNN00
3502072BUCHEX FORTE                                fco.x 200 ml            00000000NNLaboratorios Ber00001112920160511002021571261207792175001007000110SNN00
5722001CAMELIA                                     comp.rec.x 28           00000000ENLaboratorios Ber00001441620160511002021574207907792175008792002810NNN00
5443004CORAFEN                                     12.5 mg comp.ran.x 28   00007550NNLaboratorios Ber00001152120160511002081573746907792175008259002810SNN00
5443133CORAFEN                                     25 mg comp.ran.x 28     00009300NNLaboratorios Ber00001541120160511002081573747007792175008266002810SNN00
5547974CORAFEN                                     3.125 mg comp.ran.x 28  00003566NNLaboratorios Ber00000540820160511002081573837007792175008341002810SNN00
5766844CORAFEN                                     50 mg comp.x 28         00013118NNLaboratorios Ber00001736920160511002081574340507792175008983002810SNN00
5442973CORAFEN                                     6.25 mg comp.ran.x 28   00005770NNLaboratorios Ber00000917220160511002081573746807792175008242002810SNN00
5432421CUIDAFEM                                    comp.rec.x 21           00000000ENLaboratorios Ber00001073720160511002001573781007792175008235002110NNN00
9935256DENTILAC                                    pomo x 20 g             00000000NNLaboratorios Ber00000421820160511001101573525607792175007702000110NNN00
9938212DENTILAC                                    pomo x 40 g             00000000NNLaboratorios Ber00000723220160511001101573821207792175008280000110NNN00
9925294DENTILAC                                    pomo x 60 g             00000000NNLaboratorios Ber00001061820160511001101572529407792175001762000130NNN00
9938924DENTILAC                                    pvo.adhes.x 20 g        00000000NNLaboratorios Ber00000476220160511001101573892407792175008303000110NNN00
9937132DENTILAC MENTA                              pomo x 20 g             00000000NNLaboratorios Ber00000421820160511001101573713207792175008174000110NNN00
9938213DENTILAC MENTA                              pomo x 40 g             00000000NNLaboratorios Ber00000723220160511001101573821307792175008297000110NNN00
9937133DENTILAC MENTA                              pomo x 60 g             00000000NNLaboratorios Ber00001061820160511001101573713307792175008181000130NNN00
4417592DISIPAN 75 MG                               75 mg comp.rec.x 15     00006987NNLaboratorios Ber00001336320160511002021574832007792175009362001510SNN00
4417594DISIPAN 75 MG                               75 mg comp.rec.x 30     00013000NNLaboratorios Ber00002350120160511002021574832107792175009379003030SNN00
6225396ETILES                                      25 mg comp.x 30         00000000NNLaboratorios Ber00002168220160511002021575001407792175009409003010SNN00
6225426ETILES                                      50 mg comp.x 30         00000000NNLaboratorios Ber00003255520160511002021575001607792175009416003010SNN00
5944393EXTENSIL                                    30 mg comp.rec.x 3      00000000NNLaboratorios Ber00001751720160511003001574516307792175009164000310NNN00
5944396EXTENSIL                                    30 mg comp.rec.x 6      00000000NNLaboratorios Ber00003091620160511003001574516407792175009171000630NNN00
2730611FENSEDYL                                    comp.x 20               00000000NNLaboratorios Ber00000885720160511002021570549007792175005289002010SNN00
2730791FENSEDYL                                    gts.x 30 ml             00000000NNLaboratorios Ber00000991920160511002021570549107792175005296000110SNN00
2707781FLUORDENT                                   comp.x 30               00005300NNLaboratorios Ber00000999820160511002021570125807792175000529003010SNN00
2786311FLUORDENT                                   gts.x 30 ml             00005300NNLaboratorios Ber00000999820160511002021570126007792175000543000110SNN00
3817231FLUORDENT B                                 env.x 60 g              00003300NNLaboratorios Ber00000540620160511001001571506007792175001892000110NNN00
2787642FLUORDENT PX                                pasta dent.x 120 g      00000000NNLaboratorios Ber00000804320160511001001571505907792175001885000130NNN00
2787641FLUORDENT PX                                pasta dent.x 60 g       00000000NNLaboratorios Ber00000544820160511001001571505807792175001878000110NNN00
2728492FLUORDENT PX COLUTORIO                      fco.x 200 ml            00004200NNLaboratorios Ber00001000020160511002021571712507792175001922000110SNN00
9934525FLUORDENT SEMANAL                           colut.x 50 ml           00004947NNLaboratorios Ber00000847020160511001001573452507792175007627000110NNN00
4223292GASTEC                                      10 mg caps.x 30         00009500NNLaboratorios Ber00001599220160511002021571911407792175001182003010SNN00
3146171GASTEC                                      20 mg caps.x 15         00005508NNLaboratorios Ber00001614620160511002021570962107792175000741001510SNN00
3146172GASTEC                                      20 mg caps.x 30         00012300NNLaboratorios Ber00003083220160511002021570962207792175000758003020SNN00
5248114GASTEC                                      40 mg caps.x 28         00030800NNLaboratorios Ber00005174320160511002021573255207792175007429002810SNN00
5606554GASTEC RAPIDO                               20 mg caps.x 30         00000000NNLaboratorios Ber00001814220160511002001573956007792175008556003030SNN00
5606682GASTEC RAPIDO                               40 mg caps.x 15         00000000NNLaboratorios Ber00001483720160511002001573956107792175008563001510SNN00
0126412GASTRIDIN                                   comp.x 20               00000000NNLaboratorios Ber00000497020160511002021570549607792175005777002010SNN00
0126413GASTRIDIN                                   comp.x 50               00000000NNLaboratorios Ber00000755920160511002021570549707792175005821005030SNN00
5579841IBANLEG                                     150 mg comp.rec.x 1     00014044SNLaboratorios Ber00003350920160511002021573955307792175008525000110SNN00
5579842IBANLEG                                     150 mg comp.rec.x 3     00042131SNLaboratorios Ber00007113620160511002021573955407792175008532000330SNN00
5469681KALA                                        comp.rec.x 28           00000000ENLaboratorios Ber00001890320160511002001573823607792175008273002810NNN00
6238261KALA FOLIC                                  comp.rec.x 28           00000000NNLaboratorios Ber00001994120160511002001574905907792175009386002810NNN00
5601421KALA MD                                     comp.rec.x 28           00000000ENLaboratorios Ber00002114320160511002001573999207792175008570002810NNN00
5618971KALA MD 24                                  comp.rec.x 28           00000000ENLaboratorios Ber00002504720160511002001574247207792175008815002810NNN00
6238391KALA MD 24 FOLIC                            comp.rec.x 28           00000000NNLaboratorios Ber00002300920160511002001574906007792175009393002810NNN00
4359682LIPOCAMBI                                   10 mg comp.x 30         00018800NNLaboratorios Ber00003338920160511002061571928007792175001656003010SNN00
4359762LIPOCAMBI                                   20 mg comp.x 30         00029300NNLaboratorios Ber00005656520160511002061572296707792175001663003010SNN00
4359842LIPOCAMBI                                   40 mg comp.x 30         00042089NNLaboratorios Ber00005812620160511002061574616807792175009232003010SNN00
5789136LIPOCAMBI PLUS                              10/10 mg comp.x 30      00000000NNLaboratorios Ber00002978120160511002021574465207792175009065003010SNN00
5789266LIPOCAMBI PLUS                              20/10 mg comp.x 30      00000000NNLaboratorios Ber00003463020160511002021574465307792175009072003010SNN00
4314871LISAC                                       10 mg comp.rec.x 30     00015000NNLaboratorios Ber00002514020160511002061572085007792175001205003010SNN00
5385133LISAC                                       20 mg comp.rec.x 30     00016800NNLaboratorios Ber00001770820160511002061573703307792175008020003010SNN00
2312671MIOPROPAN                                   comp.x 20               00004377NNLaboratorios Ber00000752320160511002021570127107792175000192002010SNN00
2312672MIOPROPAN                                   comp.x 40               00007742NNLaboratorios Ber00001260920160511002021570516007792175000642004030SNN00
3745622MIOPROPAN 200                               comp.x 20               00006567NNLaboratorios Ber00001049720160511002021573367507792175007559002010SNN00
3745624MIOPROPAN 200                               comp.x 60               00019800NNLaboratorios Ber00003371020160511002021573585407792175007566006040SNN00
4859892MIOPROPAN LP                                comp.x 20               00009781NNLaboratorios Ber00001527020160511002021573436807792175007597002010SNN00
4859893MIOPROPAN LP                                comp.x 30               00011300NNLaboratorios Ber00001625520160511002021572828107792175005913003020SNN00
4859895MIOPROPAN LP                                comp.x 60               00011300NNLaboratorios Ber00002942520160511002021573585507792175007610006050SNN00
4737022MIOPROPAN PROCTOLOGICO                      cr.x 20 g               00000000NNLaboratorios Ber00001105620160511002021572658707792175005173000110SNN00
5830974MIOPROPAN S                                 comp.x 30               00000000NNLaboratorios Ber00002011720160511002021574334107792175008839003010SNN00
2961962MIOPROPAN T                                 100/1.5 mg comp.x 20    00000000NNLaboratorios Ber00000866620160511403021570127407792175001045002010SNN00
2961963MIOPROPAN T                                 100/1.5 mg comp.x 50    00000000NNLaboratorios Ber00001870920160511403021570127507792175001052005030SNN00
4071231MISULTINA                                   500 mg comp.rec.x 3     00004959NNLaboratorios Ber00001076520160511003081571736507792175001847000310SNN00
4071233MISULTINA                                   500 mg comp.rec.x 5     00005526NNLaboratorios Ber00001231920160511003081573673507792175007894000520SNN00
4071232MISULTINA                                   500 mg comp.rec.x 6     00008699NNLaboratorios Ber00001504820160511003081571873307792175001786000630SNN00
4042861MISULTINA                                   susp.x 15 ml            00004742NNLaboratorios Ber00000783920160511003081571736707792175001854000110SNN00
4042862MISULTINA                                   susp.x 30 ml            00008064NNLaboratorios Ber00001549720160511003081571873407792175001793000130SNN00
5650844OVUFEM                                      comp.rec.x 20           00005740NNLaboratorios Ber00001108920160511002021574058307792175008662002030SNN00
5650841OVUFEM                                      comp.rec.x 8            00002997NNLaboratorios Ber00000507120160511002021574058207792175008655000810SNN00
5623422OVUFEM                                      ov.x 12                 00000000NNLaboratorios Ber00001776420160511002021574058107792175008648001230SNN00
5623421OVUFEM                                      ov.x 6                  00000000NNLaboratorios Ber00001025920160511002021574058007792175008631000610SNN00
0129304PAPASINE                                    comp.x 16               00000000NNLaboratorios Ber00001434920160511003021570128307792175000512001630SNN00
0129303PAPASINE                                    comp.x 8                00000000NNLaboratorios Ber00000850220160511003021570128207792175000260000810SNN00
9918080PLAC OUT                                    colut.x 200 ml          00000000NNLaboratorios Ber00001141720160511001001571808007792175001090000110NNN00
9921196PLAC OUT                                    colut.x 500 ml          00000000NNLaboratorios Ber00002680420160511001001572119607792175001151000130NNN00
9931206PLAC OUT                                    gel x 60 g              00000000NNLaboratorios Ber00001162020160511001001573120607792175007054000110NNN00
9947209PLAC OUT                                    spray x 60 ml           00000000NNLaboratorios Ber00001506920160511001001574720907792175009324000110NNN00
2408122PROCETOKEN                                  100 mg comp.x 60        00005595NNLaboratorios Ber00000914820160511002081570128907792175000345006010SNN00
5553683PROCETOKEN                                  200 mg c ps.x 30        00023500NNLaboratorios Ber00002841520160511002081574435307792175008945003010SNN00
3081571PROCETOKEN                                  300 mg comp.x 30        00021999NNLaboratorios Ber00003631120160511002081570821307792175000369003010SNN00
3918052QURA                                        comp.rec.x 20           00000000NNLaboratorios Ber00000681520160511002021571548407792175001984002010SNN00
3918131QURA                                        jbe.x 100 ml            00000000NNLaboratorios Ber00000802020160511002021574618307792175009249000110SNN00
5308681QURA NASAL                                  spray nasal x 10 ml     00000000NNLaboratorios Ber00000511720160511002021573576907792175007757000110SNN00
5175262QURA PLUS                                   comp.rec.x 20           00000000NNLaboratorios Ber00000849420160511002021573357507792175007474002010SNN00
5612131QURA TOS                                    jbe.x 100 ml            00005300NNLaboratorios Ber00000765620160511002021574153007792175008518000110SNN00
9939557SENSIDENT                                   pasta dent.x 90 g       00000000NNLaboratorios Ber00000798020160511001101573955707792175008471000110NNN00
9939555SENSIDENT COLUTORIO                         fco.x 250 ml            00000000NNLaboratorios Ber00001140520160511001101573955507792175008488000110NNN00
9939556SENSIDENT COLUTORIO                         fco.x 500 ml            00000000NNLaboratorios Ber00001445920160511001101573955607792175008495000130NNN00
3519402SINALGICO                                   10 mg comp.x 20         00007649NNLaboratorios Ber00001282020160511002021571196107792175001809002010SNN00
3519581SINALGICO                                   20 mg comp.x 10         00006977NNLaboratorios Ber00001249120160511002021571170907792175000789001010SNN00
3519582SINALGICO                                   20 mg comp.x 20         00010728NNLaboratorios Ber00001962720160511002021571196207792175001816002030SNN00
3519741SINALGICO                                   30 mg a.x 3 x 1 ml      00000000NSLaboratorios Ber00000540820160511002021571171007792175000796000310SNN00
4680262SINALGICO                                   60 mg a.x 3 x 2 ml      00000000NSLaboratorios Ber00001248720160511002021571912607792175001625000330SNN00
4665332SINALGICO SL                                10 mg comp.subl.x 10    00006542NNLaboratorios Ber00001165420160511002021572536707792175005128001010SNN00
4665333SINALGICO SL                                10 mg comp.subl.x 20    00013550NNLaboratorios Ber00002057520160511002021572536907792175005135002020SNN00
2690281SOLOCALM                                    20 mg comp.x 20         00000000NNLaboratorios Ber00000739020160511002021570551507792175005722002010SNN00
2690282SOLOCALM                                    20 mg comp.x 40         00000000NNLaboratorios Ber00000997720160511002021570551607792175005746004050SNN00
2799521SOLOCALM                                    iny.a.x 3               00000000NNLaboratorios Ber00000549120160511002021570551707792175005678000310SNN00
3040561SOLOCALM FLEX                               comp.x 10               00000000NNLaboratorios Ber00000570520160511A03021570574307792175005555001010SNN00
3040562SOLOCALM FLEX                               comp.x 20               00000000NNLaboratorios Ber00000789520160511A03021570825807792175005562002030SNN00
3917982SOLOCALM GEL                                1% env.x 30 g           00000000NNLaboratorios Ber00000724420160511002021571548307792175005593000110SNN00
3719302SOLOCALM PLUS                               comp.x 20               00000000NNLaboratorios Ber00001121320160511A03021571364207792175005531002010SNN00
6299391SUBICAL SOLUCION ORAL                       100.000 UI f.a.x 2 ml   00015000NNLaboratorios Ber00001893420160511002021575053207792175009430000110SNN00
6286713TABE                                        60 mg comp.x 20         00000000NNLaboratorios Ber00001750920160511002021575049607792175009447002010SNN00
4904411TERBENOL DUO                                comp.x 30               00000000NNLaboratorios Ber00002267220160511002021573313907792175007283003010SNN00
4904412TERBENOL DUO                                comp.x 60               00000000NNLaboratorios Ber00004691320160511002021574816807792175007306006030SNN00
6290133TERBENOL UD                                 sob.x 30                00000000NNLaboratorios Ber00005029620160511002021575048707792175009454003010SNN00
5656683VASEXTEN 100                                100 mg comp.rec.x 30    00027000NNLaboratorios Ber00003289220160511002061574153207792175008761003010SNN00
5656553VASEXTEN 50                                 50 mg comp.rec.x 30     00020500NNLaboratorios Ber00002616320160511002061574153107792175008754003010SNN00
5730844VASEXTEN D                                  100/25 mg comp.rec.x 30 00000000NNLaboratorios Ber00003389520160511002081574154107792175008785001510SNN00
5730714VASEXTEN D                                  50/12.5 mg comp.rec.x 3000000000NNLaboratorios Ber00003164120160511002081574154007792175008778003010SNN00
4433332VORST                                       100 mg comp.x 2         00000000NNLaboratorios Ber00000501720160511A03021572217107792175005449000210NNN00
4433333VORST                                       100 mg comp.x 4         00000000NNLaboratorios Ber00000966420160511A03021572217207792175005456000420NNN00
4433335VORST                                       100 mg comp.x 6         00000000NNLaboratorios Ber00001397120160511A03021573016007792175005340000650NNN00
4433172VORST                                       25 mg comp.x 2          00000000NNLaboratorios Ber00000274220160511A03021572216507792175005388000210NNN00
4433175VORST                                       25 mg comp.x 6          00000000NNLaboratorios Ber00000780520160511A03021573015807792175005067000650NNN00
4433252VORST                                       50 mg comp.x 2          00000000NNLaboratorios Ber00000343320160511A03021572216807792175005418000220NNN00
4433259VORST                                       50 mg comp.x 20         00000000NNLaboratorios Ber00003202620160511A03021573345007792175007511002040NNN00
4433253VORST                                       50 mg comp.x 4          00000000NNLaboratorios Ber00000674120160511A03021572216907792175005425000450NNN00
4433255VORST                                       50 mg comp.x 6          00000000NNLaboratorios Ber00000974820160511A03021573015907792175005210000640NNN00
5067652VORST-M                                     50 mg comp.ran.mast.x 2 00000000NNLaboratorios Ber00000364020160511A03021573505707792175007078000220NNN00
5067659VORST-M                                     50 mg comp.ran.mast.x 2000000000NNLaboratorios Ber00003509820160511A03021573505907792175007733002040NNN00
5067655VORST-M                                     50 mg comp.ran.mast.x 6 00000000NNLaboratorios Ber00001015920160511A03021573505807792175007092000650NNN00
5780551ZINNIA                                      comp.rec.x 21           00000000NNLaboratorios Ber00001354520160511002001574348207792175008938002110NNN00
6228711ABRAXANE                                    100 mg iny.liof.f.a.x 1 00000000NNRaffo           00304608520160512003001924942107798084683464000110NNN00
3297651AEROTINA                                    10 mg comp.x 10         00002124NNRaffo           00000419420160512001001921458907798084680128001010NNN00
9948089AEROTINA RAPIDA ACCION                      10 mg c ps.bl.x 7       00000000NNRaffo           00000439320160512001001924808907798084683228000710NNN00
5321711ALPERTAN                                    160 mg comp.rec.x 14    00011032NNRaffo           00001591420160512002081923590507798084684164001410SNN00
6282421ALPERTAN                                    320 mg comp.rec.x 14    00012790NNRaffo           00002064020160512002081925024507798084683648001410SNN00
5321681ALPERTAN                                    80 mg comp.rec.x 14     00009087NNRaffo           00001332120160512002081923590307798084684140001410SNN00
5321682ALPERTAN                                    80 mg comp.rec.x 28     00019000NNRaffo           00002854920160512002081923590407798084684157002830SNN00
5785552ALPERTAN D                                  160/12.5 mg comp.rec.x2800000000NNRaffo           00003095020160512002021924328807798084685222002810SNN00
5785422ALPERTAN D                                  80/12.5 mg comp.rec.x 2800000000NNRaffo           00002708520160512002021924328707798084685215002810SNN00
6199131AMUPRUX                                     250 mg f.a.x 1          00000000NNRaffo           00145923220160512002001924905407798084683303000110NNN00
6000712ASOTREX                                     caps.x 30               00000000NNRaffo           00003186120160512002021924677507798084681996003010SNN00
6000715ASOTREX                                     caps.x 60               00000000NNRaffo           00004872420160512002021924677607798084682931006020SNN00
3607512ATENIX                                      100 mg comp.ran.x 30    00024500NNRaffo           00004790720160512403021924163607798084685000003030SNN00
4695111ATENIX                                      25 mg comp.ran.x 30     00005852NNRaffo           00001080820160512403021922687507798084680067003010SNN00
3607432ATENIX                                      50 mg comp.ran.x 30     00017300NNRaffo           00002965420160512403021921991607798084680081003020SNN00
3607434ATENIX                                      50 mg comp.ran.x 60     00029000NNRaffo           00004773520160512403021922068107798084680098006050SNN00
3343681AZATIOPRINA RAFFO                           50 mg comp.x 100        00049467ANRaffo           00003620420160512003021921165707792219000164010010NNN00
4318591BECLASMA HFA                                aer.inhal.x 250 dosis   00000000NNRaffo           00000946720151102002061924703707798084683556025010SNN00
5207191CABERTRIX                                   0.5 mg comp.x 2         00008227NNRaffo           00001359120160512002061924333107798084685154000210SNN00
5207193CABERTRIX                                   0.5 mg comp.x 8         00026654NNRaffo           00004426120160512002061924333207798084685161000830SNN00
5683841CAPEFAS                                     500 mg comp.rec.x 120   00000000NNRaffo           00083396220160512002001924068507798084684997012010NNN00
3462722CETRON                                      8 mg comp.x 10          00000000NNRaffo           00006860220160512002021921165907798084680180001010NNN00
6040551CLOFAZIC                                    20 mg f.a.x 1 x 20 ml   00000000NNRaffo           00357698520160512002001924705707798084682832000110NNN00
6040552CLOFAZIC                                    20 mg f.a.x 4 x 20ml c/u00000000NNRaffo           01359254220160512002001924705807798084682849000430NNN00
5628711COLMIBE                                     10/10 mg comp.x 30      00000000NNRaffo           00004022820160512002021924001407798084684713003010SNN00
5628841COLMIBE                                     20/10 mg comp.x 30      00000000NNRaffo           00005627220160512002021924001507798084684720003010SNN00
6271132COLMIBE                                     40/10 mg comp.x 30      00000000NNRaffo           00007003520160512002021925019307798084683617003010SNN00
4925882COMENTER                                    30 mg comp.x 30         00000000NNRaffo           00003630520160512403021922902807798084681071003030SNN00
3359601CORTOS                                      elixir x 125 ml         00000000NNRaffo           00000318420151102001001921166407798084680869000110NNN00
6358131DATIZIC                                     comp.rec.lib.prol.x 28  00000000NNRaffo           00063004520160512002001925196407798084684874002810NNN00
6358132DATIZIC                                     comp.rec.lib.prol.x 56  00000000NNRaffo           00126009020160512002001925196507798084684881005630NNN00
4544131DECAPEPTYL RETARD                           11.25mg IM Trimest.kitx100472584SNRaffo           00099017420160512012001922702707798084683440000111NNN00
3766831DECAPEPTYL RETARD                           3.75mg IM Mensual kit x100159603SNRaffo           00036673020160512012001920278907798084683433000111SNN00
3371562DELAK                                       comp.x 20               00007807NNRaffo           00000996120160512002021921166507798084681484002010SNN00
3371563DELAK                                       comp.x 30               00010000NNRaffo           00001392520160512002021922309407798084680012003020SNN00
3371565DELAK                                       comp.x 60               00017645NNRaffo           00002676120160512002021922309507798084680029006050SNN00
5783001DOLO ASOTREX                                1500/15 sob.x 15        00000000NNRaffo           00003619120160512002021924263207798084685192001510SNN00
5783002DOLO ASOTREX                                1500/15 sob.x 30        00000000NNRaffo           00006391120160512002021924263307798084685208003030SNN00
6052261DOLO ASOTREX                                caps.x 30               00000000NNRaffo           00004102920160512002021924736107798084683143003010SNN00
6052262DOLO ASOTREX                                caps.x 60               00000000NNRaffo           00005939920160512002021924736207798084683150006030SNN00
5087341DOXOPEG                                     20 mg iny.vial x 1      00000000NNRaffo           00073571920160512003001923319307798084684072000110NNN00
4550811DOYLE                                       500 mg comp.x 3         00004959NNRaffo           00000639720160512003081922704007798084680982000310SNN00
4550812DOYLE                                       500 mg comp.x 5         00005526NNRaffo           00000756820160512003081923321707798084680999000530SNN00
5370131DOZIC                                       0.5 mg comp.ran.x 20    00000000NNRaffo           00000738720160512A03021923661307798084684287002010SNN00
4442661DOZIC                                       1 mg comp.ran.x 20      00000000NNRaffo           00001219920160512A03021923096507798084681323002010SNN00
4442662DOZIC                                       1 mg comp.ran.x 60      00000000NNRaffo           00002837920160512A03021923277707798084682092006030SNN00
4442741DOZIC                                       2 mg comp.ran.x 20      00000000NNRaffo           00002420220160512A03021923096607798084681330002010SNN00
4442742DOZIC                                       2 mg comp.ran.x 60      00000000NNRaffo           00006905620160512A03021923277807798084682108006030SNN00
4442821DOZIC                                       3 mg comp.ran.x 20      00000000NNRaffo           00003163320160512A03021923096707798084681347002010SNN00
4442822DOZIC                                       3 mg comp.ran.x 60      00000000NNRaffo           00009516420160512A03021923277907798084682115006030SNN00
5382133DRALITEM                                    100 mg caps.x 21        00000000NNRaffo           00235358820160512003001924590507798084682917002130NNN00
5382131DRALITEM                                    100 mg caps.x 5         00000000NNRaffo           00058113320160512003001923629307798084684300000510NNN00
5818973DRALITEM                                    140 mg caps.x 21        00000000NNRaffo           00325206120160512003001924590607798084682924002130NNN00
5818971DRALITEM                                    140 mg caps.x 5         00000000NNRaffo           00080297820160512003001924347507798084682757000510NNN00
5819001DRALITEM                                    180 mg caps.x 5         00000000NNRaffo           00102632720160512003001924347607798084682764000510NNN00
5382003DRALITEM                                    20 mg caps.x 21         00000000NNRaffo           00048030720160512003001924590207798084682900002130NNN00
5382001DRALITEM                                    20 mg caps.x 5          00000000NNRaffo           00011859420160512003001923629207798084684294000510NNN00
5382261DRALITEM                                    250 mg caps.x 5         00000000NNRaffo           00142433420160512003001923629407798084684317000510NNN00
0759041DUVADILAN                                   10 mg comp.x 20         00004036NNRaffo           00001757720160512002021920826807798084683594002010SNN00
1719421DUVADILAN                                   20 mg comp.x 20         00008693NNRaffo           00002769920160512002021920826907798084683600002010SNN00
6097841ELIGARD 45 MG                               kit x 1                 00000000NNRaffo           00314754620160512002001924843507798084683358000111NNN00
5102161ELIGARD 7.5 MG                              kit x 1                 00319578SNRaffo           00066778620160429002001923223907798084682085000111NNN00
3608002ENALAFEL                                    10 mg comp.x 50         00009339NNRaffo           00000500720151102002061922704607798084684454005030SNN00
9948577ESCADRA                                     jga.prell.x 28          00000000NNRaffo           00765326620160512003001924857707798084683273002810NNN00
6354712ESGRINIL                                    267 mg c ps.x 270       00000000NNRaffo           01089438120160512003001925207707792219001055020010NNN00
3607854ETEC 1000                                   caps.blandas x 30       00000000NNRaffo           00001869920160512002021921317907798084680234003010SNN00
3607855ETEC 1000                                   caps.blandas x 60       00000000NNRaffo           00003205720160512002021921538507798084680241006030SNN00
4197641FLEXIDOL                                    15 mg comp.ran.x 10     00004198NNRaffo           00001270620160512002021921851707798084680258001010SNN00
4197643FLEXIDOL                                    15 mg comp.ran.x 20     00008400NNRaffo           00002483720160512002021922035407798084680265002020SNN00
4197642FLEXIDOL                                    15 mg comp.ran.x 30     00014762NNRaffo           00003661720160512002021921851807798084680272003050SNN00
5492711FLEXIDOL RELAX                              comp.ran.x 10           00000000NNRaffo           00001306020160512002021923808507798084684546001010SNN00
5492712FLEXIDOL RELAX                              comp.ran.x 20           00000000NNRaffo           00002561720160512002021923808607798084684553002030SNN00
3851632FLUMARC                                     10 mg comp.x 20         00006843NNRaffo           00001040820160512002021921637107798084680302002010SNN00
3851552FLUMARC                                     2 mg comp.x 20          00004295NNRaffo           00000550220160512002021921636907798084680289002010SNN00
3851972FLUMARC                                     5 mg comp.x 20          00005834NNRaffo           00000638320160512002021921637007798084680296002010SNN00
4452561FLUTI-K                                     50 mcg spray nasalx120ds00010500NNRaffo           00001589520160512002061923390307798084682481012010SNN00
3366871GARDOTON                                    comp.x 30               00003392NNRaffo           00000324320160512002041921167107798084680036003010SNN00
3366872GARDOTON                                    comp.x 60               00006514NNRaffo           00000643120160512002041921167207798084680043006030SNN00
5513421IDENA                                       150 mg comp.rec.x 1     00014044SNRaffo           00003792620160512002021923825207798084684539000110SNN00
5513422IDENA                                       150 mg comp.rec.x 2     00028087SNRaffo           00005990620160512002021924000407798084684751000230SNN00
5333421ISOCUTAN                                    10 mg c ps.x 30         00028582SNRaffo           00005372620160512A03021924876407798084683662003010SNN00
5333551ISOCUTAN                                    20 mg c ps.x 30         00052300SNRaffo           00010113720160512A03021924876507798084683679003010SNN00
5672681ISOCUTAN                                    40 mg c ps.x 30         00095273SNRaffo           00017699020160512A03021924876607798084683686003010SNN00
5664001KIR 28                                      comp.rec.x 28           00000000ENRaffo           00002452420160512002001924378907798084684942002810NNN00
5446261KIRUM                                       comp.rec.x 28           00000000ENRaffo           00001925320160512002001923735307798084684409002810NNN00
5678131KIRUMELLE                                   comp.rec.x 21           00000000ENRaffo           00002002620160512002001923880207798084684935002110NNN00
5994423LACOTEM                                     100 mg comp.rec.x 30    00000000NNRaffo           00010263720160512003021924644707798084682986003010SNN00
5994553LACOTEM                                     150 mg comp.rec.x 30    00000000NNRaffo           00013876520160512003021924737607798084682993003010SNN00
5994683LACOTEM                                     200 mg comp.rec.x 30    00000000NNRaffo           00018501920160512003021924737707798084683006003010SNN00
5994393LACOTEM                                     50 mg comp.rec.x 30     00000000NNRaffo           00004837720160512003021924644607798084682979003010SNN00
0636439LEBRINA                                     0.5 mg caps.duras x 28  00000000NNRaffo           00733410720160512002001925212907792219001062002810NNN00
4495972LIPIFEN                                     10 mg comp.x 30         00018800NNRaffo           00003317020160512002061922236907798084681279003010SNN00
4495892LIPIFEN                                     20 mg comp.x 30         00029300NNRaffo           00005497320160512002061922237007798084681293003010SNN00
6283682LIPIFEN                                     40 mg comp.x 30         00042089NNRaffo           00006424720160512002061925026707798084683693003010SNN00
5940392LITEDA                                      100 mg comp.rec.x 30    00000000NNRaffo           00499598020160512003001924675607798084682894003010NNN00
5940001LITEDA                                      20 mg comp.rec.x 60     00000000NNRaffo           00224811020160512003001924675307798084682863006010NNN00
5940131LITEDA                                      50 mg comp.rec.x 60     00000000NNRaffo           00499598020160512003001924675407798084682870006010NNN00
5940261LITEDA                                      70 mg comp.rec.x 60     00000000NNRaffo           00485903920160512003001924675507798084682887006010NNN00
6040711MIMPARA                                     30 mg comp.rec.x 30     00000000NNRaffo           00070198920160512002001924737807798084683068003010NNN00
6040841MIMPARA                                     60 mg comp.rec.x 30     00000000NNRaffo           00140339920160512002001924737907798084683075006010NNN00
6336131MITRUL                                      15 mg caps.x 10         00000000NNRaffo           00002742320160512002021925168907798084684836001010SNN00
3422382MST CONTINUS                                10 mg comp.x 20         00017631SNRaffo           00002596520151102603021921259007798084683471002010NNN00
3422622MST CONTINUS                                100 mg comp.x 20        00079369SNRaffo           00011688520151102603021921259307798084683501002010NNN00
3422462MST CONTINUS                                30 mg comp.x 20         00029420SNRaffo           00004332620151102603021921259107798084683488002010NNN00
3422542MST CONTINUS                                60 mg comp.x 20         00051498SNRaffo           00007584020151102603021921259207798084683495002010NNN00
3128353MUTUM                                       100 mg comp.x 15        00050212NNRaffo           00008936920160512002021921066507798084680784001510SNN00
3512711MUTUM                                       150 mg comp.x 1         00004800NNRaffo           00000867720160512002021921636407798084680807000110SNN00
3512712MUTUM                                       150 mg comp.x 2         00007600NNRaffo           00001697720160512002021921636507798084680814000220SNN00
3512713MUTUM                                       150 mg comp.x 4         00013727NNRaffo           00002993920160512002021922352607798084680821000450SNN00
3512714MUTUM                                       150 mg comp.x 8         00025500NNRaffo           00005208620160512002021924379907798084681286000840SNN00
3512893MUTUM                                       200 mg comp.x 10        00057134NNRaffo           00010024020160512002021921174607798084680838001010SNN00
