9952440SALICREM ARNICA Y ANDIROBA                  b lsamo x 60 ml         00000000NNE.J.Gezzi       00001099020160509007000805244007792369004357000110NNN00
9952438SALICREM ARNICA Y ANDIROBA                  crema x 40 g            00000000NNE.J.Gezzi       00000799020160509007000805243807792369000588000110NNN00
9952439SALICREM ARNICA Y ANDIROBA                  gel x 40 g              00000000NNE.J.Gezzi       00000799020160509007000805243907792369000601000110NNN00
0279960IMOVAX POLIO                                jga.prell.x 0.5 ml      00005931NNSanofi Pasteur  00001292920160509012001530542207798015780224000111SNN00
4296482ACRYLARM                                    gel oft.x 10 g          00000000NNPoen            00001421120160509002021842247407795368001501000110SNN00
5687391ACRYLARM PLUS                               gel oft.x 10 g          00000000NNPoen            00001126120160509002021844247007795368055344000110SNN00
5384421ALKET                                       sol.oft.x 5 ml          00000000NNPoen            00001320120160509002021843669807795368054729000110SNN00
5734711ALOSOL                                      gts.oft.x 10 ml         00000000NNPoen            00000805520160509002001844165707795368055290000110SNN00
3249211ANTIBIOPTAL                                 colirio x 5 ml          00000000NNPoen            00000739220160509002001841154007795368000665000110SNN00
0821992ANTIFLOGOL                                  colirio x 5 ml          00000000NNPoen            00000607920160509002001841004907795368000344000111SNN00
0820903ANTIFLOGOL                                  gel oft.x 5 g           00000000NNPoen            00000612520160509002001841492907795368000993000111SNN00
5887971AUCIC 1.5%                                  gel.oft.x 5 g           00000000NNPoen            00001407020160509002021844494207795368547245000110SNN00
6338841AUCIC PLUS                                  sol.oft.x 10 ml         00000000NNPoen            00001824020160509002021845162807795368001624000110SNN00
4646101BRIMOPRESS                                  0.2% sol.oft.x 5 ml     00011747NNPoen            00002395120160509002081842486807795368001556000110SNN00
9946784BRIMOPRESS T                                sol.oft.x 5 ml          00013372NNPoen            00002471020160509002021844678407795368000283000110SNN00
4669971BRIXIA                                      colirio x 6 ml          00000000NNPoen            00001131920160509002021842508507795368001532000110SNN00
0824883CICLOPENTOLATO POEN                         1% colirio x 5 ml       00006105NNPoen            00000938220160509002001840660007795368000467000110SNN00
2944392CLAROFTAL                                   colirio x 10 ml         00006818NNPoen            00001143320160509002081840660107795368000481000110SNN00
6143131CLOSPORIL 0.1%                              gts.oft.x 5 ml          00024137SNPoen            00004318720160509002081844776807795368000528000110SNN00
5343421DIARIS                                      caps.x 30               00000000NNPoen            00001973020160509002021843646407795368054477003010SNN00
4466501DROPSTAR                                    colirio x 10 ml         00000000NNPoen            00001344120160509002021843116007795368002225000110SNN00
4062161DROPSTAR P                                  colirio x 10 ml         00000000NNPoen            00001665420160509002021844555907795368547269000110SNN00
4118272ERITROFARM                                  ung.oft.unidosis x 20   00010500NNPoen            00001936520160509002021843184407791763000477002010SNN00
3848004FLUORESCEINA POEN                           10% a.x 1               00007269NNPoen            00002131620160509002001845164007795368001549000110NNN00
3848003FLUORESCEINA POEN                           10% a.x 6               00000000NNPoen            00009302220160509002001845132607795368001495000610NNN00
0823132FLUOROPOEN                                  colirio x 5 ml          00000000NNPoen            00000836620160509002001841010907795368000085000111SNN00
3160931FOTORRETIN                                  colirio x 5 ml          00000000NNPoen            00000864520160509002001841061007795368000979000110SNN00
5993711GATIDEX                                     sol.oftalmica x 5 ml    00000000NNPoen            00002672520160509002021844634207795368000276000110SNN00
6181131GATIF FORTE                                 sol.oft.x 5 ml          00000000NNPoen            00002745120160509002061844873807795368001068000110SNN00
5098442GLAUCOPROST                                 sol.oft.x 3 ml          00008598NNPoen            00001338820160509002081843225207795368002270000110SNN00
3771441GLAUCOTENSIL                                colirio x 5 ml          00000000NNPoen            00001388020160509002061841435207795368001013000110SNN00
4666661GLAUCOTENSIL TD                             colirio x 5 ml          00016612NNPoen            00003165120160509002081842508607795368001594000110SNN00
9950969GOTA PC DESCONGESTIVO                       ba¤o ocular x 80 ml     00000000NNPoen            00001291420160509001001845096907795368001419000110NNN00
2775841GOTABIOTIC                                  colirio x 5 ml          00004240NNPoen            00001005720160509002081840660607795368001204000110SNN00
2775921GOTABIOTIC                                  gel oft.x 5 g           00005294NNPoen            00000887820160509002081841957707795368001259000110SNN00
9938713GOTABIOTIC                                  pack sol.oft.x 6 x 5 ml 00015815NNPoen            00002651920160509002081843871307795368054972000610NNN00
3085031GOTABIOTIC D                                colirio x 5 ml          00006300NNPoen            00001049820160509002021840969407795368000788000110SNN00
4059951GOTABIOTIC F                                colirio x 5 ml          00006300NNPoen            00001204120160509002021841749207795368001136000110SNN00
5056971GOTABIOTIC F                                ung.oft.x 3.5 g         00006500NNPoen            00001172020160509002021843198907795368002232000110SNN00
9938320LAGRIMA ARTIFICIAL                          colirio x 10 ml         00000000NNPoen            00000775620160509001001843832007795368054712000110NNN00
2795061LARSIMAL                                    colirio x 5 ml          00000000NNPoen            00000591220160509002021840661307795368000269000110SNN00
5481551LOTEMICIN                                   susp.oft.x 5 ml         00000000NNPoen            00001180820160509002021843837207795368054866000110SNN00
4739001LOTESOFT                                    susp.oft.x 5 ml         00000000NNPoen            00001586420160509002021842705707795368001600000110SNN00
4554031LOUTEN                                      colirio x 2.5 ml        00013800NNPoen            00002534720160509002081842360207795368001525000111SNN00
5044851LOUTEN T                                    colirio x 2.5 ml        00000000NNPoen            00002544520160509002021843116107795368002201000111SNN00
6095421LUSIC                                       sol.oft lm.x 10 ml      00000000NNPoen            00001844520160509002001844812607795368000511000110SNN00
5572261NATAX                                       fco.gotero x 5 ml       00000000NNPoen            00001905220160509002021844008507795368055092000110SNN00
5569391NEAGEL                                      gel oft.x 5 g           00000000NNPoen            00001518320160509002001844072307795368055085000110NNN00
3565521OFLOXACINA                                  colirio x 5 ml          00000000NNPoen            00001098420160509002081843048007795368002171000110SNN00
4420122PHYLARM                                     gts.oft.x 10 ml         00000000NNPoen            00000617420160509002021842210307795368001471000110SNN00
4704191POEN CAINA                                  colirio x 10 ml         00000000NNPoen            00000818820160509002001842745307795368001570000111SNN00
0823972POENBIOPTAL                                 colirio x 5 ml          00000000NNPoen            00000857020160509002001843578507795368054385000111SNN00
9937049POENBIOPTAL                                 pack fco.x 6 x 5 ml     00000000NNPoen            00002188620160509002001843704907795368054804000611NNN00
4670021POENBIOPTAL NF                              colirio x 5 ml          00000000NNPoen            00000656520160509002001842904207795368001655000110SNN00
0823052POENEFRINA                                  10% colirio x 5 ml      00003061NNPoen            00000454820160509002021840936507795368000740000110SNN00
2775682POENFENICOL                                 colirio x 10 ml         00003491NNPoen            00000558620160509002001840663407795368000023000111SNN00
3847934POENGLAUCOL                                 2% gts.oft.x 5 ml       00000000NNPoen            00001121820160509002081841994207795368001303000110SNN00
3771361POENKERAT                                   0.5% colirio x 5 ml     00007971NNPoen            00001160120160509002021841409907795368001051000110SNN00
2857351POENTIMOL                                   0.25% colirio x 5 ml    00003176NNPoen            00000397520160509002061840659907795368000672000110SNN00
2857435POENTIMOL                                   0.50% colirio x 5 ml    00005059NNPoen            00000991020160509002061840660207795368000160000110SNN00
2513562PROVISUAL                                   colirio x 10 ml         00004145NNPoen            00000657420160509002001840664207795368000450000110SNN00
2775501PROVISUAL COMPUESTO                         colirio x 5 ml          00000000NNPoen            00000637420160509002001840664407795368000047000110SNN00
5356681QUIDEX                                      ung.oft.x 3.5 g         00008167NNPoen            00001394220160509002081843871207795368054569000110SNN00
3649511SEDESTEROL                                  gts.oft.x 5 ml          00006667NNPoen            00000881420160509002021841305307795368000603000110SNN00
4739181TALOF                                       susp.oft.x 5 ml         00000000NNPoen            00001467920160509002021844336707795368000313000110SNN00
6268391TOLF                                        emuls.oft.x 5 ml        00000000NNPoen            00003493820160509002001845002207795368001273000110SNN00
6179131TRALER                                      sol.oft.x 5 ml          00000000NNPoen            00002029420160509002001844919107795368001075000110SNN00
5742971VISAG                                       sol.oft.x 2.5 ml        00000000NNPoen            00001254120160509002001844206007795368055306000111SNN00
4539602ALPRAZOLAM MICROSULES                       0.50 mg comp.x 30       00002300NNMicrosules Arg. 00000507520160509403022352328607791829004715003010SNN00
4539603ALPRAZOLAM MICROSULES                       0.50 mg comp.x 60       00004000NNMicrosules Arg. 00000924020160509403022352328707791829004722006030SNN00
4539782ALPRAZOLAM MICROSULES                       1 mg comp.x 30          00003300NNMicrosules Arg. 00000806020160509403022352328807791829004739003010SNN00
4539783ALPRAZOLAM MICROSULES                       1 mg comp.x 60          00006500NNMicrosules Arg. 00001485020160509403022352329007791829004746006030SNN00
4539862ALPRAZOLAM MICROSULES                       2 mg comp.x 30          00005500NNMicrosules Arg. 00001200020160509403022352329207791829004753003010SNN00
5296113ANEXA                                       10 mg comp.x 30         00013000NNMicrosules Arg. 00002450020160509002082353514007791829009680003010SNN00
5296063ANEXA                                       5 mg comp.x 30          00008300NNMicrosules Arg. 00001380020160509002082353513907791829009666003010SNN00
3501741ANGOTEN-ANGUTEN                             200 mg comp.x 20        00003800NNMicrosules Arg. 00000780020160509002002351717507791829000120002010SNN00
3501743ANGOTEN-ANGUTEN                             200 mg comp.x 50        00009500NNMicrosules Arg. 00001900020160509002002351717607791829000137005030SNN00
3793563ATENOLOL MICROSULES                         50 mg comp.x 28         00003800NNMicrosules Arg. 00000625020160509002062353212107791829008812002810SNN00
3793564ATENOLOL MICROSULES                         50 mg comp.x 56         00008000NNMicrosules Arg. 00001257020160509002062353212207791829008829005630SNN00
3805351COPIRON                                     400 mg comp.rec.x 10    00001289NNMicrosules Arg. 00000250020160509001002351718707791829000243001010SNN00
3805352COPIRON                                     400 mg comp.rec.x 20    00002500NNMicrosules Arg. 00000500020160509001002351718807791829000250002030SNN00
4364111CUSTEY                                      2 mg comp.x 10          00003206NNMicrosules Arg. 00000630020160509002022352208707791829008300001010SNN00
4264622DIASTONE                                    50 mg comp.x 15         00003059NNMicrosules Arg. 00000750020160509002022352111207791829008119001510SNN00
4264702DIASTONE                                    75 mg comp.x 15         00006987NNMicrosules Arg. 00000950020160509002022352111407791829008133001510SNN00
4264704DIASTONE                                    75 mg comp.x 30         00013000NNMicrosules Arg. 00001600020160509002022352111507791829008140003030SNN00
5327261DIASTONE FLEX                               comp.rec.x 10           00000000NNMicrosules Arg. 00000857020160509002022354624507791829000632001010SNN00
4264882DIASTONE RETARD                             100 mg comp.x 15        00006500NNMicrosules Arg. 00001557820160509002022352111707791829008263001510SNN00
4559822ENROMIC                                     50 mg comp.rec.x 30     00020500NNMicrosules Arg. 00002653120160509002062352329107791829008461003010SNN00
5312393ENTARSOL 12.5                               12.5 mg comp.x 28       00007550NNMicrosules Arg. 00001161020160509002082354553307791829019092002810SNN00
5312423ENTARSOL 25                                 25 mg comp.x 28         00009300NNMicrosules Arg. 00001413020160509002082354553407791829019115002810SNN00
5312263ENTARSOL 6.25                               6.25 mg comp.x 28       00005770NNMicrosules Arg. 00000890020160509002082354553207791829019078002810SNN00
3978111FINACILEN                                   30 mg comp.rec.x 30     00006340NNMicrosules Arg. 00001020020160509002002351917007791829008164003010SNN00
3978112FINACILEN                                   30 mg comp.rec.x 60     00010488NNMicrosules Arg. 00001700020160509002002351917107791829008171006030SNN00
4365023FINASEPT                                    500 mg comp.x 16        00018974NNMicrosules Arg. 00002950020160509003002351918107791829004609001610SNN00
5201442FINLIPOL                                    10 mg comp.x 30         00018800NNMicrosules Arg. 00002992320160509002062353532807791829009239003010SNN00
5201443FINLIPOL                                    10 mg comp.x 60         00038574NNMicrosules Arg. 00005259020160509002062353532907791829009246006030SNN00
5201512FINLIPOL                                    20 mg comp.x 30         00029300NNMicrosules Arg. 00005091020160509002062353533007791829009215003010SNN00
5201513FINLIPOL                                    20 mg comp.x 60         00063182NNMicrosules Arg. 00009100020160509002062353533107791829009130006030SNN00
4363122FLUTIAMIK                                   comp.x 30               00016530NNMicrosules Arg. 00002530020160509002022351932707791829008188003010SNN00
5921971FORLADY                                     comp.rec.x 21           00000000ENMicrosules Arg. 00000590020160509002002354888507791829000755002110NNN00
5243282FORTONOL                                    4 mg comp.x 20          00005500NNMicrosules Arg. 00000846720160509002062353532707791829009642002010SNN00
5160661GASTROLINA COMPUESTA                        comp.rec.x 10           00000000NNMicrosules Arg. 00000690020160509002022353998707791829009109001010SNN00
5784711INTERSULES                                  150 mg comp.rec.x 1     00014044SNMicrosules Arg. 00002706720160509002022354833507791829000717000110SNN00
5784713INTERSULES                                  150 mg comp.rec.x 3     00042131SNMicrosules Arg. 00005750020160509002022355048607791829000946000350SNN00
3152431KEMANAT                                     10 mg comp.x 10         00004224NNMicrosules Arg. 00000830020160509002022350961607791829009413001010SNN00
3152511KEMANAT                                     20 mg comp.x 10         00006977NNMicrosules Arg. 00001160020160509002022350961707791829009437001010SNN00
3152512KEMANAT                                     20 mg comp.x 20         00010728NNMicrosules Arg. 00001833420160509002022350189907791829009444002030SNN00
5075712KEMANAT                                     Sublingual comp.x 10    00006542NNMicrosules Arg. 00000940020160509002022352539807791829009451001010SNN00
5098701LOMET                                       4 mg comp.x 15          00009813NNMicrosules Arg. 00001350020160509002042353267307791829008768001510SNN00
5098702LOMET                                       4 mg comp.x 30          00018000NNMicrosules Arg. 00002613520160509002042353267407791829008775003030SNN00
2768673MICAR                                       20 mg comp.x 20         00000000NNMicrosules Arg. 00000660020160509002002351317307791829008331002010SNN00
6120714MICRO-CAPE                                  75 mg comp.rec.x 30     00037000NNMicrosules Arg. 00004790020160509002022355004707791829000847003010SNN00
4363702MICROSULF                                   500 mg comp.x 10        00010500NNMicrosules Arg. 00001910020160509003082352111907791829008201001010SNN00
4580012MICROTEROL                                  5mg/ml sol.p/nebul.x20ml00003758NNMicrosules Arg. 00000750020160509002062351937007791829008478000110SNN00
3502992NOBACTAM                                    1 g comp.rec.x 16       00012973NNMicrosules Arg. 00002133020160509003082351719207791829000373001630SNN00
3503062NOBACTAM                                    250 mg susp.ped.x 90 ml 00003510NNMicrosules Arg. 00000856020160509002082353982107791829018422000110SNN00
3502812NOBACTAM                                    500 mg comp.rec.x 16    00003322NNMicrosules Arg. 00000690020160509003002351719007791829000359001630SNN00
3801392NOBACTAM                                    500 mg susp.ped.x 90 ml 00004161NNMicrosules Arg. 00000985020160509002082353982207791829018439000110SNN00
4541402NOBACTAM BRONQUIAL                          comp.rec.x 16           00000000NNMicrosules Arg. 00001700020160509002022351937907791829008409001610SNN00
5284413NOBACTAM CLAVULANICO 2                      comp.rec.x 14           00016300NNMicrosules Arg. 00002640020160509003082354524707791829000618001410SNN00
3503302NOTRAB                                      150 mg comp.rec.x 20    00002814NNMicrosules Arg. 00000760020160509002002351719407791829000397002010SNN00
3503303NOTRAB                                      150 mg comp.rec.x 60    00007688NNMicrosules Arg. 00001800020160509002002351719507791829000403006030SNN00
3503222NOTRAB                                      300 mg comp.rec.x 30    00009500NNMicrosules Arg. 00002100020160509002002351719607791829000410003010SNN00
5527421OBLISEC                                     20 mg caps.x 14         00005508NNMicrosules Arg. 00001380020160509002002353971907791829018545001410SNN00
5527424OBLISEC                                     20 mg caps.x 28         00013800NNMicrosules Arg. 00002600020160509002002353972007791829018552002830SNN00
5573261OVULOL UD                                   1.5 mg comp.x 1         00000000NNMicrosules Arg. 00000686020160509002002354036407791829018583000110NNN00
5652551PURPUMICINA                                 susp.oft.x 5 ml         00006300NNMicrosules Arg. 00001040020160509002002354292407791829018972000110SNN00
5649424QUAZEMIC                                    0.5 mg comp.x 30        00004300NNMicrosules Arg. 00000750020160509403022354624107791829000649003010SNN00
5649427QUAZEMIC                                    0.5 mg comp.x 60        00007500NNMicrosules Arg. 00001280020160509403022354624207791829000656006030SNN00
5649554QUAZEMIC                                    2 mg comp.x 30          00004800NNMicrosules Arg. 00000840020160509403062354624307791829000663003010SNN00
5649557QUAZEMIC                                    2 mg comp.x 60          00008000NNMicrosules Arg. 00001395020160509403062354624407791829000670006030SNN00
5353264REDUGLUC                                    500 mg comp.x 100       00014306NNMicrosules Arg. 00002150020160509002042353665907791829009901010050SNN00
5353262REDUGLUC                                    500 mg comp.x 30        00003300NNMicrosules Arg. 00000715520160509002042353665707791829009888003010SNN00
5353263REDUGLUC                                    500 mg comp.x 60        00007000NNMicrosules Arg. 00001099020160509002042353665807791829009895006020SNN00
5353394REDUGLUC A.P.                               850 mg comp.x 100       00028500NNMicrosules Arg. 00003790020160509002042353666207791829009932010050SNN00
5353392REDUGLUC A.P.                               850 mg comp.x 30        00007500NNMicrosules Arg. 00001150020160509002042353666007791829009918003010SNN00
5353393REDUGLUC A.P.                               850 mg comp.x 60        00015000NNMicrosules Arg. 00002150020160509002042353666107791829009925006020SNN00
4364531RILAQUIN                                    10 mg comp.x 20         00001554NNMicrosules Arg. 00000285020160509002002352130807791829008287002010SNN00
4364612RILAQUIN                                    Ad.gts.x 20 ml          00003000NNMicrosules Arg. 00000738320160509002002352130907791829008294000110SNN00
6205971RILAQUIN SL                                 10 mg comp.subl.x 10    00005054NNMicrosules Arg. 00000828920160509002022354861407791829000748001010SNN00
6128712SEMANAR                                     160 mg comp.rec.x 14    00011032NNMicrosules Arg. 00001450020160509002082355088307791829000908001410SNN00
6128715SEMANAR                                     160 mg comp.rec.x 28    00026200NNMicrosules Arg. 00003340020160509002082355088407791829000915002830SNN00
6128682SEMANAR                                     80 mg comp.rec.x 14     00009087NNMicrosules Arg. 00001220020160509002082355088107791829000885001410SNN00
6128685SEMANAR                                     80 mg comp.rec.x 28     00019000NNMicrosules Arg. 00002670020160509002082355088207791829000892002830SNN00
5923393SINURIT                                     1000 mg comp.rec.x 16   00000000NNMicrosules Arg. 00002320020160509003082355227907791829001042001610NNN00
5923263SINURIT                                     500 mg comp.rec.x 16    00006049NNMicrosules Arg. 00001250020160509003082355004607791829000830001610SNN00
3826141SOLACIL                                     comp.rec.x 10           00000000NNMicrosules Arg. 00000880020160509A03022353998807791829018590001010SNN00
3502313SULOCTEN                                    10 mg comp.x 30         00005500NNMicrosules Arg. 00000950020160509002062354062807791829018644003010SNN00
3502493SULOCTEN                                    20 mg comp.x 30         00006103NNMicrosules Arg. 00001130020160509002062354041207791829018668003010SNN00
3502495SULOCTEN                                    20 mg comp.x 60         00015800NNMicrosules Arg. 00002199020160509002062354041607791829018675006030SNN00
3502233SULOCTEN                                    5 mg comp.x 30          00003300NNMicrosules Arg. 00000495020160509002062354062607791829018620003010SNN00
3502235SULOCTEN                                    5 mg comp.x 60          00007500NNMicrosules Arg. 00001010020160509002062354062707791829018637006030SNN00
4429212TANAVAT                                     10 mg comp.x 30         00015000NNMicrosules Arg. 00002495020160509002062352204207791829008379003010SNN00
5136272TANAVAT                                     20 mg comp.x 30         00016800NNMicrosules Arg. 00002760020160509002062353323007791829008959003010SNN00
4555521TANEZOX                                     500 mg comp.x 3         00004959NNMicrosules Arg. 00000990020160509003082352329407791829008423000310SNN00
4555522TANEZOX                                     500 mg comp.x 6         00008699NNMicrosules Arg. 00001480020160509003082353924707791829018415000630SNN00
5128611TILIOS                                      70 mg comp.x 4          00008948SNMicrosules Arg. 00001739820160509002082353955007791829009383000410SNN00
5128612TILIOS                                      70 mg comp.x 8          00017895SNMicrosules Arg. 00002250020160509002082353361607791829009390000830SNN00
5547392TRAVELGUM                                   0.4 mg caps.x 30        00028000NNMicrosules Arg. 00003930020160509003022355160707791829001011003010SNN00
6078395TURBULINA                                   10 mg comp.rec.x 28     00021500NNMicrosules Arg. 00002646520160509002022355054007791829000854002810SNN00
6078425TURBULINA                                   20 mg comp.rec.x 28     00036928NNMicrosules Arg. 00004930020160509002022355115107791829000960002810SNN00
5108221VIRIPOTENS                                  100 mg comp.rec.x 30    00000000NNMicrosules Arg. 00006000020160509A03022354920007791829000779003010NNN00
5108172VIRIPOTENS                                  50 mg comp.rec.x 2      00000000NNMicrosules Arg. 00000460020160509A03022353303107791829008799000210NNN00
5108171VIRIPOTENS                                  50 mg comp.rec.x 30     00000000NNMicrosules Arg. 00004500020160509A03022353940507791829018460003050NNN00
5108175VIRIPOTENS                                  50 mg comp.rec.x 6      00000000NNMicrosules Arg. 00000900020160509A03022353303207791829008805000620NNN00
5436716VIRIPOTENS M                                Frut.50 mg comp.mast.x 200000000NNMicrosules Arg. 00000450020160509A03022353927207791829018507000210NNN00
5436718VIRIPOTENS M                                Frut.50 mg comp.mast.x3000000000NNMicrosules Arg. 00005000020160509A03022354620607791829000106003030NNN00
5436712VIRIPOTENS M                                Menta 50mg comp.mast.x 200000000NNMicrosules Arg. 00000450020160509A03022353927307791829018446000210NNN00
5436717VIRIPOTENS M                                Menta 50mg comp.mast.x3000000000NNMicrosules Arg. 00005000020160509A03022354620507791829000090003030NNN00
5234271GLUCO-K                                     elixir x 150 ml         00002466NNLafedar         00000459020160510002023973477707798021295996000110SNN00
5736391ARTOMEY DUO                                 10/10 mg comp.rec.x 30  00000000NNIvax Arg.       00006504520160506002005185243617795326010026003010NNN00
5736421ARTOMEY DUO                                 20/10 mg comp.rec.x 30  00000000NNIvax Arg.       00011149520160506002005185243717795326010033003010NNN00
5736261ARTOMEY DUO                                 5/10 mg comp.rec.x 30   00000000NNIvax Arg.       00006015020160506002005185243517795326010019003010NNN00
6377711NULARTRIN GLUCO                             caps.x 60               00000000NNIvax Arg.       00004499120160506002005185243217795326001949006010NNN00
6340131PRAXIS NF                                   comp.x 30               00000000NNIvax Arg.       00001647020160506002005185243317795326004407003010NNN00
6340132PRAXIS NF                                   comp.x 60               00000000NNIvax Arg.       00002894920160506002005185243417795326004414006030NNN00
9942635PRODIGY AUTOCODE                            tiras reactivas x 50    00000000CNLaboratorio Alve00006788020160509012145914263500384840518001005010NNN00
9942636PRODIGY AUTOCODE AUDIO KIT                  medid+punz+lanc+tir+sol.00000000NNLaboratorio Alve0000469812016050901210591426360             000110NNN00
6335841CERVILANE                                   comp.rec.x 100          00000000NNPharmaDorf      00003594820160509002026005167507795312002127010030SNN00
6335842CERVILANE                                   comp.rec.x 40           00000000NNPharmaDorf      00001660520160509002026005167407795312002813004010SNN00
5419421CIPROFLOXACINA DORF                         sol.oft.x 5 ml          00007005NNPharmaDorf      00001164420160509002086003705107798103380106000110SNN00
5021631DARIC                                       comp.x 30               00016530NNPharmaDorf      00002909420160509002026003106007791848272027003010SNN00
5503711DECALCIT                                    comp.x 30               00000000NNPharmaDorf      00000846320160509002086004246607791848005014003010SNN00
5131281DEXAMETASONA DORF                           sol.oft.x 10 ml         00006556NNPharmaDorf      00001079220160509002026003263607798103390038000110SNN00
6043131DIABEN P                                    30 mg comp.x 30         00000000NNPharmaDorf      00002813720160509002026004646407796285055448003010SNN00
5154341DORZOLAMIDA T DORF                          sol.oft.x 5 ml          00016612NNPharmaDorf      00002124220160509002086003832107798103390113000110SNN00
5041111EDICTUM 0.5 MG                              comp.x 30               00004300NNPharmaDorf      00000631220160509403026003106407791848277015003020SNN00
5041113EDICTUM 0.5 MG                              comp.x 50               00006944NNPharmaDorf      00000794720160509403026003683707791848277091005050SNN00
5041271EDICTUM 2 MG                                comp.x 30               00004800NNPharmaDorf      00000643820160509403066003106107791848277039003020SNN00
5041273EDICTUM 2 MG                                comp.x 50               00008300NNPharmaDorf      00000940520160509403066003683807791848277107005050SNN00
5609421ELASTERIN MAX                               comp.rec.x 1 + comp.x 3000000000NNPharmaDorf      00003823820160509002026004246707791848287007003110SNN00
5158051HIALUDORF                                   sol.oft.x 10 ml         00000000NNPharmaDorf      00001090020160509001026003279107798103390052000110NNN00
5158052HIALUDORF                                   sol.oft.x 15 ml         00000000NNPharmaDorf      00001427520160509001026005148407798103390632000130NNN00
2159801KARILE                                      10 mg comp.x 20         00000000NNPharmaDorf      00000907320160509403026000649007791848020024002010SNN00
2159981KARILE                                      20 mg comp.x 20         00000000NNPharmaDorf      00001188220160509403026000649107791848020048002010SNN00
2502671KARILE                                      40 mg comp.x 20         00000000NNPharmaDorf      00001782820160509403026000649207791848020062002010SNN00
5741391KEIM ALER                                   0.1% sol.oft.ester.x5 ml00009502NNPharmaDorf      00001637320160509002026004772707798103390502000110SNN00
5741392KEIM ALER                                   0.1% sol.oft.ester.x6 ml00010234NNPharmaDorf      00001763320160509002026005148907798103390618000110SNN00
5165021LATANOPROST DORF                            50mcg/ml sol.oft.x 2.5ml00013800NNPharmaDorf      00001905620160509002086003471607798103390076000111SNN00
5165022LATANOPROST DORF                            50mcg/ml sol.oft.x 3 ml 00013059NNPharmaDorf      00002052220160509002086005148507798103390588000131SNN00
5730391LATIMODORF                                  gts.oft.x 2.5 ml        00000000NNPharmaDorf      00001693820160509012026004178307798103390151000111SNN00
5730392LATIMODORF                                  gts.oft.x 3 ml          00000000NNPharmaDorf      00001824120160509012026005148607798103390625000111SNN00
5724262LIRTODAC                                    250 mcg aer.x 120 dosis 00026800NNPharmaDorf      00003566020160509002066004172007796285270742012030SNN00
5737262LIRTODAC PLUS                               125/25mcg aer.x 120dosis00028263NNPharmaDorf      00003755520160509002086004172207796285270759012010SNN00
5737132LIRTODAC PLUS                               250/25mcg aer.x 120dosis00031300NNPharmaDorf      00004246920160509002086004172307796285270766012010SNN00
9940213MOX 12 HS                                   220 mg comp.rec.x 10    00001134NNPharmaDorf      00000407720160509001026004021307796285053239001010NNN00
4056221MOX FORTE                                   comp.rec.x 10           00005287NNPharmaDorf      00000752120160509002026004261807796285053918001010SNN00
5111901TOBRAMICINA DORF                            sol.oft.x 5 ml          00004240NNPharmaDorf      00000599220160509002086003198607798103390014000111SNN00
9952134AGUJAS CLICKFINE                            31G x 6mm agujas x 100  00000000NNLatin Plus      00003110020160510011006885213407613117131036010010NNN00
9952135AGUJAS CLICKFINE                            31G x 8mm agujas x 100  00000000NNLatin Plus      00003110020160510011006885213507613117141042010010NNN00
9952133AGUJAS CLICKFINE                            32G x 4mm agujas x 100  00000000NNLatin Plus      00003110020160510011006885213307613117121020010010NNN00
9948212AGUJAS PENFINE 6MM 31G                      ag./lap. x 100 u.       00000000NNLatin Plus      00003110020160510001046884821207613117009076010010NNN00
9948211AGUJAS PENFINE 8 MM 31G                     ag./lap. x 100 u.       00000000NNLatin Plus      00003110020160510001046884821107613117009083010010NNN00
9950815BIONIME KIT NUEVO GM700                     medidor de glucosa x 1  00000000NNLatin Plus      00006790020160510017106885081500883489310118000110NNN00
9950219BIONIME LANCETAS                            lancetas caja x 100     00000000NNLatin Plus      00001800020160510017146885021900883489000156010010NNN00
9950816BIONIME TIRAS GS700 NUEVAS                  tiras reactivas x 50    00000000CNLatin Plus      00006790020160510017146885081600883489310125005010NNN00
5219991ANASTROZOL TECHSPERE                        1 mg comp.rec.x 28      00000000NNTechsphere      00018610220160510003007103439607798096690321002810NNN00
5343711BICALUTAMIDA TECHSPHERE                     50 mg comp.x 30         00000000NNTechsphere      00029146520160510002007104622807798138890152003010NNN00
5195001CAPECITABINA TECHSPHERE                     500 mg comp.x 120       00000000NNTechsphere      00141500820160510002007104623407798138890145012010NNN00
5195211CIPROTERONA TECHSPERE                       50 mg comp.x 50         00000000NNTechsphere      00016389020160510002007103367207798096990260005010NNN00
5470681COLISTINA TECHSPHERE                        iny.f.a.x 1+ solv.x 2ml 00000000NNTechsphere      00003305820160510003007103920407798096990666000160SNN00
9940955ENZYBAR                                     Barra x 30 x 64 g       00000000NNTechsphere      00014887920160510001107104095507798138890046003050NNN00
5720551FOSCAN                                      fco.a.x 5 ml            00000000NNTechsphere      01888476920160510002007104906107798138890121000110NNN00
3243011ISOSORBIDE 5 MONONITRATO TECHSPHERE         20 mg comp.x 20         00002122NNTechsphere      00000433120160510002007103313507798096990239002010SNN00
3243012ISOSORBIDE 5 MONONITRATO TECHSPHERE         20 mg comp.x 50         00005831NNTechsphere      00000849720160510002007103313607798096990246005030SNN00
3243191ISOSORBIDE 5 MONONITRATO TECHSPHERE         40 mg comp.x 20         00003906NNTechsphere      00000779520160510002007103313707798096990253002010SNN00
5430711LETROZOL TECHSPERE                          2.5 mg comp.rec.x 30    00000000NNTechsphere      00022008420160510003007104025607798096990673003010NNN00
5325711LOSARTAN TECHSPERE                          50 mg comp.x 30         00020500NNTechsphere      00001754420160510002067103565507798096990383003010SNN00
5288752METFORMINA TECHSPHERE                       500 mg comp.rec.x 100   00014306NNTechsphere      00001687120160510002007103685807798096990345010030SNN00
5288751METFORMINA TECHSPHERE                       500 mg comp.rec.x 30    00003300NNTechsphere      00000540520160510002007103685707798096990338003010SNN00
5288801METFORMINA TECHSPHERE                       850 mg comp.x 30        00007500NNTechsphere      00000968520160510002007103685907798096990352003010SNN00
5288802METFORMINA TECHSPHERE                       850 mg comp.x 60        00015000NNTechsphere      00001904220160510002007103686007798096990369006030SNN00
5202041PACLITAXEL TECHSPHERE                       100 mg iny.f.a.x 1      00000000NNTechsphere      00076889920160510002007104623007798138890176000111NNN00
5202111PACLITAXEL TECHSPHERE                       150 mg iny.f.a.x 1      00000000NNTechsphere      00122300320160510002007104623207798138890183000111NNN00
5201911PACLITAXEL TECHSPHERE                       30 mg iny.f.a.x 1       00000000NNTechsphere      00025093020160510002007104622907798138890169000111NNN00
5202251PACLITAXEL TECHSPHERE                       300 mg iny.f.a.x 1      00000000NNTechsphere      00247251420160510002007104623307798138890190000111NNN00
5330001PANCREOLIPASA TECHSPHERE                    12M caps.x 100          00203338SNTechsphere      00034844020160510002027103745907798096990406010010SNN00
5329681PANCREOLIPASA TECHSPHERE                    20M caps.x 100          00314558SNTechsphere      00053903320160510002027103746007798096990420010010SNN00
5329711PANCREOLIPASA TECHSPHERE                    4M caps.x 30            00029654SNTechsphere      00005081420160510002027103745807798096990390003010SNN00
6068551SOLUCION HIPERSALINA TECHSPERE 7%           a.x 30 x 4 ml           00000000NNTechsphere      00008790120160510002007104681207798138890374003010NNN00
6068552SOLUCION HIPERSALINA TECHSPERE 7%           a.x 60 x 4 ml           00000000NNTechsphere      00016701420160510002007104681307798138890381006030NNN00
5081752TOFIB                                       300 mg/5 ml amp.x 56    00000000NNTechsphere      01019259720160510003007103564807798096990376005630NNN00
5351716ALMAXIMO                                    100 mg comp.x 2         00000000NNSavant Retail   00000371020160507A03008063981407798032932262000210NNN00
5351687ALMAXIMO                                    50 mg comp.x 1          00000000NNSavant Retail   00000119920160507A03008063981107798032932286000110NNN00
5692422ALMAXIMO MASTICABLE                         50 mg comp.mast.x 2     00000000NNSavant Retail   00000282920160507A03008064123907798032933252000230NNN00
4503461AGRASTAT                                    12.5 mg vial x 50 ml    00000000NNTechsphere - Asp00048529720160510012028242482307798138890589000190NNN00
0676126ALDOMET                                     250 mg comp.rec.x 30    00005145NNTechsphere - Asp00000845220160510002088240536007798138890541003010SNN00
1703404ALDOMET                                     500 mg comp.rec.x 100   00025729NNTechsphere - Asp00004226820160510012008244808207798138890565010030SNN00
1703403ALDOMET                                     500 mg comp.rec.x 30    00008289NNTechsphere - Asp00001361820160510002088240536207798138890558003010SNN00
0759201DECA-DURABOLIN                              50 mg iny.a.x 1 x 1 ml  00000000NNTechsphere - Asp00002254720160510002028240618107795318000035000110SNN00
3058143FRAXIPARINE                                 jga.prell.x 10 - 0.3 ml 00000000NNTechsphere - Asp00006345420160510012088240060807798138890732001050NNN00
3830002FRAXIPARINE                                 jga.prell.x 10 - 0.4 ml 00000000NNTechsphere - Asp00010836920160510012088241506207798138890763001050NNN00
3058223FRAXIPARINE                                 jga.prell.x 10 - 0.6 ml 00000000NNTechsphere - Asp00015279020160510012088240133907798138890794001050NNN00
3830342FRAXIPARINE                                 jga.prell.x 10 - 0.8 ml 00000000NNTechsphere - Asp00020377520160510012088241492407798138890824001050NNN00
3058142FRAXIPARINE                                 jga.prell.x 2 - 0.3 ml  00000000NNTechsphere - Asp00001294120160510012088244874107798138890725000220NNN00
3830003FRAXIPARINE                                 jga.prell.x 2 - 0.4 ml  00000000NNTechsphere - Asp00002210220160510012088244874207798138890756000220NNN00
3058222FRAXIPARINE                                 jga.prell.x 2 - 0.6 ml  00000000NNTechsphere - Asp00003115720160510012088244874307798138890787000220NNN00
3830343FRAXIPARINE                                 jga.prell.x 2 - 0.8 ml  00000000NNTechsphere - Asp00004155620160510012088244874407798138890817000220NNN00
1704071IMURAN                                      50 mg comp.x 100        00049467ANTechsphere - Asp00011874620160510013028240910807798138890534010030NNN00
1704073IMURAN                                      50 mg comp.x 25         00012367ANTechsphere - Asp00002830020160510013028242393707798138890572002510NNN00
0510372METICORTEN                                  5 mg comp.x 20          00006065NNTechsphere - Asp00001026320160510002028241123407793081067149002010SNN00
2175222ORGESTRIOL                                  1000 mcg comp.x 30      00009452NNTechsphere - Asp00001599620160510002028241530607795318001056003010SNN00
2817171ORGESTRIOL                                  cr.vag.x 15 g c/aplic.  00011677NNTechsphere - Asp00001711520160510002028240619307795318000370000110SNN00
3057991ORGESTRIOL                                  ov.x 10                 00010581NNTechsphere - Asp00001752420160510002028240841207795318000387001010SNN00
0758051SUSTANON 250                                250 mg iny.a.x 1 x 1 ml 00015000NNTechsphere - Asp00003187420160510A03028240619807795318000431000110SNN00
2653491TOFRANIL PM                                 caps.x 30               00006786NNTechsphere - Asp00001211720160510403028240224007795306307597003010SNN00
