2237271AFEME                                       comp.x 20               00005864NNCetus           00000992520160506002020481110007795330000013002010SNN00
0199521ARNOL 720-T                                 comp.rec.x 30           00000000NNCetus           00002613520160506403020480213507795330000334003020SNN00
0199522ARNOL 720-T                                 comp.rec.x 60           00000000NNCetus           00005149020160506403020480213607795330000341006050SNN00
2805031BELMALEN                                    comp.rec.x 20           00000000NNCetus           00001860020160506002020480213907795330000051002010SNN00
4378071BELMALEN PLUS                               sob.x 15                00000000NNCetus           00001686020160506002020482166807795330000488001510SNN00
4378072BELMALEN PLUS                               sob.x 30                00000000NNCetus           00003587520160506002020484118507795330000617003030SNN00
3587221BESTROL                                     0.5 mg comp.x 20        00002665NNCetus           00000451020160506403020481225807795330000068002010SNN00
4252081BESTROL                                     0.5 mg comp.x 40        00004291NNCetus           00000726020160506403020481967607795330000433004020SNN00
3587223BESTROL                                     0.5 mg comp.x 60        00004000NNCetus           00000987020160506403020481340207795330000310006050SNN00
3587301BESTROL                                     1 mg comp.x 20          00004248NNCetus           00000719020160506403020481225907795330000075002010SNN00
4252161BESTROL                                     1 mg comp.x 40          00006809NNCetus           00001152520160506403020481967707795330000440004020SNN00
3587303BESTROL                                     1 mg comp.x 60          00006500NNCetus           00001609020160506403020481340307795330000327006050SNN00
4480022BICROMIL                                    100 mg comp.x 30        00024500NNCetus           00004582520160506403020482373607795330000563003010SNN00
4479972BICROMIL                                    50 mg comp.x 30         00017300NNCetus           00003123520160506403020482373507795330000549003010SNN00
0175514BITECAIN A.A.                               comp.x 20               00000000NNCetus           00002051020160506002020480214207795330000082002010SNN00
3828961CETIRIZINA CETUS                            comp.x 10               00005457NNCetus           00001068020160506002020483308007795330000587001010SNN00
2805111CORIZINA CETUS                              grag.x 12               00000000NNCetus           00001101520160506002020480214807795330000143001210SNN00
0202222CUADEL                                      10 mg comp.x 20         00003589NNCetus           00001101520160506403020481088107795330000167002010SNN00
0200902CUADEL                                      5 mg comp.x 20          00002858NNCetus           00000812520160506403020481088007795330000150002010SNN00
2829471DAGOL CETUS                                 comp.x 20               00000000NNCetus           00000854020160506002020480215507795330000181002010SNN00
2829551DAGOL CETUS                                 gts.x 15 ml             00000000NNCetus           00000682520160506002020480215607795330000198000110SNN00
6357971FAGOLIP PLUS                                comp.x 30               00000000NNCetus           00003338520160506403020485152907795330000600003010NNN00
0199783FLAVAL                                      comp.x 30               00000000NNCetus           00003792020160506002020480216407795330000228003010SNN00
0199784FLAVAL                                      comp.x 60               00000000NNCetus           00007410020160506002020480216507795330000235006030SNN00
3902291IONET                                       comp.x 10               00003206NNCetus           00000866520160506002020482031207795330000372001010SNN00
6159391KINETIDOM                                   comp.x 20               00004800NNCetus           00000947520160506002020484779507795330000020002010SNN00
5028661PROKING NF                                  jbe.x 120 ml            00000000NNCetus           00001293520160506002020484651807795330000648000110SNN00
3829111SIMETICONA CETUS                            comp.x 20               00000000NNCetus           00000818020160506002020481494407795330000402002010SNN00
0199362TUAPLEX                                     comp.x 50               00000000NNCetus           00005136020160506002020480216907795330000280005010SNN00
0199601ZIMEROL                                     comp.rec.x 45           00000000NNCetus           00003323020160506002020480217107795330000297004510SNN00
9951937TONVAL                                      10/10 mg c ps.x 30      00000000NNCraveri         00003717120160427002020565193707798051852756003010SNN00
5968265MYSTIKA                                     150 mg caps.x 28        00035492SNRichmond        00006273420160321A03021944949207795348001552002810SNN00
9952431MYSTIKA                                     25 mg caps.x 30         00000000NNRichmond        00001350020160505A03001945243107795348002986003010NNN00
5968134MYSTIKA                                     75 mg caps.x 14         00011361SNRichmond        00002148320160321A03021944949007795348001538001410SNN00
5968135MYSTIKA                                     75 mg caps.x 28         00022722SNRichmond        00003949620160321A03021944949107795348001545002840SNN00
9903139ACEITE DE ALMENDRAS EWE                     fco.x 30 ml             00000000NNSanitas         00000608020160506001002120313907797811099509000110NNN00
9903140ACEITE DE ALMENDRAS EWE                     fco.x 50 ml             00000000NNSanitas         00000817020160506001002120314007797811099516000130NNN00
9903141ACEITE DE RICINO EWE                        fco.x 30 ml             00000000NNSanitas         00000386020160506001002120314107797811099400000110NNN00
9903142ACEITE DE RICINO EWE                        fco.x 50 ml             00000000NNSanitas         00000495020160506001002120314207797811099417000130NNN00
9903152BICARBONATO DE SODIO EWE                    est.x 125 g             00000000NNSanitas         00000318020160506001102120315207797811099202000110NNN00
9903153BICARBONATO DE SODIO EWE                    est.x 250 g             00000000NNSanitas         00000531020160506001102120315307797811099219000130NNN00
9940097CREMA CALENDULA EWE                         cr.x 60                 00000000NNSanitas         00000747020160506001002124009707797811099608000110NNN00
9944056HIGIENIZADOR MANOS EWE                      alcohol en gel x 125 ml 00000000NNSanitas         00000299020160506001102124405607797811099936000110NNN00
9951670INMEDIAL BODY CREAM ESTRIAS EWE             cr.x 150 g              00000000NNSanitas         00001917020160506011102125167007797811099622000110NNS00
9935917IODO POVIDONA EWE                           10% sol.t¢pica x 60 ml  00000000NNSanitas         00000693020160506001002123591707797811099745000110NNN00
9934042LECHE DE ALMENDRAS EWE                      pomo x 200 ml           00000000NNSanitas         00000830020160506001002123404207797811099578000110NNN00
9945746MANTECA DE CACAO EWE                        Labial x 3 g            00000000NNSanitas         00000200020160506001102124574607797811099677000110NNN00
9934043OLEO CALCAREO C/ACEITE DE ALMENDRAS EWE     fco.x 250 ml            00000000NNSanitas         00000577020160506001002123404307797811099349000110NNN00
9934044OLEO CALCAREO C/ACEITE DE ALMENDRAS EWE     fco.x 500 ml            00000000NNSanitas         00000869020160506001002123404407797811099356000130NNN00
9924843OLEO CALCAREO EWE                           fco.x 250 ml            00000000NNSanitas         00000484020160506001002122484307797811099301000110NNN00
9924846OLEO CALCAREO EWE                           fco.x 500 ml            00000000NNSanitas         00000741020160506001002122484607797811099318000120NNN00
9941466OLEO CALCAREO EWE                           fco.x 950 ml            00000000NNSanitas         00001202020160506001002124146607797811099325000150NNN00
9903169VASELINA LIQUIDA DENSA 180 EWE              env.x 1000 ml           00000000NNSanitas         00002062020160506001102120316907797811099080000140NNN00
9903166VASELINA LIQUIDA DENSA 180 EWE              env.x 125 ml            00000000NNSanitas         00000402020160506001102120316607797811099059000110NNN00
9903167VASELINA LIQUIDA DENSA 180 EWE              env.x 250 ml            00000000NNSanitas         00000671020160506001102120316707797811099066000120NNN00
9903168VASELINA LIQUIDA DENSA 180 EWE              env.x 500 ml            00000000NNSanitas         00001120020160506001102120316807797811099073000150NNN00
9903165VASELINA LIQUIDA EXTRA DENSA 340 EWE        env.x 1000 ml           00000000NNSanitas         00002375020160506001102120316507797811099042000140NNN00
9903162VASELINA LIQUIDA EXTRA DENSA 340 EWE        env.x 125 ml            00000000NNSanitas         00000437020160506001102120316207797811099011000110NNN00
9903163VASELINA LIQUIDA EXTRA DENSA 340 EWE        env.x 250 ml            00000000NNSanitas         00000744020160506001102120316307797811099028000120NNN00
9903164VASELINA LIQUIDA EXTRA DENSA 340 EWE        env.x 500 ml            00000000NNSanitas         00001289020160506001102120316407797811099035000150NNN00
9928082VASELINA LIQUIDA EXTRA DENSA EWE            Frambuesa env.x 250 ml  00000000NNSanitas         00000888020160506001102122808207797811099141000110NNN00
9928083VASELINA LIQUIDA EXTRA DENSA EWE            Frambuesa env.x 500 ml  00000000NNSanitas         00001418020160506001102122808307797811099158000130NNN00
9932119VASELINA SOLIDA EWE                         pote x 60 g             00000000NNSanitas         00000397020160506001102123211907797811099127000130NNN00
6254261STIVARGA                                    40 mg tab.3 x 28        00000000NNBayer (PH)      01587680920160429013002145240307795320000528008410NNN00
9949286CADOS                                       comp.x 30               00000000NNFramingham Pharm00002210020160506001002704928607798008190467003010NNN00
9951257CAPSKRILL                                   caps.bl.x 24            00000000NNFramingham Pharm00005210020160506011002705125707798008190702002410NNN00
9952013CAPSKRILL                                   caps.bl.x 40            00000000NNFramingham Pharm00008410020160506011002705201307798008190719004030NNN00
9931784E-FOLIC B6 B12                              comp.x 30               00000000NNFramingham Pharm00001520020160506001002703178407798008190115003010NNN00
9940633FENILUP                                     50 mg comp.x 30         00000000NNFramingham Pharm00001710020160506001002704063307798008190375003010NNN00
9949560FITOSHOT                                    sob.monods.x 30         00000000NNFramingham Pharm00005210020160506001002704956007798008190528003030NNN00
9949559FITOSHOT                                    sob.monods.x 7          00000000NNFramingham Pharm00001510020160506001002704955907798008190511000710NNN00
9950818MSMARTRO                                    comp.x 30               00000000NNFramingham Pharm00001810020160506001002705081807798008190696003010NNN00
9949767MSMARTRO                                    comp.x 60               00000000NNFramingham Pharm00002820020160506001002704976707798008190634006030NNN00
9948092OMEGA 3 NATURAL (S.CHIA)                    fco.gotero x 60 ml      00000000NNFramingham Pharm00001880020160506001002704809207798008190245000110NNN00
9941349OMEGA 3 NATURAL (S.LIMON)                   fco.gotero x 60 ml      00000000NNFramingham Pharm00001970020160506001002704134907798008190405000110NNN00
9948091OMEGA 3 NATURAL (S.NARANJ)                  fco.gotero x 60 ml      00000000NNFramingham Pharm00001970020160506001002704809107798008190191000110NNN00
9945557OMEGA 3 Y 9 NUTRIDABLE                      fco.gotero x 60 ml      00000000NNFramingham Pharm00001350020160506001002704555707798008190429000110NNN00
9940632SELE200                                     200 mcg comp.x 30       00000000NNFramingham Pharm00002910020160506001002704063207798008190382003010NNN00
9921664SELEBOUND                                   50 mcg comp.x 30        00000000NNFramingham Pharm00001910020160506001002702166407798008190061003010NNN00
9933478HYPERCRIT 10000 UI                          f.a.liof.x1+a.disol.x1ml00000000NNDelta Farma     0000361482014031100200276334781             000110NNN00
9929536HYPERCRIT 2000 UI                           f.a.liof.x1+a.disol.x2ml00000000NNDelta Farma     0000086782014031100200276295361             000110NNN00
9929537HYPERCRIT 4000 UI                           f.a.liof.x1+a.disol.x2ml00000000NNDelta Farma     0000160342014031100200276295371             000110NNN00
9947283EURODERM A                                  cr.fco.dosif.x 200 g    00000000NNEuroderm        00002580020160505002003044728307798024440812000110SNN00
3827212EURODERM A                                  cr.x 100 g              00000000NNEuroderm        00001595020160505002023041455907798024440270000120SNN00
9941018EURODERM A                                  cr.x 200 g              00000000NNEuroderm        0000242502016050500202304410180             000150SNN00
9948173EURODERM GEL CRISTALINO                     gel fco.dosif.x 200 g   00000000NNEuroderm        00001985020160505001003044817307798024440829000110NNN00
4794371EUROFER                                     sol.x 20 ml             00004618NNEuroderm        00000780020160505002023042664707798024440485000110SNN00
9947282EURONAZOL                                   shamp.x 120 ml          00000000NNEuroderm        00001282520160505001003044728207798024440232000110NNN00
3703881LOCEMIX                                     loc.x 100 ml            00000000NNEuroderm        00001385020160505002003041308507798024440249000110NNN00
3692902QUIACORT                                    cr.x 15 g               00003757NNEuroderm        00000872020160505002023041642207798024440348000110SNN00
3823411QUIACORT G                                  cr.x 15 g               00000000NNEuroderm        00001150020160505002003041499307798024440294000110SNN00
3837452QUIACORT G PLUS                             cr.x 20 g               00000000NNEuroderm        00000930020160505002003044389007798024440553000130SNN00
0513550SUCROX I.V. COMPLEX                         100 mg/5 ml iny.a.x 5   00034388NNBiocontrol      00002279820160504002003783803607798074990046000510NNN00
6116130INARO                                       1 mg caps.x 100         00000000NNBioprofarma     00047800020160505002003865243007798021440105010010NNN00
3011691MITOXGEN                                    25 mg iny.f.a.x 12.5 ml 00000000NNBioprofarma     0000211801995040100300386013811             000110NNN00
0507023AMILITRAP SOLUCION ORAL                     10 mg/ml sol.oral x200ml00000000NNDosa            00006392020160506003004764294107798061750998000110NNN00
6176970BENTAMAN 100                                100 mg f.a.x 1          00000000NNDosa            00371850020160506003004764848607798061752435000110NNN00
6176841BENTAMAN 25                                 25 mg f.a.x 1           00000000NNDosa            00088800020160506003004764848507798061752428000110NNN00
4612441CICLOFOSFAMIDA 50 DOSA                      50 mg comp.rec.x 30     00015092ANDosa            00003497520160506003004763639407798061751308003010NNN00
4606921DALYS 100                                   100 mg iny.sol.f.a.x 1  00000000NNDosa            00095750020160506003004762409507798061750103000111NNN00
4282022DALYS 150                                   150 mg iny.sol.c/kit    00000000NNDosa            00159022020160506003004764797007798061750042000111NNN00
4282021DALYS 150                                   150 mg iny.sol.f.a.x 1  00000000NNDosa            00150121520160506003004761974007798061750035000111NNN00
4281951DALYS 30                                    30 mg iny.sol.f.a.x 1   00000000NNDosa            00028725020160506003004761973807798061750011000111NNN00
4281952DALYS 30                                    30 mg iny.sol.f.a.x 5   00000000NNDosa            00143625020160506003004762014407798061750028000521NNN00
4652122DALYS 300                                   300 mg iny.sol.c/kit    00000000NNDosa            00291814520160506003004764797107798061750240000111NNN00
4652121DALYS 300                                   300 mg iny.sol.f.a.x 1  00000000NNDosa            00286961020160506003004762467707798061750233000111NNN00
5776551DREICO L                                    4mg liof.f.a.x1+solvx5ml00000000NNDosa            00063388020160506002024764208007798061751384000110NNN00
6174261DREICO S                                    4 mg f.a.sol.x 1        00000000NNDosa            00063388020160506002004764799007798061752343000110NNN00
0468018EFIXANO 100                                 100mg/5ml iny.sol.f.a.x100000000NNDosa            00074082520160506003004762552707798061750271000110NNN00
4799901FECINOLE                                    2.5 mg comp.rec.x 30    00000000NNDosa            00030700020160506003004762688107798061750417003010NNN00
6167261FIBRIDONER                                  200 mg comp.x 200       00000000NNDosa            00641860020160506003004764849307798061752442020010NNN00
6167263FIBRIDONER                                  200 mg comp.x 360       00000000NNDosa            01134523020160506003004764959907798061752473036030NNN00
5169781FLURADOSA                                   50 mg iny.liof.f.a.x 1  00000000NNDosa            00053954020160506003004763448507798061750875000110NNN00
5169782FLURADOSA                                   50 mg iny.liof.f.a.x 5  00000000NNDosa            00269240020160506003004763448607798061750974000530NNN00
0630255GYSATY                                      3.5 mg f.a.liof.+solv.x100000000NNDosa            00470470020160506002004765216207798061751780000110NNN00
6167421LENOMEL 10                                  10 mg caps.x 21         00000000NNDosa            01877500020160506003004764955407798061752459002110NNN00
6167552LENOMEL 15                                  15 mg caps.x 21         00000000NNDosa            01900100020160506003004765156007798061752534002110NNN00
6167681LENOMEL 25                                  25 mg caps.x 21         00000000NNDosa            01998980020160506003004764955507798061752466002110NNN00
6167391LENOMEL 5                                   5 mg caps.x 21          00000000NNDosa            01799000020160506003004764959807798061752503002110NNN00
6262715LETIB                                       125 mg comp.rec.x 60    00000000NNDosa            00680470020160506002004764974807798061752497006010NNN00
6262685LETIB                                       62.5 mg comp.rec.x 60   00000000NNDosa            00679980020160506002004764974707798061752480006010NNN00
6099421PEYMETREL 100                               100 mg f.a.x 1          00000000NNDosa            00067177520160506012004764722507798061752220000110NNN00
6099551PEYMETREL 500                               500 mg f.a.x 1          00000000NNDosa            00441056020160506012004764722407798061752206000110NNN00
6032681PLUSABCIR                                   sol.oral x 240 ml       00000000NNDosa            00012165820160506003004764651407798061752046000110NNN00
6290001PLUSMUV                                     0.5 mg comp.x 30        00000000NNDosa            00008282520160506002024765064507798061752510003010SNN00
9952427SALINDOSA                                   monodosis x 12 x 0.4 ml 00000000NNDosa            00004177020160505002004765242707798061752336001210NNN00
0607371SALINDOSA                                   monodosis x 60 x 0.4 ml 00000000NNDosa            00018548520160506002004764658807798061752053006010NNN00
6135551SPRYTINIB 100                               100 mg comp.rec.x 30    00000000NNDosa            00909825020160506003004764816707798061752381003010NNN00
6135262SPRYTINIB 20                                20 mg comp.rec.x 60     00000000NNDosa            00304395020160506003004764816407798061752350006010NNN00
6135392SPRYTINIB 50                                50 mg comp.rec.x 60     00000000NNDosa            00873915020160506003004764816507798061752367006010NNN00
6135422SPRYTINIB 70                                70 mg comp.rec.x 60     00000000NNDosa            00909510020160506003004764816607798061752374006010NNN00
0516962STAVUDINA 1MG/ML DOSA                       1mg/ml pvo.f.a.x1 x200ml00000000NNDosa            00028026020160506003004763306707798061750943000110NNN00
5898711TEMOLA 100                                  100 mg caps.duras x 5   00000000NNDosa            00152375020160506003004764440907798061751629000510NNN00
5898682TEMOLA 20                                   20 mg caps.duras x 20   00000000NNDosa            00083202520160506003004764440807798061751612002010NNN00
5898681TEMOLA 20                                   20 mg caps.duras x 5    00000000NNDosa            00024380020160506003004764440707798061751605000510NNN00
5898841TEMOLA 250                                  250 mg caps.duras x 5   00000000NNDosa            00380305020160506003004764441007798061751636000510NNN00
6114003VEK 400                                     400 mg comp.rec.x 30    00000000NNDosa            00478257520160506003004764717007798061752213003010NNN00
9943343BASTA                                       serum x 125 ml          00000000NNKrolton Pharma  00001004620160505001005784334307798086730012000110NNN00
9943496BASTA PACK                                  serumx125ml+peine+neces.00000000NNKrolton Pharma  0000147382016050500100578434960             000110NNN00
9935575GEL K                                       gel x 25 g              00000000NNKrolton Pharma  00000821220160505001105783557507798086736014000110NNN00
9945896KROLTONEX                                   comp.x 20               00000000NNKrolton Pharma  00000708220160505001005784589607798086730029002010NNN00
6010553KROLTONHEXINA ADULTOS                       jbe.x 120 ml            00004278NNKrolton Pharma  00000579820160505001005784674807798086730104000110NNN00
6010422KROLTONHEXINA PEDIATRICO                    jbe.x 90 ml             00000000NNKrolton Pharma  00000579820160505001005784674907798086730067000110NNN00
4869110MONIZOL                                     400 mg ov.x 3           00000000NNKrolton Pharma  00000803620160505002005783076807798086731002000310SNN00
4869370MONIZOL                                     cr.x 15 g               00003855NNKrolton Pharma  00000622820160505002005783076707798086732009000110SNN00
4869371MONIZOL                                     cr.x 30 g               00004034NNKrolton Pharma  00000813420160505002005783495407798086736052000130SNN00
5090810MONIZOL BIPACK                              ov.x 3+cr.x 15 g        00000000NNKrolton Pharma  00001274120160505002005783163207798086733006000310SNN00
5066160MONIZOL CORT                                cr.x 20 g               00000000NNKrolton Pharma  0000070672016050500200578331140             000110SNN00
4869611MONIZOL CORT                                ov.x 6                  00000000NNKrolton Pharma  00000967120160505002005783814207798086736083000610SNN00
5178840MONIZOL CORT BIPACK                         ov.x 6+cr.x 15 g        00000000NNKrolton Pharma  00001288020160505002005783294407798086733013000610SNN00
5740391SULFATO FERROSO KROLTON PHARMA              env.x 45 ml             00005695NNKrolton Pharma  00000718320160505002005784368207798102439615000110SNN00
5054110TAREMIS                                     500 mg comp.x 10        00003096NNKrolton Pharma  00000591920160505002005784038707798086734027001010SNN00
5054111TAREMIS                                     500 mg comp.x 20        00005740NNKrolton Pharma  00000858320160505002005784038807798086734010002030SNN00
5054250TAREMIS                                     500 mg ov.x 8           00005202NNKrolton Pharma  00000984420160505002005783814307798086736069000830SNN00
3795881ALBUMINAR 20                                fco.x 50 ml             00000000NNCSL Behring     00006192820160505012005824462107798098720094000110NNN00
2445254ALBUREX                                     f.a.x 1 x 50 ml         00000000NNCSL Behring     00008730320160505012005825210407798098720032000111NNN00
4900792BERIATE P                                   1000 UI f.a.x1+eq.transf00000000NNCSL Behring     00188473820160505012005823107207798098720155000111NNN00
4900612BERIATE P                                   500 UI f.a.x 1+eq.transf00000000NNCSL Behring     00094300020160505012005823107107798098720148000111NNN00
5117181BERINERT P                                  500 U iny.f.a.x 10 ml   00000000NNCSL Behring     00071779220160505012005823219707798098720186000110NNN00
4915482BERININ P                                   1200 UI f.a.x1+eq.transf00000000NNCSL Behring     00144792220160505012005823107407798098720216000111NNN00
0491530BERININ P                                   600 UI f.a.x 1+eq.transf00000000NNCSL Behring     00072396320160505012005823107307798098720209000111NNN00
3638961BERIPLAST P COMBI SET                       env.x 1ml+eq.de aplic.  00000000NNCSL Behring     00020125120160505012005821256207798098720230000110NNN00
3639031BERIPLAST P COMBI SET                       env.x 3ml+eq.de aplic.  00000000NNCSL Behring     00060375420160505012005821371007798098720247000110NNN00
0497151BERIPLEX P/N                                500 UI f.a.x 1+eq.transf00000000NNCSL Behring     00035120820160505012005823107607798098720261000110NNN00
5058171FIBROGAMMIN P                               250 UI liof.f.a.x 1     00000000NNCSL Behring     00015848520160505013005825043507798098720278000110NNN00
3107641HAEMATE P                                   1000 UI f.a.x 1+set adm.00000000NNCSL Behring     00153245920160505012005820180507798098720353000110NNN00
3107721HAEMATE P                                   500 UI f.a.x 1+set adm. 00000000NNCSL Behring     00076623120160505012005820180407798098720346000110NNN00
6193131HAEMOCOMPLETTAN P                           1 g fco.a.x 1           00000000NNCSL Behring     00072221820160505012005824827407798098720582000110NNN00
6210001HIZENTRA                                    1g env.x 5 ml           00000000NNCSL Behring     000256355201605050020A5824876107798098720599000110NNN00
6210002HIZENTRA                                    2g env.x 10 ml          00000000NNCSL Behring     000512710201605050020A5824876207798098720605000110NNN00
6210004HIZENTRA                                    4g env.x 20 ml          00000000NNCSL Behring     001025420201605050020A5824876307798098720629000110NNN00
5277022INMUNOGLOBULINA HEPATITIS-B P BEHRING       1000 UI a.x 5 ml        00000000NNCSL Behring     00052129720160505012005823547107798098720575000111NNN00
6128973PRIVIGEN                                    10 g f.a.x 1 x 100 ml   00000000NNCSL Behring     002359378201605050020A5824746707798098720780000111NNN00
6128974PRIVIGEN                                    20 g f.a.x 1 x 200 ml   00000000NNCSL Behring     004718756201605050020A5824746807798098720797000111NNN00
6128972PRIVIGEN                                    5 g f.a.x 1 x 50 ml     00000000NNCSL Behring     001179691201605050020A5824746607798098720773000111NNN00
5610681RHOPHYLAC                                   300mcg IM/IV jga.prel.x100000000NNCSL Behring     00011315420160505012005824146807798098720667000110NNN00
3172571SANDOGLOBULINA                              6g liof.+dil.x 200ml+set00000000NNCSL Behring     001322458201605050120A5824452307798098720650000110NNN00
2046864TETANOGAMMA P                               500 UI iny.f.a.x 1+jga. 00051940NNCSL Behring     00012220220160505002005824901807798098720551000111SNN00
5755683LIPEND                                      40 mg comp.x 30         00042089NNSavant          00005695020160505002066655081007798032935294003010SNN00
9942853ACNIBEN GEL CREMA EQUILIBRANTE              gel-crema x 40 ml       00000000NNIsdin           00002830020160504011006664285308470003245920000110NNN00
9942852ACNIBEN GEL LIMPIADOR                       gel x 200 ml            00000000NNIsdin           00002658920160504011106664285208470003245913000110NNN00
9938946ACNIBEN RX                                  emuls.limpiadora x200 ml00000000NNIsdin           00002769720160504011006663894608470002000698000110NNN00
9938947ACNIBEN RX                                  gel-cr.hidr.x 40 ml     00000000NNIsdin           00002662920160504011006663894708470002000704000110NNN00
9943408ACNIBEN RX REPARADOR LABIAL                 balsamo x 10 ml         00000000NNIsdin           00001484120160504011006664340808470001509802000110NNN00
9944009AFTER SUN ISDIN                             spray ef.inmediatox200ml00000000NNIsdin           00002822020160504011106664400908470003233941000110NNN00
9938022AVENA ISDIN SYNDET DE AVENA                 env.x 100 g             00000000NNIsdin           00001248120160504011106663802208470002431393000110NNN00
9948124BETALFATRUS LACA UNGUEAL                    laca p/u¤as x 3.3 ml    00000000NNIsdin           00004222320160504011006664812407898939803099000110NNN00
4428484BONALFA                                     ung.x 30 g              00014742NNIsdin           00002619520160504002006665001508429420045613000110SNN00
9950596FLUNUTRAC                                   cr.x 30 g               00000000NNIsdin           00002211120160504012006665059608429420075528000110SNN00
9951109FOTO ULTRA ISDIN ACTIVE UNIFY COLOR         fluid x 50 ml           00000000NNIsdin           00004264020160504011106665110908429420078581000110NNN00
9951110FOTO ULTRA ISDIN SOLAR ALLERGY              fluid x 50 ml           00000000NNIsdin           00003582420160504011106665111008429420077959000110NNN00
9951563FOTOPROTECTOR ISDIN COMPACTO ARENA 50+      compacto 10 g           00000000NNIsdin           00003517520160504011106665156308470001716125000110NNN00
9951564FOTOPROTECTOR ISDIN COMPACTO BRONCE 50+     compacto 10 g           00000000NNIsdin           00003517520160504011106665156408429420088528000110NNN00
9951562FOTOPROTECTOR ISDIN DRY TOUCH S/COLOR 50+   gel cr.x 50 ml          00000000NNIsdin           00003149720160504011106665156208470001699664000110NNN00
9947194FOTOPROTECTOR ISDIN EXTREM 30               fusion fluid x 50 ml    00000000NNIsdin           00003119620160504011106664719408470001577672000110NNN00
9947193FOTOPROTECTOR ISDIN EXTREM 30               gel-cr.x 200ml          00000000NNIsdin           00003070120160504011106664719308470001549990000110NNN00
9944002FOTOPROTECTOR ISDIN EXTREM 40               maqill.comp.oil freex10g00000000NNIsdin           00003517320160504011106664400208470001654557000110NNN00
9947192FOTOPROTECTOR ISDIN EXTREM 50+              fusion fluid colorx 50ml00000000NNIsdin           00003207820160504011106664719208470001585066000110NNN00
9945537FOTOPROTECTOR ISDIN EXTREM 50+              fusion fluid x 50 ml    00000000NNIsdin           00003152520160504011106664553708470001525369000110NNN00
9943997FOTOPROTECTOR ISDIN EXTREM 50+              gel-cr.tacto lig.x 200ml00000000NNIsdin           00003638420160504011106664399708470003331180000110NNN00
9949146FOTOPROTECTOR ISDIN G-C DRY TOUCH COLOR     FPS 50+ cr.gel x 50 ml  00000000NNIsdin           00003149720160504011106664914608470001631718000110NNN00
9949148FOTOPROTECTOR ISDIN PED TRANSP 50+          gel-spray x 200 ml      00000000NNIsdin           00003599620160504011106664914808470001593160000110NNN00
9951779FOTOPROTECTOR ISDIN SPOT PREVENT            fluido x 50 ml          00000000NNIsdin           00003581320160504011106665177908429420079717000110NNN00
9948397FOTOPROTECTOR ISDIN TRANSPARENT 30+         spray x 200 ml          00000000NNIsdin           00003656920160504011106664839708470001628558000110NNN00
9948398FOTOPROTECTOR ISDIN TRANSPARENT 50+         spray x 200 ml          00000000NNIsdin           00004016120160504011106664839808470001559319000110NNN00
9950646FOTOPROTECTOR ISDIN TRANSPARENT 50+         wet skin spray x 200 ml 00000000NNIsdin           00004181220160504011106665064608470001674234000110NNN00
9938017GLICOISDIN 10                               gel x 50 ml             00000000NNIsdin           00004480720160504011106663801708470002426375000110NNN00
9938016GLICOISDIN 15                               gel x 50 ml             00000000NNIsdin           00004480720160504011106663801608470002426382000110NNN00
9938018GLICOISDIN 25                               gel x 50 ml             00000000NNIsdin           00004480720160504011106663801808470002438330000110NNN00
9938019GLICOISDIN CR                               15% antiag.cr.x 50 ml   00000000NNIsdin           00005012520160504011106663801908470002589391000110NNN00
9938015GLICOISDIN CR                               8% antiag.cr.x 50 ml    00000000NNIsdin           00005012520160504011106663801508470001709103000110NNN00
9946673IRALFARIS                                   champu x 200 ml         00000000NNIsdin           00002656120160504011006664667308470001523464000110NNN00
9946674IRALFARIS                                   hig.corp.jab.liq.x 500ml00000000NNIsdin           00002540620160504011006664667408470001531353000110NNN00
9946672IRALFARIS                                   loc.corporal x 250 ml   00000000NNIsdin           00003058620160504011006664667208470001531346000110NNN00
6238711NIOGERMOX                                   Frasco x 3.3 ml         00000000NNIsdin           00003013520160504002006664961808429420072701000110SNN00
9945538NUTRATOPIC GEL LIMPIADOR EMOLIENTE          pieles atopicas x 200 ml00000000NNIsdin           00002038120160504001106664553808470002006430000110NNN00
9945539NUTRATOPIC LOCION EMOLIENTE                 pieles atopicas x 200 ml00000000NNIsdin           00002495720160504001106664553908470002006447000110NNN00
9951671NUTRATOPIC PRO AMP                          cr.emoliente x 200 ml   00000000NNIsdin           00004619920160504001106665167108470002006454000110NNN00
9948806NUTRATOPIC PRO AMP                          cr.x 50 ml              00000000NNIsdin           00001751520160504001106664880608470001547927000110NNN00
9952426NUTRATOPIC PRO AMP                          loci¢n x 400 ml         00000000NNIsdin           00004620020160505001106665242608470001503572000110NNN00
9945540NUTRATOPIC RX                               cr.pieles atopic.x 100ml00000000NNIsdin           00002911620160504001106664554008470001502100000110NNN00
9939933PROTECTOR LABIAL ISDIN EXTREM               barra x 4 g             00000000NNIsdin           00001230920160504011106663993308470001677013000110NNN00
9943406UREADIN ANTIMANCHAS FACIAL                  cr.x 50 ml              00000000NNIsdin           00004737420160504011006664340608470002180567000110NNN00
9948807UREADIN CREMA DE MANOS REPARED              cr.x 50 ml              00000000NNIsdin           00001487920160504011006664880708470002610736000110NNN00
9942851UREADIN CREMA FACIAL ANTIARRUGAS            cr.x 50 ml              00000000NNIsdin           00004536220160504011106664285108470002451001000110NNN00
9938014UREADIN FACIAL                              cr.x 50 ml              00000000NNIsdin           00003445420160504011006663801408470003808576000110NNN00
9946025UREADIN FACIAL HIDRATANTE PIEL MIXTA        gel-cr.x 50 ml          00000000NNIsdin           00003496320160504011006664602508470002585386000110NNN00
9948737UREADIN FUSION FLUID                        cr.x 50 ml              00000000NNIsdin           00003757720160504011006664873708470001612175000110NNN00
9948736UREADIN FUSION MELTING CREAM                cr.x 50 ml              00000000NNIsdin           00004640020160504011006664873608470001614841000110NNN00
9950403UREADIN FUSION SERUM LIFT ANTIARRUGAS       fco.x 30 ml             00000000NNIsdin           00006203620160504011106665040308470001691880000110NNN00
9939932UREADIN GEL-CREMA CONTORNO DE OJOS          gel-cr.x 15 ml          00000000NNIsdin           00003725020160504011006663993208470003913423000110NNN00
9951732UREADIN PODOS DB                            cr.x 100 ml             00000000NNIsdin           00004038220160504011006665173208470001685254000110NNN00
9944859UREADIN PODOS REPARADOR TALONES Y PIES      gel oil x 75 ml         00000000NNIsdin           00002411020160504011006664485908470001527349000110NNN00
9944858UREADIN RX 10 REPARADOR EMOLIENTE EN LOCION loc.x 200 ml            00000000NNIsdin           00002849420160504011006664485808470001532435000110NNN00
9946728UREADIN RX 10 REPARADOR EMOLIENTE EN LOCION loc.x 400 ml            00000000NNIsdin           00004448620160504011006664672808470001557568000130NNN00
9952428CAVIAHUE AGUA ACTIVADA                      aer.x 180 ml            00000000NNCopahue         00001890020160505001106835242807798120260345000110NNN00
9952429CAVIAHUE LOCION TONICA HIDRATANTE           Aloe Vera loc.x 180 ml  00000000NNCopahue         00001580020160505001106835242907798120260352000110NNN00
9952417CICATRICURE                                 Agua micelar x 200 ml   00000000NNGenomma Lab.    00001350020160503011107155241707798140252047000110NNS00
9950247CICATRICURE                                 Beauty Care cr.x 50 g   00000000NNGenomma Lab.    00001468520160426011107155024707798140250371000110NNS00
9944615CICATRICURE                                 Cr.x 60 g               00000000NNGenomma Lab.    00002028920160426011107154461500650240003196000110NNS00
9943325CICATRICURE                                 Gel x 30 g              00000000NNGenomma Lab.    00001123020160426001107154332500650240003974000110NNS00
9942817CICATRICURE                                 Gel x 60 g              00000000NNGenomma Lab.    00001679520160426001107154281700650240001864000130NNS00
9952121CICATRICURE                                 Promo 20% cont.ojos x8.500000000NNGenomma Lab.    00001120320160426011107155212107798140252139000110NNS00
9952120CICATRICURE                                 Promo 20% off cr.x 60 g 00000000NNGenomma Lab.    00001621020160426011107155212007798140252122000110NNS00
9951661CICATRICURE                                 Roll on ojos x 15 ml    00000000NNGenomma Lab.    00001566020160426011107155166107798140251651000110NNS00
9945359CICATRICURE MICRODERMOABRASION              kit x 3 piezas          00000000NNGenomma Lab.    00003570120160426001107154535900650240004209000310NNS00
9930940102 A¥OS PLUS                               comp.x 30               00000000NNGram¢n-Millet   00001061020160505001107633094007791984000485003010NNN00
9933894102 A¥OS PLUS                               comp.x 60               00000000NNGram¢n-Millet   00001897520160505001107633389407791984000492006020NNN00
9941040102 A¥OS PLUS                               comp.x 90               00000000NNGram¢n-Millet   00002759220160505001107634104007791984000508009050NNN00
9938177102 A¥OS PLUS EFERVESCENTE                  sob.x 15                00000000NNGram¢n-Millet   00000690620160505001107633817707791984000515001510NNN00
9941681102 SPORT                                   sob.x 30                00000000NNGram¢n-Millet   00001725820160505001107634168107791984000522003010NNN00
0484301ADEROGYL                                    a.x 1                   00000000NNGram¢n-Millet   00000748120160505002027630796007791984000232000110SNN00
0477551CALCIGENOL B 12                             env.x 150 ml            00000000NNGram¢n-Millet   00000805520160505002027630796307791984000249000110SNN00
9937481CERAX                                       gts.x 10 ml             00000000NNGram¢n-Millet   00000696020160505001007633748107791984100048000110NNN00
9922533CHOFITOL                                    grag.x 20               00000000NNGram¢n-Millet   00000850420160505001007632253307791984070068002010NNN00
9905557CHOFITOL                                    grag.x 50               00000000NNGram¢n-Millet   00001889120160505001007630555707791984018213005030NNN00
9944534CHOFITOL PLUS                               mentol gts.x 120 ml     00000000NNGram¢n-Millet   00001226920160505001007634453407791984100024000130NNN00
9944535CHOFITOL PLUS                               mentol gts.x 40 ml      00000000NNGram¢n-Millet   00000605920160505001007634453507791984100031000110NNN00
9952119DENTIMAX ULTRA                              cr.adhes.s/sabor x 20 g 00000000NNGram¢n-Millet   00000405820160505001107635211907792374000177000110NNN00
9939563DENTIMAX ULTRA                              cr.adhes.s/sabor x 40 g 00000000NNGram¢n-Millet   00000723520160505001107633956307792374000122000130NNN00
9941459DENTIMAX ULTRA                              cr.adhes.x 20 g         00000000NNGram¢n-Millet   00000405820160505001107634145907792374000146000110NNN00
9938379DENTIMAX ULTRA                              cr.adhes.x 40 g         00000000NNGram¢n-Millet   00000723520160505001107633837907792374000139000130NNN00
9939420DENTIMAX ULTRA                              pvo.adhes.x 20 g        00000000NNGram¢n-Millet   00000394020160505001107633942007798074280499000110NNN00
9952166DENTIMAX ULTRA 2X1                          cr.adhes.s/sabor x 40 g 00000000NNGram¢n-Millet   00000845220160505001107635216607792374000191000250NNN00
9952167DENTIMAX ULTRA 2X1                          cr.adhes.x 40 g         00000000NNGram¢n-Millet   00000845220160505001107635216707792374000184000150NNN00
0892022DI NEUMOBRON                                sol.x 100 ml            00000000NNGram¢n-Millet   0000036602015113000202763077001             000110NNN00
9950260DI NEUMOBRON GRIP                           comp.x 10               00000000NNGram¢n-Millet   00000495920160505001007635026007795345001814001010NNN00
9948986DI NEUMOBRON TOS                            sol.x 120 ml            00000000NNGram¢n-Millet   00000825420160505001007634898607795345001425000110NNN00
9949667DI NEUMOBRON VL                             sol.x 100 ml            00000000NNGram¢n-Millet   00000594920151104001007634966707795345005737000110NNN00
9904710FLEBODERMA                                  cr.x 30 g               00000000NNGram¢n-Millet   00000765720160505001007630471007791984000324000110NNN00
9950490HEXA DEFITAL FAST CON APLICADOR             loci¢n x 145 ml         00000000NNGram¢n-Millet   00001261320160505001107635049007791984000348000110NNN00
9952369HEXA DEFITAL FAST+REPELENTE                 promo pack spray x 2u.  00000000NNGram¢n-Millet   00001711220160505001007635236907791984000669000250NNN00
9937461HEXA DEFITAL N.F.                           loc.x 120 ml            00005089NNGram¢n-Millet   00000861220160505001007633746107791984000706000110NNN00
9937462HEXA DEFITAL N.F.                           shamp.x 120 ml          00000000NNGram¢n-Millet   00000887620160505001007633746207791984000690000110NNN00
9948755HEXA DEFITAL REPELENTE DE PIOJOS            sol.spray x 120 ml      00000000NNGram¢n-Millet   00001183320160505001007634875507791984000300000110NNN00
4020322MEGACISTIN                                  comp.rec.x 60           00000000NNGram¢n-Millet   00002941720160505001007632836807791984000010006010NNN00
9948893MERTHIOLATE ALCOHOL EN GEL                  env.x 250 ml            00000000NNGram¢n-Millet   00000556820160505001107634889307791984000218000130NNS00
9947813MERTHIOLATE ALCOHOL EN GEL                  env.x 65 ml             00000000NNGram¢n-Millet   00000317520160505001107634781307791984000201000110NNS00
9950917MERTHIOLATE ANESTESICO                      soluc.x 45 ml           00000000NNGram¢n-Millet   00000813020160505001007635091707791984000607000110NNN00
9945994MERTHIOLATE ANESTESICO                      soluc.x 60 ml           00000000NNGram¢n-Millet   00001044820160505001007634599407791984000225000130NNN00
9947257MERTHIOLATE BEBE                            cr.x 40 g               00000000NNGram¢n-Millet   00000578720160505001107634725707792374000054000110NNS00
9948451MERTHIOLATE BEBE SPRAY                      spray x 120 ml.         00000000NNGram¢n-Millet   00000769520160505001107634845107791984000195000110NNS00
9946823MERTHIOLATE FILM                            aer.x 30 g              00000000NNGram¢n-Millet   00001028120160505001107634682307792374508307000110NNS00
9950945MERTHIOLATE FILM                            aer.x 30 g x 8 u.       00000000NNGram¢n-Millet   00008224920160505001107635094507791984000546000890NNS00
9933953MERTHIOLATE IODOPOVIDONA                    sol.t¢pica x 60 ml      00000000NNGram¢n-Millet   00000993820160505001007633395307792374506600000110NNN00
9946274MERTHIOLATE NUEVA FORMULA                   esp t.incoloro x 60 ml  00000000NNGram¢n-Millet   00000918920160505001007634627407791984000256000130NNN00
9946275MERTHIOLATE NUEVA FORMULA                   gotero incoloro x 60 ml 00000000NNGram¢n-Millet   00000918920160505001007634627507791984000263000130NNN00
9946276MERTHIOLATE NUEVA FORMULA                   spray soluc.x 60 ml     00000000NNGram¢n-Millet   00000983620160505001007634627607791984000270000130NNN00
9946824MERTHIOLATE TOALLAS HUMEDAS ANTIBACTERIALES toall.x 30              00000000NNGram¢n-Millet   00000550020160505001107634682407791984000188003010NNS00
0688421MICTASOL AZUL                               grag.x 50               00000000NNGram¢n-Millet   00002383520160505002027630557507791984100062005010SNN00
9952207NEUMOBRON TOS                               jbe.x 120 ml            00000000NNGram¢n-Millet   00000825420160505001007635220707791984000775000110NNN00
5528683ORALSONE                                    comp.x 12               00005860NNGram¢n-Millet   00000901520160505002027632250807791984000089001210SNN00
9951644ORALSONE BENZOCAINA GEL                     gel x 10 g              00000000NNGram¢n-Millet   00000679620160505001007635164407791984000133000110NNN00
9941163ORALSONE HERPES VL                          cr.x 5 g                00003568NNGram¢n-Millet   00000506520160505001007634116307791984000126000110NNN00
9950261ORALSONE INFANTIL                           gel t¢pico x 15 g       00000000NNGram¢n-Millet   00000653620160505001007635026107791984000362000110NNN00
0382174PERGALEN                                    ung.x 30 g              00000000NNGram¢n-Millet   00000941120160505002027631343207791984000416000110SNN00
9930459SINRONCAR                                   sol.nasal x 15 ml       00000000NNGram¢n-Millet   00000560220160505001007633045907791984070099000110NNN00
9935039SNELLA VAG                                  gel x 60 g              00000000NNGram¢n-Millet   00000680920160505001107633503907791984000065000110NNS00
9947628EPUYEN AHAS                                 cr.x 60 g               00000000NNEpuy‚n          00002220020160505001007734762807798024445037000110NNN00
9947629EPUYEN BEBE                                 pda.x 100 g             00000000NNEpuy‚n          00001892020160505001007734762907798024445013000110NNN00
9947630EPUYEN CREMA DE ORDE¥E                      fco.c/v lv.dosif.x 200 g00000000NNEpuy‚n          00001180020160505001107734763007998024445039000110NNN00
9949197EPUYEN EMULSION                             fco.c/v lv.dosif.x 200ml00000000NNEpuy‚n          00001895020160505001107734919707798024445053000110NNN00
9948522EPUYEN EMULSION CORPORAL                    fco.c/v lv.dosif.x 400 g00000000NNEpuy‚n          00003382020160505001107734852207798024445046000110NNN00
9950327EPUYEN VITAMINA A NUTRITIVA                 cr.x 100 g              00000000NNEpuy‚n          00001442520160505001007735032700799802445077000110NNN00
9950237EPUYEN VITAMINA A NUTRITIVA                 cr.x 200 g              00000000NNEpuy‚n          00002352520160505001007735023707799802445060000110NNN00
0408840HYPERCRIT 10000 UI                          f.a.liof.x1+a.disol.x1ml00000000NNBiosidus        00008907020160418002007795231907795355008308000110NNN00
0392077HYPERCRIT 2000 UI                           f.a.liof.x1+a.disol.x2ml00000000NNBiosidus        00001428320160418002007795231707795355008117000110NNN00
0392085HYPERCRIT 4000 UI                           f.a.liof.x1+a.disol.x2ml00000000NNBiosidus        00002647520160418002007795231807795355008124000110NNN00
9923972POVI COMPLEX-10                             sol.x 60 ml             00000000NNLab Internaciona00000938520160503001007972397207793569402233000110NNN00
5935556ACTOBIAN                                    400 mg comp.rec.x 20    00009564NNSavant Retail   00001552020160505002088064727007798032934136002030SNN00
6022972CANSIS                                      150 mg comp.x 4         00013727NNSavant Retail   00002076220160505002028064713107798032934105000430SNN00
6286003COLESTRAX                                   10 mg comp.x 28         00021500NNSavant Retail   00002832120160505002028065035407798032935041002810SNN00
6286133COLESTRAX                                   20 mg comp.x 28         00036928NNSavant Retail   00005302220160505002028065035507798032935058002810SNN00
9942474DEXITIS                                     10 mg comp.x 10         00002124NNSavant Retail   00000352120160505002008064247407798032933719001010SNN00
5972717FABOACID PANTO                              20 mg comp.rec.x 30     00008800NNSavant Retail   00001439520160505002028064745207798032934181003010SNN00
5972847FABOACID PANTO                              40 mg comp.rec.x 30     00014500NNSavant Retail   00002220720160505002028064745307798032934198003010SNN00
5766713FABOCEF                                     10 mg comp.x 30         00013000NNSavant Retail   00001708220160505002088064262907798032933665003010SNN00
5250672FABOGESIC                                   600 mg comp.x 20        00005300NNSavant Retail   00000769120160505002028063417407798032930688002010SNN00
4693975FABOTENSIL                                  10 mg comp.x 30         00005500NNSavant Retail   00000876720160505002068064149707798032933306003010SNN00
5304424FABOXIM                                     10 mg comp.rec.x 30     00018800NNSavant Retail   00002283920160505002068064019207798032932392003010SNN00
5304554FABOXIM                                     20 mg comp.rec.x 30     00029300NNSavant Retail   00003686720160505002068064019307798032932408003010SNN00
6176552FLEXIPLEN B12                               comp.rec.x 15           00000000NNSavant Retail   00001685120160505002028064821907798032934426001510SNN00
5488131GRIPABEN                                    comp.x 10               00000000NNSavant Retail   00000488820160505002008064160607798032933542001010SNN00
5488261GRIPABEN SOLUCION ORAL                      env.x 100 ml            00000000NNSavant Retail   00000889220160505002028064703607798032934150000110SNN00
9942224LYNCIS                                      comp.mast.x 10          00000000NNSavant Retail   00000537620160505001008064222407798032933627001010NNN00
0584013CRATULAR                                    100 mg comp.x 30        00024500NNLab Internaciona00004966220160505403028165101007793569005694003010SNN00
0584000CRATULAR                                    50 mg comp.x 30         00017300NNLab Internaciona00002883620160505403028165100907793569005687003010SNN00
0580713ETADIAR                                     10 mg comp.x 30         00015800NNLab Internaciona00002488320160505002088165116507793569005670003010SNN00
0580697ETADIAR                                     2.5 mg comp.x 30        00006800NNLab Internaciona00000871720160505002088165116307793569005656003010SNN00
0580700ETADIAR                                     5 mg comp.x 30          00012800NNLab Internaciona00001981020160505002088165116407793569005663003010SNN00
