5532682MEDIFOL 5                                   5 mg comp.x 30          00003479NNAustral         00000490020160502002000073885407798011651757003010SNN00
5827006AEROTROP                                    aer.HFA x 12.5 ml(250ds)00007198NNCassar†         00001406820160502002080464747107795373013087025010SNN00
4897413AEROTROP                                    sol.p/neb.x24unid.x2.5ml00004385NNCassar†         00001282220160502002080463820107795373010031002410NNN00
5850396AEROTROP                                    spray nasal x 120 dosis 00004338NNCassar†         00000880020160502002080464431907795373011205012010SNN00
4051432AG-B 10                                     10 mcg susp.iny.x1x0.5ml00007387SNCassar†         00000807120160502002000464667107795373000308000111NNN00
4051431AG-B 20                                     susp.iny.f.a.x 1 x 1 ml 00009179SNCassar†         00001049420160502002000464618507795373000223000111NNN00
9923060ALFABASE                                    cr.x 75 g               00000000NNCassar†         00001551220160502001100462306007795373010093000110NNN00
9923061ALFABASE                                    emuls.x 150 g           00000000NNCassar†         00002098020160502001100462306107795373010109000110NNN00
9923062ALFABASE 8                                  cr.x 60 g               00000000NNCassar†         00001797020160502001100462306207795373010116000110NNN00
4772252ALFACORT                                    1% cr.x 30 g            00003816NNCassar†         00000729420160502002020462423107795373010123000110SNN00
4772413ALFACORT                                    1% emuls.x 100 ml       00015007NNCassar†         00001583320160502002020462423207795373010161000130SNN00
4772411ALFACORT                                    1% emuls.x 15 ml        00001787NNCassar†         00000514620160502002020462646207795373013230000110SNN00
2875913ALFACORT                                    ung.estÇril x 5 g       00000000NNCassar†         00001770120160502002000465070407795373011342000110SNN00
2875912ALFACORT UNIDOSIS                           env.x 20 unidosis       00004097NNCassar†         00001202120160502002020462512607795373010291002010SNN00
9938250ANAGEN 5%                                   loc.capilar x 100 ml    00000000NNCassar†         00001598020160502001000463825007795373010062000110NNN00
5332552ATOPIX                                      comp.rec.x 20           00007262NNCassar†         00000884520160502002020463689807795373010246002010SNN00
5332682ATOPIX                                      gts.x 20 ml             00002868NNCassar†         00000702220160502002020463718007795373010253000110SNN00
5257547BETACORT CASSARA                            gts.x 30 ml             00003219NNCassar†         00000901420160502002000465123107795373000322000110SNN00
6193394BETACORT PLUS CASSARA                       cr.dÇrmica x 25 g       00000000NNCassar†         00001014020160502002020464905007795373013148000120SNN00
5579133BUTOCORT HFA                                aer.x 250 dosis         00000000NNCassar†         00001086120160502002060463985807795373022126025010SNN00
4836522CLAMOXOL DUO                                comp.rec.x 14           00011771NNCassar†         00001977520160502003080464204207795373010727001430SNN00
5051562CLIDAN                                      gel dÇrm.x 15 g         00002020NNCassar†         00000572220160502002080463663207795373012646000110SNN00
5081282CLIDAN B                                    gel x 30 g              00000000NNCassar†         00001119120160502002020463920507795373011267000111SNN00
4608161DERMASEB                                    loc.dermica gelif.x 30 g00000000NNCassar†         00001682420160502002000465186207795373010352000110NNN00
4166452EPOGEN                                      2000 UI f.a.x 1 x 1 ml  00000000NNCassar†         00000968920160502002000463475707795373023789000110NNN00
5752971EPOGEN                                      4000 UI f.a.x 1 x 1 ml  00000000NNCassar†         00001957020160502002000464445707795373023901000110NNN00
4649832ERIMICIN                                    loc.topica derm. x 30 g 00000000NNCassar†         00002010120160502002000465186307795373010512000110NNN00
6339396ERISOL                                      4% gel x 30 g           00007959NNCassar†         00001728520160502002000465169807795373013650000110SNN00
0195482ESODAR                                      susp.est.x 10 ml        00000000NNCassar†         00000655420160502002020460202907795373010475000110SNN00
4029336EUMICEL COLAGENO                            2% shamp.x 120 ml       00007420NNCassar†         00001559620160502002020465094807795373011816000110SNN00
6284973FLUCODERM                                   150 mg comp.ran.x 4     00010079NNCassar†         00002482920160502002020465051707795373011168000430SNN00
5972424FLUTICORT                                   125 mcg aer.HFA x 120ds.00016960NNCassar†         00003052320160502002060464672607795373014046012010SNN00
5972554FLUTICORT                                   250 mcg aer.HFA x 120ds.00017541NNCassar†         00003562820160502002060464672707795373014053012010SNN00
5210311FLUTICORT                                   50 mcg spray nasalx60ds.00004200NNCassar†         00001020020160502002060464563607795373017627006010SNN00
6041974FLUTIVENT HFA                               125/25 mcg dosis x 120  00018020NNCassar†         00003341120160502002080464816907795373015159012030SNN00
6041971FLUTIVENT HFA                               125/25 mcg dosis x 60   00008416NNCassar†         00001869720160502002080464815607795373014718006010SNN00
6042004FLUTIVENT HFA                               250/25 mcg dosis x 120  00018253NNCassar†         00003809520160502002080464796807795373015166012030SNN00
6042001FLUTIVENT HFA                               250/25 mcg dosis x 60   00009127NNCassar†         00001989420160502002080464768007795373014725006010SNN00
6090135FLUTIVENT+AEROMED HFA                       125/25mcg ds.x150+espac.00016818NNCassar†         00003825120160502002080464868107795373013155015010SNN00
9933299FOTOSOL                                     emuls.x 50 g            00000000NNCassar†         00000616920160502001100463329907795373014367000110NNN00
9940985FOTOSOL ULTRA 50                            cr.x 50 g               00000000NNCassar†         00001462920160502001100464098507795373030459000110NNN00
9950926FOTOSOL ULTRA 50+                           cr.x 50 g               00000000NNCassar†         00001800520160502001100465092607795373030510000110NNN00
9939340FOTOSOL ULTRA AUTOBRONCEANTE                emuls.x 100 g           00000000NNCassar†         00001723720160502001000463934007795373030442000110NNN00
9951441FOTOSOL ULTRA CASSARA                       cr.x 30 g               00000000NNCassar†         00001038120160502001100465144107795373030411000110NNN00
9951442FOTOSOL ULTRA CASSARA                       emuls.x 100 g           00000000NNCassar†         00001880520160502001100465144207795373030428000110NNN00
9949393FOTOSOL ULTRA SPRAY                         aer.(spray) x 80ml/70g  00000000NNCassar†         00002328520160502001100464939307795373001886000110NNN00
9951002FOTOSOL ULTRA SPRAY                         spray X 150 ml          00000000NNCassar†         00003029420160502001100465100207795373030497000110NNN00
4913401FUSIMED                                     2% cr.x 15 g            00000000NNCassar†         00000784420160502002080462610607795373013797000110SNN00
4228582FUSIMED B                                   emuls.x 50 g            00000000NNCassar†         00001467220160502002020462306407795373013780000110SNN00
4228581FUSIMED B OTONASAL                          emuls.x 15 g            00000000NNCassar†         00000958120160502002020462436207795373013773000110SNN00
5888392GASTROCALM                                  gts.x 20 ml             00000000NNCassar†         00000490020160502002000464485707795373011304000110SNN00
4863171HYPERSOL                                    3% spray nasal x 25 ml  00000000NNCassar†         00000879920160502002020462823307795373011830000110SNN00
4863172HYPERSOL                                    3% spray nasal x 45 ml  00000000NNCassar†         00001388320160502002000464667007795373030633000150SNN00
4877951HYPERSOL B 100                              spray nasal x 100 dosis 00005300NNCassar†         00001157320160502002060462869807795373011700010010SNN00
4877873HYPERSOL B 50                               spray nasal x 200 dosis 00007222NNCassar†         00001101920160502002060462869707795373011755020010SNN00
6115392HYPERSOL GOTAS                              sol.hipertonica x 7.5ml 00000000NNCassar†         00000881420160502002000464817007795373012226000110SNN00
6183396HYPERSOL NEBU                               sol.neb.unids.estÇr.x 1200000000NNCassar†         00002167220160502002020464882107795373011106001210SNN00
9947368HYPERSOL SOLUCION                           3%sol.esterilx12mds.x5ml00000000NNCassar†         00001845420160502001000464736807795373015111001210NNN00
4863173HYPERSOL UNIDOSIS                           unidosis estÇriles x 25 00000000NNCassar†         00000756420160502002020462964007795373011892002510SNN00
5684551IBUSOL                                      gts. x 20 ml            00000000NNCassar†         00000350220160502002000464165807795373015791000110SNN00
4645033ITRAC 100                                   caps.x 15               00013780SNCassar†         00001880120160502002020463180607795373015913001510SNN00
6022265ITRAC 200                                   caps.x 14               00030070SNCassar†         00004184520160502002020464625707795373001800001410SNN00
5167741KERATOPIC 40                                cr.x 15 g               00000000NNCassar†         00000659620160502002000463539807795373019300000110SNN00
3711042LICEND                                      0.5% locion x 60 g.     00000000NNCassar†         00001430520160502002020465038807795373013209000110SNN00
4895011METRAL                                      1% cr.x 30 g            00006678NNCassar†         00001005420160502002020463835707795373010888000110SNN00
5080732MICOSEP                                     cr.dÇrm.x 30 g          00000000NNCassar†         00000514820160502002020463242407795373015616000110SNN00
5080891MICOSEP                                     pasta dÇrm.x 30 g       00000000NNCassar†         00000514520160502002020463242507795373015630000110SNN00
5081071MICOSEP                                     polvo x 30 g            00000000NNCassar†         00000784520160502002000464134307795373010970000110SNN00
5091834MICOSEP B NF                                cr.dÇrm.x 30 g          00000000NNCassar†         00000717620160502002000465172707795373022553000110SNN00
5081122MICOSEP DEO                                 aer.x 110 g             00000000NNCassar†         00000991720160502002000463180807795373015593000110SNN00
5701421MODULCASS                                   5% cr.derm.x 3 g        00000000NNCassar†         00001609220160502002020464228807795373017795000110NNN00
6259973NASITRAL                                    spray nas.estÇril x 10ml00000000NNCassar†         00001443420160502001020465068007795373015210000110NNN00
5102001NEOQUIN                                     gel x 40 g              00000000NNCassar†         00000982220160502002000463264307795373015838000110SNN00
4017371NEOQUIN FORTE                               cr.x 20 g               00000000NNCassar†         00001239420160502002000464648107795373012967000110SNN00
4204062NEOTRETIN D                                 0.005% cr.x 30 g        00000000NNCassar†         00000929420160502002020462625207795373012929000110SNN00
4204222NEOTRETIN F                                 0.050% cr.x 30 g        00000000NNCassar†         00001132620160502002020462625407795373012943000110SNN00
4204142NEOTRETIN M                                 0.025% cr.x 30 g        00000000NNCassar†         00001028220160502002020462625307795373012936000110SNN00
6079396NEUMOCORT + AEROMED                         200 mcg HFA aer.x 200ds.00009945NNCassar†         00002119720160502002060464735807795373022362020010SNN00
4457771NEUMOCORT BOR                               200 mcg aer.+aerom.x60ds00008414NNCassar†         00001071920160502002000464779207795373014831006010SNN00
5962682NEUMOCORT HFA                               200 mcg aer.x 200 dosis 00013250NNCassar†         00001475020160502002060464593507795373012912020010SNN00
6274715NEUMOCORT PLUS                              aer./inhal.x 150 ds.    00025216NNCassar†         00004679820160502002080465008407795373024458015030SNN00
5606421NIUX                                        spray nasal x 200 ds.   00000000NNCassar†         00003498920160502002020464023507795373015203020010NNN00
6128843OILSOR                                      Champu x 100 ml         00008174NNCassar†         00001655620160502002100464930107795373030688000110SNN00
3815412OTOCLEAN GOTAS OTICAS                       gts.¢ticas x 10 ml      00000000NNCassar†         00000497920160502002020462122907795373012103000110SNN00
4502551OTOFLOX                                     gts.¢ticas x 10 ml      00000000NNCassar†         00001054420160502002080462248707795373011472000110SNN00
5368001OXILER D                                    spray x 10 ml           00004128NNCassar†         00001020420160502002020464378807795373010840000110SNN00
6309979PLUSCAL MOUSSE VAINILLA                     Aerosol x 240 gr/215 ml 00000000NNCassar†         00001470820160502001000465190407795373003880000110NNN00
9944101PLUSCAL mousse                              emuls.x 40 dosis        00006484NNCassar†         000012675201605020010A0464410107795373000384000110NNN00
5152461PODOXIN                                     gel x 5 g               00000000NNCassar†         00001958420160502002000465185107795373011687000110SNN00
4211231PODOXIN                                     sol.t¢pica x 3.5 ml     00000000NNCassar†         00001419120160502002020461864007795373011427000110SNN00
6268421RECUPEL                                     comp.x 60               00000000NNCassar†         00004145720160502001020465001007798011652976006010SNN00
4457696RINO-B 100                                  aerosol x 100 dosis     00005300NNCassar†         00001390020160502002060463640007795373011557010010SNN00
4457431RINO-B 50                                   aerosol x 200 dosis     00007222NNCassar†         00001390020160502002060462248807795373011519020010SNN00
4457511RINO-B NEBU CON DILUYENTE                   gts.p/nebulizar x 20 ml 00008480NNCassar†         00001852420160502002000464917007795373011151000110SNN00
4022302RINOGEL                                     gel nasal x 15 ml       00000000NNCassar†         00000743920160502002020461253607795373011502000110SNN00
5467394SALBUTRAL                                   aer.x 250 dosis         00004638NNCassar†         00000899220160502002060464549607795373012288025010SNN00
4863333SALBUTRAL AC                                sol.p/neb.unid.x24x2.5ml00000000NNCassar†         00001077220160502002080463847407795373022058002410NNN00
6215429SALBUTRAL AC HFA                            aer.x 250 dosis         00000000NNCassar†         00001801720160502002080464915907795373015135025010SNN00
4016624SALBUTRAL C/AEROMED                         aer.HFA x 250 dosis     00005809NNCassar†         00001543020160502002060464714107795373030671025010SNN00
4570792SINALER                                     10 mg comp.x 20         00002747NNCassar†         00000571420160502002000462422907795373012158002030SNN00
4594972SINALER B                                   comp.x 20               00000000NNCassar†         00000937920160502002020462423007795373012165002010SNN00
4595043SINALER B                                   jbe.x 50 ml             00000000NNCassar†         00000494120160502002020463450607795373016156000110SNN00
2276542SINALER D                                   caps.x 10               00000000NNCassar†         00001365420160502002020464204307795373017009001010SNN00
5971133SUAVICORT                                   cr.x 20 g               00004745NNCassar†         00001636220160502002020465100307795373001909000130SNN00
5971266SUAVICORT                                   spray nasal x 150 ds.   00019024NNCassar†         00003271820160502002020465092507795373001831015030SNN00
0194231SUMMAVAC M                                  iny.a.x 8               00000000NNCassar†         00003804620160502002020460207207795373012233000811SNN00
0197961SUMMAVAC P                                  iny.a.x 8               00000000NNCassar†         00004029020160502002020460207307795373012271000811SNN00
5078963SUMMAVAC R                                  comp.x 12               00000000NNCassar†         00005396620160502002020464980607795373012844001210SNN00
9931809TRICOMAX                                    caps.x 30               00000000NNCassar†         00001866520160502001000463180907795373012349003010NNN00
9940935TRICOMAX                                    loci¢n folicular x 30 ml00000000NNCassar†         00002540020160502001000464093507795373019522000110NNN00
9940474TRICOMAX 2                                  caps.x 90               00000000NNCassar†         00004090420160502001000464047407795373022454009010NNN00
6235393VIROSTATIC 800                              comp.x 20               00014249NNCassar†         00003506820160502001080464980507795373070691002010NNN00
5535261VITASOL F                                   fco.gotero x 30 ml      00000000NNCassar†         00000772520160502002000463892807798011653133000110SNN00
5167534XEROBASE                                    emuls.x 100 g           00000000NNCassar†         00000896320160502002000463825107795373019256000110NNN00
5167691XEROBASE 20                                 cr.x 30 g               00000000NNCassar†         00000631320160502002000463539707795373019287000110SNN00
4672926XYLISOL                                     spray lavaje nasalx100ml00000000NNCassar†         00002309220160502002000465162907795373016552000110SNN00
4672922XYLISOL                                     spray nasal x 25 ml     00000000NNCassar†         00001002720160502002020463795007795373016477000110SNN00
4938754ISLOTIN 1000                                comp.rec.x 30           00005854NNCraveri         00001901920160427002040565150507792234001085003020SNN00
4938755ISLOTIN 1000                                comp.rec.x 60           00011709NNCraveri         00003315620160427002040565150607792234001092006040SNN00
9944209ALERGITRAT L                                10 mg comp.x 10         00001373NNFecofar         00000289520160502001000924420907798006302022001010NNN00
9944210ALERGITRAT L                                10 mg comp.x 30         00004120NNFecofar         00000740920160502001000924421007798006302039003030NNN00
3754291AMOXICILINA FECOFAR                         250 mg jbe.x 60 ml      00002146NNFecofar         00000501120160502003080921415607798006300929000110SNN00
3754031AMOXICILINA FECOFAR                         500 mg comp.x 8         00001545NNFecofar         00000326520160502003080921415407798006300936000810SNN00
3754372AMOXICILINA FECOFAR                         500 mg jbe.x 90 ml      00003588NNFecofar         00000911320160502003080921558807798006300974000120SNN00
0569200BIDEON FREE                                 sol.x 10 ml             00000000NNFecofar         00000671920160502001000924223907798006300240000110NNN00
9942904BRANZOL                                     jbe.x 120 ml            00000000NNFecofar         00000682620160502001000924290407798006302091000110NNN00
5069532CEFALEXINA FECOFAR                          500 mg comp.x 16        00004909NNFecofar         00001241020160502003080923348807798006300424001630SNN00
5069811CEFALEXINA FECOFAR                          500 mg susp.x 60 ml     00004437NNFecofar         00001003320160502003080923348507798006300479000110SNN00
0283251FUNGOCOP                                    pvo.x 60 g              00000000NNFecofar         00000662720160502001000920354307798006300202000110NNN00
2106411FUROSEMIDA FECOFAR                          comp.x 30               00004770NNFecofar         00001143520160502002060920354607798006300233003010SNN00
5812681LIPOKEMIA 20                                20 mg comp.x 30         00021200NNFecofar         00005421920160502002060924474607798006302183003010SNN00
9918308URTIKALMA                                   loc.x 120 ml            00000000NNFecofar         00000784120160502001000921830807798006300592000110NNN00
9910344VASELINA LIQUIDA FECOFAR                    F.A.VI ed.x 125 ml      00000000NNFecofar         00000380620160502001100921034407798006301247000110NNN00
0791041ANGINETAS                                   grag.x 20               00000000NNFucus           0000075872016042900100101060370             002010NNN00
0791042ANGINETAS                                   grag.x 30               00000000NNFucus           00000870020160429001001010380107798024740141003030NNN00
9951982ANGINETAS CARAMELOS                         caram.x 9               00000000NNFucus           00000530020160429001001015198207798024740028000910NNN00
1150732CAZMAR                                      cr.x 100 g              00000000NNFucus           00001150020160429001001010503507798024740172000130NNN00
1150731CAZMAR                                      cr.x 50 g               00000000NNFucus           00000770020160429001001010380907798024740165000110NNN00
0177582DENTOLINA FUCUS                             sol.x 10 ml             00000000NNFucus           00000870020160429001001010381107798024740035000130NNN00
0177581DENTOLINA FUCUS                             sol.x 5 ml              00000000NNFucus           0000063552016042900100101052350             000110NNN00
9930274FRUCTINES                                   comp.x 12               00000000NNFucus           0000032682016042900100101302740             001210NNN00
9930275FRUCTINES                                   comp.x 24               00000000NNFucus           0000062632016042900100101302750             002420NNN00
1151803FRUCTINES                                   comp.x 30               00000000NNFucus           00000750020160429001001010381207798024740202003050NNN00
0054562INHALANTE FUCUS                             sol.x 100 ml            00000000NNFucus           0000081332016042900100101052660             000120NNN00
0054563INHALANTE FUCUS                             sol.x 120 ml            00000000NNFucus           00000890020160429001001010381307798024740066000150NNN00
0054561INHALANTE FUCUS                             sol.x 55 ml             00000000NNFucus           0000059182016042900100101052620             000110NNN00
0050763SELLOS FUCUS                                env.x 12                00000000NNFucus           00000684120160429001001010381607798024740110001250NNN00
0050761SELLOS FUCUS                                env.x 2                 00000000NNFucus           00000121420160429001001010381400000077992192000210NNN00
0050764SELLOS FUCUS                                env.x 24                00000000NNFucus           00001173820160429001001010381707798024740127002440NNN00
0050762SELLOS FUCUS                                env.x 6                 00000000NNFucus           00000357120160429001001010381500000077992208000620NNN00
5593681ADVATE                                      1000 UI fco.amp.liof.x 100000000NNBaxter Argentina00576230120160501012001223978105413760309675000110NNN00
5593711ADVATE                                      1500 UI fco.amp.liof.x 100000000NNBaxter Argentina00864345220160501012001224285405413760313191000110NNN00
5593421ADVATE                                      250 UI fco.amp.liof.x 1 00000000NNBaxter Argentina00144057620160501012001223977905413760309651000110NNN00
5593551ADVATE                                      500 UI fco.amp.liof.x 1 00000000NNBaxter Argentina00288115120160501012001223978005413760309668000110NNN00
5919000ARALAST NP                                  1g f.a.liof.+disol.x50ml00000000NNBaxter Argentina00300214720160501002001224503103094428020204000110NNN00
2511249FEIBA TIM 4                                 1000 UI f.a.x 1 +solv.  00000000NNBaxter Argentina00464884720160501012001222089009002864058822000110NNN00
4270561HEMOFIL M                                   1000 UI env.x 1         00000000NNBaxter Argentina00287569020160501012001222180007797545000451000110NNN00
4270301HEMOFIL M                                   250 UI env.x 1          00000000NNBaxter Argentina00071892720160501012001222179807797545000437000110NNN00
4270481HEMOFIL M                                   500 UI env.x 1          00000000NNBaxter Argentina00143785620160501012001222179907797545000444000110NNN00
4749662IMMUNATE                                    1000 UI liof.f.a.x 1    00000000NNBaxter Argentina00261427320160501012001222089305413760255323000110NNN00
4749402IMMUNATE                                    250 UI liof.f.a.x 1     00000000NNBaxter Argentina00065356320160501012001222089105413760255309000110NNN00
4749582IMMUNATE                                    500 UI liof.f.a.x 1     00000000NNBaxter Argentina00130712520160501012001222089205413760255316000110NNN00
3660061IMMUNINE                                    1200 UI f.a.x 1         00000000NNBaxter Argentina00241671220160501012001222090309002864059911000110NNN00
3659911IMMUNINE                                    600 UI f.a.x 1          00000000NNBaxter Argentina00120835720160501012001222090209002864059607000110NNN00
5701971KIOVIG                                      10 g f.a.x 1 x 100 ml   00000000NNBaxter Argentina004647423201605010120A1224167505413760303468000111NNN00
5701711KIOVIG                                      2.5 g f.a.x 1 x 25 ml   00000000NNBaxter Argentina001161861201605010120A1224167305413760303697000111NNN00
5702001KIOVIG                                      20 g f.a.x 1 x 200 ml   00000000NNBaxter Argentina009294847201605010120A1224167605413760303475000111NNN00
5701841KIOVIG                                      5 g f.a.x 1 x 50 ml     00000000NNBaxter Argentina002323701201605010120A1224167405413760303451000111NNN00
2687816PROTROMPLEX TOTAL TIM 4                     600 UI f.a.             00000000NNBaxter Argentina00051956120160501012001221178605413760014227000110NNN00
5078752DERMEXANE                                   cr.x 30 g               00004346NNLersan          00000727920160502002021413180407795373010376000110SNN00
5849684DERMEXANE                                   espuma x 60 g           00007684NNLersan          00001954520160502002021414444207795373000407000110SNN00
5078802DERMEXANE                                   ung.x 30 g              00004346NNLersan          00000660620160502002021413180507795373010390000110SNN00
5777711DERMEXANE CAPILAR                           loc.x 30 ml             00004346NNLersan          00000786920160502002021414296807795373000377000110NNN00
4885872MICOPIROX                                   cr.x 30 g               00000000NNLersan          00000696320160502002021412823507795373013322000110SNN00
4885953MICOPIROX                                   loc.x 50 ml             00000000NNLersan          00000785320160502002021412823407795373013339000110NNN00
5399714MICOPIROX                                   shamp.x 100 ml          00000000NNLersan          00001081620160502002021413728607795373013346000110SNN00
5005392MICOPIROX LACA                              laca x 5 ml             00000000NNLersan          00001582520160502002021413180707795373011038000110SNN00
4691991OTEX HC                                     gts.¢ticas x 5 ml       00000000NNLersan          00000593420160502002001412646307795373011366000110SNN00
4584812SUAVILER                                    sol.oft.x 10 ml         00000000NNLersan          00000540020160502002001414057007795333007675000110SNN00
5345261TOBRALER                                    sol.oft.x 5 ml          00003369NNLersan          00000540020160502002001414057107795333007682000110SNN00
9951008VERRUPLANT                                  fco.x 8 ml              00000000NNLersan          00001650620160502001001415100807795333000102000110NNN00
5586841STEROGYL                                    f.a.beb.x 2 ml          00011290NNSpedrog Caillon 00002480520160502002022223958507795366453142000110SNN00
5867554STEROGYL 400                                sol.oral x 10 ml        00009659NNSpedrog Caillon 00002046120160502002022224432607795366000209000110SNN00
6371132MISOFAGAN                                   200 mg comp.x 360       00000000NNTuteur          01076400120160428003002875239207793397090299036030NNN00
9951929365 UP                                      comp.x 32               00000000NNDel Bel         00000849020160502011102905192907794561319468003210NNN00
9927642BRONSUAL                                    comp.x 24               00000000NNDel Bel         00001499020160502001002902764207794561000152002410NNN00
9949580BRONSUAL PREMIUN PACK                       comp.x 32+ cr.acel.x 50g00000000NNDel Bel         00001999020160502001002904958007794561219461000210NNN00
9938708SUAL ADELGAZANTE                            comp.x 32               00000000NNDel Bel         0000139902016050200100290387080             003210NNN00
9949847SUAL DUAL EFFECT                            pack comp.x 40+cr.x 50 g00000000NNDel Bel         00001899020160502001002904984707794561119464000210NNN00
9951928ZHENG XUAL                                  comp.x 8                00000000NNDel Bel         00001649020160502001102905192807794561419465000810NNN00
9948174COLGATE CEPILLOS DENTALES                   360ß lum. white mediox 100000000NNColgate         00000857020160502001104114817407509546055121000110NNN00
9939637COLGATE CEPILLOS DENTALES                   360ß medio cab.normal x100000000NNColgate         00000599020160502001104113963707891024316160000110NNN00
9941991COLGATE CEPILLOS DENTALES                   360ß sensitive x 1      00000000NNColgate         00000599020160502001104114199107702010130342000110NNN00
9939638COLGATE CEPILLOS DENTALES                   360ß suave cab.compac.x100000000NNColgate         00000599020160502001104113963807891024316184000110NNN00
9940031COLGATE CEPILLOS DENTALES                   Extra Clean mediano x 1 00000000NNColgate         00000226020160502001104114003105900273001566000110NNN00
9941993COLGATE CEPILLOS DENTALES                   Max Fresh medio x 1     00000000NNColgate         00000510020160502001104114199307509546031873000110NNN00
9930059COLGATE CEPILLOS DENTALES                   Navigator mediano       00000000NNColgate         00000387020160502001104113005907702010363986000110NNN00
9940029COLGATE CEPILLOS DENTALES                   Smiles +5 a§os x 1      00000000NNColgate         00000342020160502011104114002907591083011104000110NNN00
9919012COLGATE CEPILLOS DENTALES                   Smiles 0-2 a§os x 1     00000000NNColgate         00000342020160502011104111901207591083011081000110NNN00
9940028COLGATE CEPILLOS DENTALES                   Smiles 2-5 a§os x 1     00000000NNColgate         00000347020160502011104114002807591083011098000110NNN00
9930065COLGATE CEPILLOS DENTALES                   Twister Fresh medio     00000000NNColgate         00000283020160502001104113006500000078902114000110NNN00
9919009COLGATE CREMA DENTAL HERBAL                 Blanqueadora env. x 90 g00000000NNColgate         00000221020160502001104111900907891024133668000110NNN00
9948177COLGATE CREMA DENTAL LUMINOUS WHITE         Env.x 90 g              00000000NNColgate         00000508020160502011104114817707891024123027000110NNN00
9943854COLGATE CREMA DENTAL MAX FRESH              M.Fr.noche x 100 g      00000000NNColgate         00000388020160502011104114385407509546039145000110NNN00
9940960COLGATE CREMA DENTAL MAX WHITE              Crystal Mint x 90 g     00000000NNColgate         00000388020160502001104114096007891024123201000110NNN00
9928474COLGATE CREMA DENTAL SENSITIVE              Blanqueadora env.x 100 g00000000NNColgate         00000739020160502011104112847407891024134429000110NNN00
9939683COLGATE CREMA DENTAL SENSITIVE              Original env.x 100 g    00000000NNColgate         00000739020160502011104113968307891024134405000110NNN00
9944807COLGATE CREMA DENTAL SENSITIVE PRO ALIVIO   cr.x 50 g               00000000NNColgate         00000459020160502011104114480707891024123577000110NNN00
9948206COLGATE CREMA DENTAL TOTAL 12               Professio.enc.salud.x70g00000000NNColgate         00000504020160502011104114820607891024139325000110NNN00
9930026COLGATE CREMA DENTAL TRIPLE ACCION          env.x 180 g             00000000NNColgate         00000495020160502001104113002607793100111471000130NNN00
9930027COLGATE CREMA DENTAL TRIPLE ACCION          env.x 90 g              00000000NNColgate         00000261020160502001104113002707793100111464000110NNN00
9921679COLGATE CREMA DENTAL ULTRA                  Blanco env.x 90 g       00000000NNColgate         00000295020160502011104112167907891024137802000110NNN00
9918392COLGATE ENJUAGUE BUCAL PLAX                 Clasico env.x250ml      00000000NNColgate         00000569020160502001104111839207891024130100000110NNN00
9918393COLGATE ENJUAGUE BUCAL PLAX                 Clasico env.x500ml      00000000NNColgate         00000877020160502001104111839307891024130407000130NNN00
9943855COLGATE ENJUAGUE BUCAL PLAX                 Complete Care env.x250ml00000000NNColgate         00000669020160502001104114385507891024136614000110NNN00
9943856COLGATE ENJUAGUE BUCAL PLAX                 Complete Care env.x500ml00000000NNColgate         00001041020160502001104114385607891024136621000130NNN00
9918394COLGATE ENJUAGUE BUCAL PLAX                 Fresh Mint env.x250ml   00000000NNColgate         00000569020160502001104111839407891024130308000110NNN00
9918395COLGATE ENJUAGUE BUCAL PLAX                 Fresh Mint env.x500ml   00000000NNColgate         00000877020160502001104111839507891024130605000130NNN00
9941994COLGATE ENJUAGUE BUCAL PLAX                 Ice env.x 250 ml        00000000NNColgate         00000669020160502001104114199407891024136096000110NNN00
9943862COLGATE ENJUAGUE BUCAL PLAX                 Ice env.x 500 ml        00000000NNColgate         00001041020160502001104114386207891024136102000130NNN00
9939660COLGATE ENJUAGUE BUCAL PLAX                 Kids env.x 250 ml       00000000NNColgate         00000569020160502001104113966007891024136201000110NNN00
9948176COLGATE ENJUAGUE BUCAL PLAX                 Luminous whit env.x250ml00000000NNColgate         00000669020160502011104114817607891024179420000110NNN00
9948175COLGATE ENJUAGUE BUCAL PLAX                 Luminous whit env.x500ml00000000NNColgate         00001041020160502011104114817507891024179437000130NNN00
9944890COLGATE ENJUAGUE BUCAL PLAX                 Sensitive env.x 250 ml  00000000NNColgate         00000569020160502001104114489007891024136591000110NNN00
9943231COLGATE ENJUAGUE BUCAL PLAX                 Whitening x 250 ml      00000000NNColgate         00000669020160502001104114323107891024136369000110NNN00
9943232COLGATE ENJUAGUE BUCAL PLAX                 Whitening x 500 ml      00000000NNColgate         00001041020160502001104114323207891024136386000130NNN00
9930030COLGATE GEL DENTAL JUNIOR                   Barbie/Shrek env.x 90 g 00000000NNColgate         00000296020160502001104113003007891024133132000110NNN00
9930029COLGATE GEL DENTAL JUNIOR                   Bob Esponja env.x 90 g  00000000NNColgate         00000296020160502001104113002907891024133149000110NNN00
9919050COLGATE HILO DENTAL                         Hilo dental x 50 m 2X1  00000000NNColgate         00000331020160502001104111905007891024183014000110NNN00
9941995COLGATE HILO DENTAL TOTAL                   Fluor y Menta x 25 m    00000000NNColgate         00000375020160502001104114199507891024183236002510NNN00
9930064COLGATE HILO DENTAL TOTAL                   Hilo dental x 25 m      00000000NNColgate         00000375020160502001104113006407891024183205002510NNN00
9939663KOLYNOS CEPILLOS DENTALES DOCTOR            Medio 2 x 1             00000000NNColgate         00000285020160502001104113966307891528091716000210NNN00
9930047NOC 10 CREMA DENTAL                         env.x 50 g              00000000NNColgate         00000329020160502001104113004707793100089008000130NNN00
9930044ODOL 2 CREMA DENTAL                         env.x 90 g              00000000NNColgate         00000187020160502001104113004407793100130052000110NNN00
9943863ODOLITO CREMA DENTAL                        env.x 50 g              00000000NNColgate         00000143120160502001104114386307891024139165000110NNN00
9935497PALMOLIVE JABON LIQ.CORPORAL AROMATERAPIA   Energ°a env.x 250ml     00000000NNColgate         00000371020160502011104113549707891024117958000110NNN00
9935560PALMOLIVE JABON LIQ.CORPORAL AROMATERAPIA   Relax env.x250ml        00000000NNColgate         00000371020160502011104113556007891024117903000110NNN00
9939665PALMOLIVE JABON LIQ.CORPORAL NATURALS       Leche y Miel x 250 ml   00000000NNColgate         00000371020160502001104113966507891024178799000110NNN00
9928837PALMOLIVE JABON LIQ.P/MANOS AROMATERAPIA    Energ°a env.x221ml      00000000NNColgate         00000454020160502011104112883707509546006932000110NNN00
9935556PALMOLIVE JABON LIQ.P/MANOS AROMATERAPIA    Relax env.x221ml        00000000NNColgate         00000454020160502011104113555607509546006956000110NNN00
9945069PROTEX JABON ANTIBACTERIANO                 Aloe x 3 x 90 g         00000000NNColgate         00000392020160502001104114506907891024113639000310NNN00
6365681OMEFORT                                     40 mg caps.x 28         00026500NNEczane          00004820120160502002024784974407797416000474002810NNN00
6365682OMEFORT                                     40 mg caps.x 56         00000000NNEczane          00008677620160502002024785170507797416000863005630SNN00
0527389IPRASALB                                    sol.monods. x 20        00000000NNValmax          00000891020160420002085335235407794863000125002010NNN00
9949265AEROPIEL                                    spray x 170 g           00000000NNBiosintex-Ofar  00002070020160502002006254926507794207000729000110NNN00
0192832ANTIBIOCORT                                 gts.oft.x 10 ml         00000000NNBiosintex-Ofar  00001270020160502002086251648707797416000095000110SNN00
4775221ATIGLAUC                                    0.5% gts.oft.x 10 ml    00004841NNBiosintex-Ofar  00000860020160502002066253348907794207000248000110SNN00
0535455BIOCORT                                     fco.gotero x 5 ml       00004014NNBiosintex-Ofar  00001090020160502002026253691807794207000491000110SNN00
0541482CARAMELOS ANTIBIOTICOS LEFMAR               blçster caram.x 9       00000000NNBiosintex-Ofar  00000590020160502002006255002507794207000767000910SNN00
6244391DIPIFEBRAL                                  jbe.x 100 ml            00002604NNBiosintex-Ofar  00000585020160502002006254971607794207000699000110SNN00
6244392DIPIFEBRAL                                  jbe.x 200 ml            00004177NNBiosintex-Ofar  00000855020160502002006254971707794207000705000130SNN00
0567013FORZAK                                      50 mg comp.mast.x 2     00000000NNBiosintex-Ofar  00000415020160502A03006254188907794207083876000210NNN00
5670132FORZAK                                      50 mg comp.mast.x 4     00000000NNBiosintex-Ofar  00000750020160502A03006254595707794207000019000430NNN00
9951466GRAMICIN                                    5 hierbas MyL caram.x 1000000000NNBiosintex-Ofar  00000490020160502001006255146607794207000903001010NNN00
9949264GRAMICIN                                    caram.x 10 u.           00000000NNBiosintex-Ofar  00000490020160502001006254926407794207000712001010NNN00
9948172IBULGIA 2%                                  Tutti Frutti susp.x 90ml00002438NNBiosintex-Ofar  00000585020160502001006254817207794207000026000110NNN00
9943813IBULGIA 2%                                  susp.x 120 ml           00003204NNBiosintex-Ofar  00000625020160502001006254381307794207000606000130NNN00
9947259IBULGIA 2%                                  susp.x 90 ml            00002438NNBiosintex-Ofar  00000585020160502001006254725907794207000071000110NNN00
0598068IBULGIA 4%                                  susp.x 90 ml            00004190NNBiosintex-Ofar  00000850020160502002006254550907794207083975000110SNN00
9914147IRRICUTAN                                   loc.x 100/120 ml        00000000NNBiosintex-Ofar  00000800020160502001006251414707794207000330000110NNN00
9950591IRRICUTAN INCOLORO                          loc.x 100 ml            00000000NNBiosintex-Ofar  00000800020160502001006255059107794207000743000110NNN00
0392340KETOLEF                                     2% cr.x 15 g            00004647NNBiosintex-Ofar  00000740020160502002026253741907794207000484000110SNN00
9951938LABIODERM                                   5% cr.x 10 g            00003104NNBiosintex-Ofar  00000605020160502002006255193807794207000934000110SNN00
9938369LACRIGESTINA                                sol.oft.x 15 ml         00005312NNBiosintex-Ofar  00001080020160502001006253836907794207000552000110NNN00
9940430MATER DUO TEST                              test x 2                00000000NNBiosintex-Ofar  00000815020160502001106254043007794207004000000110NNN00
9920909MATER TEST                                  test x 1                00000000NNBiosintex-Ofar  00000630020160502001106252090907794207000149000110NNN00
9947961MATER TEST LAPICERA                         test x 1 formato lapic. 00000000NNBiosintex-Ofar  00000750020160502001106254796107794207000187000110NNN00
9933144MIDERMUS CALENDULA                          cr.x 70 g               00000000NNBiosintex-Ofar  00000780020160502001106253314407794207000323000110NNN00
9950593MIDERMUS CELULITIS CONTROL                  env.x 250 g             00000000NNBiosintex-Ofar  00001030020160502001106255059307794207000798000110NNN00
9936919MIDERMUS GEL POST SOLAR                     gel x 220g c/valv.dosif.00000000NNBiosintex-Ofar  00000930020160502001106253691907794207000514000110NNN00
9942413MIDERMUS HYDRANT DIA                        cr.fac.hidrat.dia x 50 g00000000NNBiosintex-Ofar  00001135020160502001106254241307794207083937000110NNN00
9942412MIDERMUS HYDRANT NOCHE                      cr.fac.hidrat.noche x50g00000000NNBiosintex-Ofar  00001135020160502001106254241207794207083920000110NNN00
9945506MIDERMUS LECHE DE LIMPIEZA                  env.x 200 ml            00000000NNBiosintex-Ofar  00000885020160502001106254550607794207000620000110NNN00
9950592MIDERMUS PIERNAS LIVIANAS                   env.x 250 g             00000000NNBiosintex-Ofar  00000950020160502001106255059207794207000781000110NNN00
9951846MIDERMUS SOL                                FPS30 UVA+ emul.x 150 g 00000000NNBiosintex-Ofar  00001270020160502001106255184607794207000385000110NNN00
9950588MIDERMUS SOL BEBES Y NINOS                  FPS50+UVA+ emul.x 150 g 00000000NNBiosintex-Ofar  00001815020160502001106255058807794207000835000110NNN00
9950589MIDERMUS SOL FPS50                          FPS50/UVA+ env.x 70 g   00000000NNBiosintex-Ofar  00001130020160502001106255058907794207000842000110NNN00
9922347MIDERMUS VITAMINA A                         cr.de orde§e fco.x 250 g00000000NNBiosintex-Ofar  00001250020160502001106252234707794207000347000110NNN00
9922346MIDERMUS VITAMINA A                         cr.de orde§e pomo x 100g00000000NNBiosintex-Ofar  00000780020160502001106252234607794207000361000110NNN00
9923619MIDERMUS VITAMINA A                         cr.de orde§e pomo x 170g00000000NNBiosintex-Ofar  00001010020160502001106252361907794207000354000130NNN00
0558039NAFAZOLEX                                   env.gotero x 20 ml      00000000NNBiosintex-Ofar  00000455020160502002026253953207794207003997000110SNN00
6260131NAFAZOLEX PLUS                              gts.x 20 ml             00000000NNBiosintex-Ofar  00000500020160502002006254971807794207000736000110SNN00
0748313OCUDIAFAN                                   colirio x 15 ml         00000000NNBiosintex-Ofar  00000915020160502002006251653707794207000507000110SNN00
4598271OFTALBRAX                                   gts.oft.x 5 ml          00003369NNBiosintex-Ofar  00000990020160502002026252394707794207000125000110SNN00
0596442OMAFLAXINA D                                susp.oft.estÇril x 5 ml 00005194NNBiosintex-Ofar  00000990020160502002026254550807794207000644000110SNN00
0554800OTOLEF HC                                   susp.¢tica x 5 ml       00000000NNBiosintex-Ofar  00000535020160502002026254065407794207000590000110SNN00
9941891PIRIGRIP                                    comp.rec.x 16           00000000NNBiosintex-Ofar  00000715020160502001006254189107794207083852001630NNN00
9941890PIRIGRIP                                    comp.rec.x 8            00000000NNBiosintex-Ofar  00000460020160502001006254189007794207083913000810NNN00
9937792PIRITOS                                     jbe.x 120 ml            00000000NNBiosintex-Ofar  00000770020160502001006253779207794207000545000110NNN00
9951939PIRITOS FORTE                               Jbe.x 120 ml            00000000NNBiosintex-Ofar  00000830020160502002006255193907794207000965000110SNN00
9947963POMADA HADENSA                              cr.x 15 g               00000000NNBiosintex-Ofar  00000700020160502001006254796307794207000057000110NNN00
9938899POVITIOL                                    10% sol.t¢pica x 60 ml  00000000NNBiosintex-Ofar  00000845020160502001006253889907794207000583000110NNN00
9951309POVITIOL                                    jab.liq.x 60 ml         00000000NNBiosintex-Ofar  00000820020160502001006255130907794207000927000110NNN00
9922649TILYP-LINEA DR.UZE                          peine fino met†lico x 1 00000000NNBiosintex-Ofar  00001030020160502001106252264907794207000101000110NNN00
0528125TRIBIOCORT                                  cr.x 20 g               00000000NNBiosintex-Ofar  00001020020160502002026253507407794207000316000110SNN00
9936301UZE ACTIVE-LINEA DR.UZE                     fco.x 100 ml            00000000NNBiosintex-Ofar  00000580020160502001006253630107794207000446000130NNN00
9935487UZE ACTIVE-LINEA DR.UZE                     sachet x 15 ml          00000000NNBiosintex-Ofar  00000085020160502001006253548707794207000477000110NNN00
9934210UZE ADVANCE-LINEA DR.UZE                    Frente Ataque Quitalien.00000000NNBiosintex-Ofar  00001850020160502001106253421007794207000378000110NNN00
9945507UZE KIT-LINEA DR.UZE                        bals.x 100 ml+peine fino00000000NNBiosintex-Ofar  00001480020160502001106254550707794207000637000110NNN00
9928032UZE MAX-LINEA DR.UZE                        peine acero inox.x 1    00000000NNBiosintex-Ofar  00001500020160502001106252803207794207000118000110NNN00
0507564VENOFER                                     a.x 5 x 5 ml            00027560NNBiosintex-Ofar  00010300020160502002006253152107794207000088000510SNN00
9947229VENZIDIAK                                   75 mg comp.rec.x 15     00004723NNBiosintex-Ofar  00000820020160502002006254722907794207083999001510SNN00
9951308VENZIDIAK FLEX                              comp.rec.x 10           00000000NNBiosintex-Ofar  00000800020160502002006255130807794207000897001010SNN00
9947964VENZIDIAK GEL                               gel x 50 g              00000000NNBiosintex-Ofar  00000875020160502001006254796407794207084019000110NNN00
9949366NUTRIBABY 1                                 lata x 400 g            00009724SNNova Argentia   000019577201604290071A6794936607798181640018000110NNN00
9949367NUTRIBABY 1                                 lata x 900 g            00016734SNNova Argentia   000036778201604290071A6794936707798181640025000130NNN00
9949368NUTRIBABY 1                                 sticks x 15 u x 15 g    00008077SNNova Argentia   000011515201604290071A6794936807798181640032001510NNN00
9949369NUTRIBABY 2                                 lata x 400 g            00004727SNNova Argentia   000015699201604290071A6794936907798181640063000110NNN00
9949370NUTRIBABY 2                                 lata x 900 g            00012266SNNova Argentia   000032968201604290071A6794937007798181640070000130NNN00
9949371NUTRIBABY 2                                 sticks x 15 u x 15 g    00004970SNNova Argentia   000009541201604290071A6794937107798181640087001510NNN00
9949372NUTRIBABY 3                                 lata x 900 g            00000000NNNova Argentia   000022310201604290071A6794937207798181640124000110NNN00
9949373NUTRIBABY 3                                 sticks x 15 u x 15 g    00000000NNNova Argentia   000007098201604290071A6794937307798181640131001510NNN00
9949374NUTRIBABY AR                                lata x 400 g            00011792SNNova Argentia   000023282201604290071A6794937407798181640162000110NNN00
9949375NUTRIBABY AR                                sticks x 15 u x 15 g    00008421SNNova Argentia   000013915201604290071A6794937507798181640186001510NNN00
9949376NUTRIBABY BIENESTAR                         lata x 400 g            00009724SNNova Argentia   000028401201604290071A6794937607798181640216000110NNN00
9949377NUTRIBABY BIENESTAR                         sticks x 15 x 15 g      00008077SNNova Argentia   000016985201604290071A6794937707798181640230001510SNN00
9949378NUTRIBABY BL                                lata x 400 g            00014879SNNova Argentia   000025877201604290071A6794937807798181640261000110SNN00
9949379NUTRIBABY BL                                sticks x 15 u x 15 g    00009139SNNova Argentia   000015248201604290071A6794937907798181640285001510SNN00
9949380NUTRIBABY PREMATUROS                        lata x 400 g            00016630SNNova Argentia   000027847201604290071A6794938007798181640315000110NNN00
9949381NUTRIBABY PREMATUROS                        sticks x 15 u x 15 g    00009962SNNova Argentia   000016303201604290071A6794938107798181640339001510NNN00
9949935NUTRIBIO                                    lata x 400 g            00014111SNNova Argentia   000018782201604290070A6794993507798181640414000110NNN00
9949934NUTRIBIO                                    sticks x 15             00000000NNNova Argentia   000016867201604290070A6794993407798181640438001510NNN00
9949932NUTRIBIO KIDS                               lata x 400 g            00014111SNNova Argentia   000017658201604290070A6794993207798181640360000110NNN00
9949933NUTRIBIO KIDS                               sticks x 15             00000000NNNova Argentia   000015277201604290070A6794993307798181640384001510NNN00
6229974MAXIVENT                                    aerosol.p/inhal.x120 ds.00044431NNSvensk Labb     00005396720160502002087914915807795373011120012010SNN00
9949350ACNEIQUE                                    crema-gel x 40 g        00000000NNCepage          00002750020160502001007944935007798182770042000110NNN00
9950663ACNEIQUE H2O                                locion x 210 ml         00000000NNCepage          00002850020160502001007945066307798182770073000110NNN00
9951665CEPAGE CHAMPU ANTICAIDA                     shamp.x 145 ml          00000000NNCepage          00002650020160502001107945166507798182770141000110NNN00
9951664CEPAGE CHAMPU CAPA G                        shamp.x 145 ml          00000000NNCepage          00002650020160502001107945166407798182770127000110NNN00
9951663CEPAGE CHAMPU CAPA S                        shamp.x 145 ml          00000000NNCepage          00002650020160502001107945166307798182770134000110NNN00
9951915CEPAGE CORPS                                cr.x 200 g              00000000NNCepage          00003350020160502001007945191507798182770165000110NNN00
9951307CEPAGE FPS 50+ COLOR                        cr.x 50 g               00000000NNCepage          00002990020160502001007945130707798182770110000110NNN00
9951823CEPAGE MAINS                                cr.x 50 g               00000000NNCepage          00001990020160502001007945182307798182770158000110NNN00
9949351CLARITE                                     crema x 30 ml           00000000NNCepage          00003990020160502001007944935107798182770059000110NNN00
9949352HYDRAFIRM AR                                serum x 30 ml           00000000NNCepage          00004640020160502001007944935207798182770028000110NNN00
9950761HYDRAFIRM CO                                crema x 15 g            00000000NNCepage          00003390020160502001007945076107798182770097000110NNN00
9950489HYDRAFIRM H2O                               loc.x 210 ml            00000000NNCepage          00002850020160502001007945048907798182770066000110NNN00
9949354TENSEUR                                     amp.monodosis x 8 x 3 ml00000000NNCepage          00005400020160502001107944935407798182770035000810NNN00
9950879TENSEUR ADN                                 serum x 15 ml           00000000NNCepage          00005100020160502001107945087907798182770080000110NNN00
6191972ENDEXIN 100                                 100 mg f.a.x 1          00000000NNEverex-Oriental 00255227720160501003008014884207793236000120000110NNN00
6191841ENDEXIN 25                                  25 mg f.a.x 1           00000000NNEverex-Oriental 00064458620160501003008014884007793236000113000110NNN00
0622155MIZARID                                     10 mg caps.x 21         00000000NNEverex-Oriental 01786494020160501003008015109207793236000137002110NNN00
0622168MIZARID                                     15 mg caps.x 21         00000000NNEverex-Oriental 01813025020160501003008015109307793236000144002110NNN00
0622171MIZARID                                     25 mg caps.x 21         00000000NNEverex-Oriental 01890052820160501003008015109407793236000151002110NNN00
0622142MIZARID                                     5 mg caps.x 21          00000000NNEverex-Oriental 01753985820160501003008015109107793236000656002110NNN00
0623884RILUZOLE                                    50 mg comp.rec.x 60     00000000NNEverex-Oriental 00082576020160501003008015235307793236000304006010NNN00
9951363A FULL AFTER                                multifruta comp.solub.x600000000NNNovarum Pharma  00000150020160502001008215136307798183410749000610NNN00
9951411ACROSS BAP                                  env.x 1000 g            00000000NNNovarum Pharma  00004790020160502001008215141107798183410862000110NNN00
9951413ACROSS BID                                  env.x 1000 g            00000000NNNovarum Pharma  00002590020160502001008215141307798183410886000110NNN00
9951412ACROSS BIDC                                 env.x 1000 g            00000000NNNovarum Pharma  00002950020160502001008215141207798183410879000110NNN00
9951402ACROSS ENERGY                               comp.x 100              00000000NNNovarum Pharma  00002450020160502001008215140207798183410770010010NNN00
9951401ACROSS LEUCINE                              natural env.x 150 g     00000000NNNovarum Pharma  00003590020160502001008215140107798183410763000110NNN00
9951403ACROSS SABA                                 comp.x 210              00000000NNNovarum Pharma  00004750020160502001008215140307798183410787021010NNN00
9951405ACROSS SM                                   comp.x 60               00000000NNNovarum Pharma  00002350020160502001008215140507798183410800006010NNN00
9951408ACROSS SMC                                  env.x 250 g             00000000NNNovarum Pharma  00001950020160502001008215140807798183410831000110NNN00
9951407ACROSS SP                                   frut./vain. env.x 1000 g00000000NNNovarum Pharma  00005750020160502001008215140707798183410824000110NNN00
9951410ACROSS SPBAC                                frut./vain. env.x 1000 g00000000NNNovarum Pharma  00005950020160502001008215141007798183410855000110NNN00
9951404ACROSS SR                                   comp.x 100              00000000NNNovarum Pharma  00001750020160502001008215140407798183410794010010NNN00
9951406ACROSS SRC                                  frut./vain. env.x 1000 g00000000NNNovarum Pharma  00004250020160502001008215140607798183410817000110NNN00
9951418LECCO BALANCE                               comp.x 60               00000000NNNovarum Pharma  00003500020160502001008215141807798183410954006010NNN00
9951414LECCO DEFENCE                               comp.x 60               00000000NNNovarum Pharma  00003100020160502001008215141407798183410916006010NNN00
9951415LECCO FEM                                   comp.x 60               00000000NNNovarum Pharma  00002000020160502001008215141507798183410923006010NNN00
9951417LECCO FLEX                                  comp.x 60               00000000NNNovarum Pharma  00002700020160502001008215141707798183410947006010NNN00
9951416LECCO VITAL                                 comp.x 60               00000000NNNovarum Pharma  00003700020160502001008215141607798183410930006010NNN00
9951367NARAL MULTIVITAMINICO                       comp.rec.x 60           00000000NNNovarum Pharma  00001450020160502001008215136707798183410510006010NNN00
9951368NARAL MULTIVITAMINICO ADULTOS               comp.rec.x 60           00000000NNNovarum Pharma  00001800020160502001008215136807798183410527006010NNN00
9951420PHARMA APICAR PLUS                          comp.x 640              00000000NNNovarum Pharma  00004160020160502001008215142007798183410466064010NNN00
9951419PHARMA PASTILLAS BUCOFARINGEAS BALSAMICAS   menta comp.x 12         00000000NNNovarum Pharma  00000150020160502001008215141907798183411388001210NNN00
5133582HUMIRA                                      jga.prell.x 2 x 0.8 ml  00000000NNAbbvie          00323215920160502012008313264708054083008271000211NNN00
6202001HUMIRA PEDIATRICO                           vial x 0.8 ml+jga.+adapt00000000NNAbbvie          00323215920160502012008314889608002660004093000111NNN00
5806131HUMIRA PEN                                  lapicera x 2 x 0.8 ml   00000000NNAbbvie          00323215920160502013008314984908054083009377000211NNN00
5762391KALETRA                                     25/100 mg comp.rec.x 60 00000000NNAbbvie          00034589820160502012008314288305013158779235006010NNN00
5515131KALETRA                                     50/200 mg comp.rec.x 12000000000NNAbbvie          00078269420160502013008313882908054083003474012010NNN00
4853511KALETRA                                     jbe.x 160 ml            00000000NNAbbvie          00036934620160502013008312782407790440395615000111NNN00
6088711RITONAVIR                                   comp.rec.x 30           00000000NNAbbvie          00006152620160502012008314790908054083005003003010NNN00
3815671SEVORANE                                    env.x 250 ml            00000000NNAbbvie          00029171020160502012008311491607790440445624000130NNN00
3815672SEVORANE                                    env.x 50 ml             00000000NNAbbvie          00005403220160502012008311699807790440445617000110NNN00
3815674SEVORANE QUICK FILL                         env.x 250 ml            00000000NNAbbvie          00029171020160502012008315093307790440445648000110NNN00
6376131VIEKIRA PAK                                 28 blis.x 4 comp.c/u    00000000NNAbbvie          02487449920160502013008315208608054083007496011210NNN00
5554841ZEMPLAR                                     2 mcg caps.x 30         00000000NNAbbvie          00061649020160502012008314416807790440431412003010SNN00
4929501ZEMPLAR                                     5 mcg f.a. x 5 x 1 ml   00000000NNAbbvie          00028067920160502012008313961608054083003566000510NNN00
