3098822ACTILYSE                                    50 mg iny.f.a.x 2       00000000NNBoehringer Ingel00206264120160511012000363764907795304866836000210NNN00
5490841APTIVUS                                     250 mg c ps.bl.x 120    00000000NNBoehringer Ingel00206151020160511002000365227007795304866881012010NNN00
3388311ATROVENT                                    sol.x 20 ml             00003131NNBoehringer Ingel00000679720160511012080361059907795304008328000110SNN00
3388312ATROVENT                                    sol.x 40 ml             00005606NNBoehringer Ingel00001172520160511012080362116007795304085626000130SNN00
5274751ATROVENT HFA                                aerosol HFA x 10 ml     00009380NNBoehringer Ingel00001592020160511012080364418204048846001665000110SNN00
2999681BERODUAL                                    sol.x 20 ml             00000000NNBoehringer Ingel00000894220160511012080360140707795304010321000110SNN00
5031241BERODUAL HFA                                aerosol HFA x 10 ml     00000000NNBoehringer Ingel00001960420160511012080364418404048846001672000110SNN00
2289831BEROTEC                                     0.5% sol.x 20 ml        00004728NNBoehringer Ingel00000846620160511012080360163907795304011328000110SNN00
4799821BEROTEC HFA                                 aerosol HFA x 10 ml     00007988NNBoehringer Ingel00001306120160511012060364418304048846001825000110SNN00
9948642BISOLHELIX                                  jbe.x 100 ml            00005300NNBoehringer Ingel00000956520160511002000364864207795304000285000110SNN00
9921005BISOLVON                                    Ped.jbe.x 120 ml        00003203NNBoehringer Ingel00000820920160511001000362100507795304085541000110NNN00
0162971BISOLVON                                    comp.x 20               00002733NNBoehringer Ingel00000437220160511001000360164107795304015234002010NNN00
9952047BISOLVON ADULTO JARABE NF                   Ad.jbe.x 120 ml         00004278NNBoehringer Ingel00000900420160511001000365204704048846010681000110NNN00
4209692BISOLVON COMPOSITUM NF                      sol.x 120 ml            00000000NNBoehringer Ingel00000778520160511A03000364326507795304000636000110SNN00
0163041BISOLVON SOLUCION                           sol.x 40 ml             00002744NNBoehringer Ingel00000439120160511002020360164207795304015326000110SNN00
0163623BUSCAPINA                                   a.x 3                   00001596NNBoehringer Ingel00000289520160511002020364394007795304000612000310SNN00
0165021BUSCAPINA                                   grag.x 20               00003500NNBoehringer Ingel00000388320160511001000360164907795304018235002010NNN00
0163704BUSCAPINA COMPOSITUM                        a.x 3                   00000000NNBoehringer Ingel00000659820160511002020364409807795304000629000310SNN00
3617412BUSCAPINA COMPOSITUM                        comp.rec.x 20           00000000NNBoehringer Ingel00000722920160511002020361364707795304024243002010SNN00
3617414BUSCAPINA COMPOSITUM                        comp.rec.x 60           00000000NNBoehringer Ingel00002089920160511002020365064104048846008572006040SNN00
1703821BUSCAPINA COMPOSITUM                        gts.x 20 ml             00000000NNBoehringer Ingel00000326720160511002020360165207795304019324000110SNN00
3035874BUSCAPINA COMPOSITUM N                      comp.rec.x 10           00000000NNBoehringer Ingel00000334020160511001000363443707795304866782001010NNN00
3035871BUSCAPINA COMPOSITUM N                      comp.rec.x 20           00000000NNBoehringer Ingel00000664820160511001000360050407795304022225002020NNN00
9950306BUSCAPINA COMPOSITUM N                      comp.rec.x 60           00000000NNBoehringer Ingel00001968020160511002000365030604048846008237006050SNN00
3035951BUSCAPINA COMPOSITUM N                      gts.x 20 ml             00000000NNBoehringer Ingel00000315620160511002020360051707795304022324000110SNN00
4107961COMBIVENT SM                                sol.monodosis x 20      00000000NNBoehringer Ingel00001472320160511012080361775007795304000438002010SNN00
4255471DEXA RHINOSPRAY N                           atomiz.x 10 ml          00000000NNBoehringer Ingel00001115820160511012020362133407795304085466000110SNN00
0164372DULCOLAX                                    grag.x 10               00000000NNBoehringer Ingel00000339520160511001000363465404048846002440001010NNN00
0164371DULCOLAX                                    grag.x 20               00000000NNBoehringer Ingel00000640420160511001000360723707795304042230002030NNN00
2022423DULCOLAX                                    gts.x 15 ml             00000000NNBoehringer Ingel00000505520160511001000364114804048846002334000110NNN00
9928394DULCOLAX PERLAS                             micro-perlas x 50       00000000NNBoehringer Ingel00001198120160511011000362839407795304866256005010NNN00
6269421GIOTRIF                                     20 mg comp.x 28         00000000NNBoehringer Ingel00741469420160511012000365226604048846007766002810NNN00
6269551GIOTRIF                                     30 mg comp.x 28         00000000NNBoehringer Ingel00760982420160511012000365226704048846007759002810NNN00
6269681GIOTRIF                                     40 mg comp.x 28         00000000NNBoehringer Ingel00780494520160511012000365226804048846007742002810NNN00
6269711GIOTRIF                                     50 mg comp.x 28         00000000NNBoehringer Ingel00819519220160511012000365226904048846007735002810NNN00
3560491IMUKIN                                      a.x 1                   00000000NNBoehringer Ingel00012891720160511002020361334907795304049123000110NNN00
4573921MICARDIS                                    40 mg comp.x 28         00034300NNBoehringer Ingel00005129420160511012080362378204048846008503002810SNN00
4573841MICARDIS                                    80 mg comp.x 28         00049000NNBoehringer Ingel00007205520160511012080362378304048846008510002810SNN00
6017841MICARDIS AMLO                               40/5 mg comp.x 28       00000000NNBoehringer Ingel00005763220160511012020364517404048846003423002810SNN00
6018131MICARDIS AMLO                               80/10 mg comp.x 28      00000000NNBoehringer Ingel00007453420160511012020364517604048846003416002810SNN00
6018001MICARDIS AMLO                               80/5 mg comp.x 28       00000000NNBoehringer Ingel00007246320160511012020364517504048846003430002810SNN00
4968391MICARDIS PLUS                               40/12.5 mg comp.x 28    00000000NNBoehringer Ingel00005131620160511012020363197904048846008442002810SNN00
4968441MICARDIS PLUS                               80/12.5 mg comp.x 28    00000000NNBoehringer Ingel00007205520160511012020363198004048846008459002810SNN00
5774131MICARDIS PLUS                               80/25 mg comp.x 28      00000000NNBoehringer Ingel00007353320160511012020364259604048846001313002810SNN00
4094341MOBIC                                       15 mg comp.x 10         00004198NNBoehringer Ingel00001274720160511002020361758907795304085329001010SNN00
4094342MOBIC                                       15 mg comp.x 20         00008400NNBoehringer Ingel00002505720160511002020361907907795304085381002030SNN00
2722452MUCOSOLVAN                                  jbe.x 120 ml            00000000NNBoehringer Ingel00000851220160511001000363987607795304060326000110NNN00
2722531MUCOSOLVAN                                  sol.x 40 ml             00000000NNBoehringer Ingel00000493420160511002020364008007795304060425000110SNN00
9949958MUCOSOLVAN 24 HS                            caps.acc.prol.x 10      00000000NNBoehringer Ingel00001308420160511001000364995804048846006615001010NNN00
3099072MUCOSOLVAN COMPOSITUM                       jbe.x 120 ml            00000000NNBoehringer Ingel00000863120160511002020364008107795304061347000110SNN00
9943551MUCOSOLVAN FORTE                            jbe.x 120 ml            00000000NNBoehringer Ingel00000894020160511001000364355107795304000650000110NNN00
5790261PRADAXA                                     110 mg caps.x 10        00000000NNBoehringer Ingel00005726320160511002020364265604048846001535001010SNN00
5790131PRADAXA                                     75 mg caps.x 10         00000000NNBoehringer Ingel00005726320160511002020364265804048846001511001010SNN00
5790132PRADAXA                                     75 mg caps.x 30         00000000NNBoehringer Ingel00010463720160511002020364265904048846001504003030SNN00
5569131SECOTEX OCAS                                0.4 mg comp.x 30        00028000NNBoehringer Ingel00005298620160511002020364156807795304866928003010SNN00
4471952SIFROL                                      0.250 mg comp.x 100     00000000NNBoehringer Ingel00005876420160511012020362259904048846008473010030SNN00
4471951SIFROL                                      0.250 mg comp.x 30      00000000NNBoehringer Ingel00001970120160511012020362259804048846008466003010SNN00
4472442SIFROL                                      1 mg comp.x 100         00000000NNBoehringer Ingel00020679520160511012020362260104048846008497010030SNN00
4472441SIFROL                                      1 mg comp.x 30          00000000NNBoehringer Ingel00007028820160511012020362260004048846008480003010SNN00
9951847SIFROL ER                                   0.375mg comp.lib.prolx3000000000NNBoehringer Ingel00003071920160511012020365184704048846003300003030SNN00
5955261SIFROL ER                                   0.75mg comp.lib.prol.x3000000000NNBoehringer Ingel00005230520160511012020364517804048846003317003010SNN00
5955391SIFROL ER                                   1.5mg comp.lib.prol.x 3000000000NNBoehringer Ingel00009676220160511012020364517904048846003072003010SNN00
5955451SIFROL ER                                   3 mg comp.lib.prol.x 30 00000000NNBoehringer Ingel00019352720160511012020364518004048846003294003010SNN00
5086063SPIRIVA                                     caps.p/inh.x30c/Handhal.00043972SNBoehringer Ingel00008987220160511012020363748907703381005017003010SNN00
5086061SPIRIVA                                     caps.p/inhalar x 30     00039742SNBoehringer Ingel00008961620160511012020363308507809599500143003010SNN00
5951841SPIRIVA RESPIMAT                            sol.p/inh.x 30ds.+inhal.00047730SNBoehringer Ingel00008997520160511012020364518104048846002006003010SNN00
6339421STRIVERDI RESPIMAT                          sol.p/inh.x 30ds.+inhal.00000000NNBoehringer Ingel00008943320160511012000365242104048846008527003010NNN00
6129971TRAYENTA                                    comp.rec.x 30           00000000NNBoehringer Ingel00009612520160511002020364745804048846005120003010SNN00
6216711TRAYENTA DUO                                2.5/1000 mg comp.x 60   00000000NNBoehringer Ingel00011070420160511002000364885004048846006691006010SNN00
6216681TRAYENTA DUO                                2.5/850 mg comp.x 60    00000000NNBoehringer Ingel00010001120160511002000364885104048846006684006010SNN00
4196652VIRAMUNE                                    200 mg comp.x 60        00000000NNBoehringer Ingel00008324120160511012000362563407795304866157006010NNN00
4636381VIRAMUNE                                    susp.x 240 ml           00000000NNBoehringer Ingel00008667020160511012000362563507795304866133000110NNN00
4859631CABAL                                       comp.x 10               00005457NNDallas          00001056620160512002020582835407795331006632001010SNN00
4859632CABAL                                       comp.x 30               00013985NNDallas          00002445620160512002020583234007795331006649003030SNN00
4859551CABAL                                       gts.x 10 ml             00005567NNDallas          00000824120160512002020582835507795331006618000110SNN00
3982571CABAL D                                     comp.x 10               00000000NNDallas          00000944320160512002000584994207795331006731001010SNN00
3943121DELOS 300                                   comp.x 8                00000000NNDallas          00001499920160512003080581576107795331000067000810SNN00
4037091PROETZONIDE NASAL SPRAY                     env.x 100 dosis         00005633NNDallas          00001076020160512002080582120007795331006243010010SNN00
4037092PROETZONIDE NASAL SPRAY                     env.x 200 dosis         00011105NNDallas          00001824920160512002080583359107795331006700020030SNN00
4381941PROETZONIDE NEBU                            fco.x 20 ml             00010142NNDallas          00001635520160512002080583324807795331006717000110SNN00
0227813PROETZTOTAL                                 sol.p/nebulizar x 10 ml 00000000NNDallas          00001438920160512002020583972407795331000203000110SNN00
0227814PROETZTOTAL                                 sol.p/nebulizar x 20 ml 00000000NNDallas          00002121520160512002020583972507795331000210000130SNN00
0227732SINCERUM                                    gts.x 5 ml              00005249NNDallas          00000873420160512002020583051807795331006670000110SNN00
0227733SINCERUM                                    gts.x 8 ml              00007153NNDallas          00001190120160512002000584845407795331000081000130SNN00
3290123SINCERUM BIOTIC                             gts.x 8 ml              00007238NNDallas          00001204320160512002000584845507795331000104000130SNN00
3680022SINCERUM BIOTIC L                           gts.x 8 ml              00000000NNDallas          00001213120160512002000584855307795331000197000130SNN00
9948363SINCERUM DRY                                gts.x 20 ml             00000000NNDallas          00001060620160512001000584836307795331000173000110NNN00
2489731VILTAR                                      comp.x 10               00003206NNDallas          00000555820160512002020580246407795331006601001010SNN00
2489732VILTAR                                      comp.x 20               00005253NNDallas          00000705720160512002020583324907795331006724002030SNN00
6177551ACANTEX                                     1 g IM f.a.x 1          00010195NNInvesti         00002510620160511003081254851607795380001275000160SNN00
6177552ACANTEX                                     1 g IM f.a.x 3          00065917NNInvesti         00010749420160511003001254972207795380001664000330SNN00
6177681ACANTEX                                     1 g IV f.a.x 1          00010195NNInvesti         00001759620160511003081254855607795380001282000160NNN00
6177711ACANTEX                                     2 g IV f.a.x 1          00015820NNInvesti         00003462220160511003081254855707795380001299000160NNN00
6177421ACANTEX                                     500 mg IM f.a.x 1       00006079NNInvesti         00000991320160511003081254855507795380001268000160SNN00
4323943ACEMUK                                      200 mg tab.efer.x 10    00008011NNInvesti         00001358720160511002021254677007795380000773001010SNN00
4324010ACEMUK                                      600 mg tab.efer.x 10    00009200NNInvesti         00001507920160511002021252164607795380004092001020SNN00
4324015ACEMUK                                      600 mg tab.efer.x 12    00011500NNInvesti         00002305820160511002001254972107795380001657001250SNN00
4324011ACEMUK                                      600 mg tab.efer.x 20    00015000NNInvesti         00002450620160511002021252164707795380004108002040SNN00
9943208ACEMUK                                      600 mg tab.efer.x 5     00006870NNInvesti         00001165120160511002021254320807795380042759000510SNN00
4324013ACEMUK                                      600 mg tab.efer.x 60    00038288NNInvesti         00006493520160511002021254571107795380042797006040NNN00
5615554ACEMUK BIOTIC DUO                           comp.rec. x 14          00000000NNInvesti         00001789620160511003021254003507795380004436001410SNN00
5916002ACEMUK DIA Y NOCHE                          comp.eferv.x 16         00000000NNInvesti         00001650020160511002021254468307795380042780001610SNN00
4837351ACEMUK JARABE                               jbe.x 100 ml            00006906NNInvesti         00001260820160511002021252967607795380004139000110SNN00
5752684ACEMUK L                                    comp.x 20               00000000NNInvesti         00001207420160511002021254187707795380010437002010SNN00
4511883ACERPES                                     400 mg comp.x 20        00011498NNInvesti         00001714520160511002081252898707795380004054002010SNN00
4511622ACERPES                                     5% cr.x 5 g             00003568NNInvesti         00000475020160511002021252349907795380004085000110SNN00
4511963ACERPES                                     800 mg comp.x 20        00018461NNInvesti         00003145720160511002081252898307795380004061002010SNN00
3086942ACI-TIP                                     susp.x 200 ml           00000000NNInvesti         00000776620160511002021250007607795345002033000110SNN00
3990312ACNECLIN                                    50 mg comp.rec.x 30     00012965NNInvesti         00002803820160511003081251660307795380041974003010SNN00
4434243ACNECLIN 100 AP                             caps.x 30               00028000NNInvesti         00005331320160511003081252208507795380041981003010SNN00
6348391AIREAL 10                                   10 mg comp.rec.x 30     00000000NNInvesti         00004844520160511002001255216907795380002258003010SNN00
6348131AIREAL 4                                    4 mg comp.mast.x 30     00000000NNInvesti         00004312820160511002001255217107795380002234003010SNN00
6348261AIREAL 5                                    5 mg comp.mast.x 30     00000000NNInvesti         00004622620160511002001255217007795380002241003010SNN00
4974973ALENATO                                     70 mg comp.x 4          00008948SNInvesti         00001332220160511002081253189407795380041998000410SNN00
4974972ALENATO                                     70 mg comp.x 8          00017895SNInvesti         00002404020160511002081252956107795380042001000830SNN00
9932807ALUMPAK                                     barra desod.x 42 g      00000000NNInvesti         00001434020160511001001253280707795380042087000110NNN00
3264141ALUMPAK                                     loc.x 30 ml             00000000NNInvesti         00002327020160511002001251662507795380042094000110NNN00
9932808ALUMPAK                                     roll on antitransp.x50ml00000000NNInvesti         00001434020160511001001253280807795380042100000110NNN00
2133142APLACASSE                                   1 mg comp.x 50          00003432NNInvesti         00000810920160511403021250889707793081027204005010SNN00
2133222APLACASSE                                   2.5 mg comp.x 50        00004800NNInvesti         00000942520160511403021250889907793081027402005010SNN00
2183982BACTRIM                                     IV a.x 5 x 5 ml         00000000NSInvesti         00002612220160511002081251061407792371004055000510NNN00
1525122BACTRIM                                     comp.x 20               00004281NNInvesti         00001235820160511002081251874007792371004123002010SNN00
2423892BACTRIM BALSAMICO                           Ad.jbe.x 100 ml         00000000NNInvesti         00000821120160511002001250172607792371004529000110SNN00
2423712BACTRIM BALSAMICO                           Ped.jbe.x 100 ml        00000000NNInvesti         00001246120160511002081250174107792371004420000110SNN00
2631791BACTRIM BALSAMICO                           comp.x 10               00000000NNInvesti         00000795820160511002081250746907792371004628001010SNN00
2748032BACTRIM FORTE                               comp.x 10               00004500NNInvesti         00001399020160511002081251874107792371004833001010SNN00
4243831BEZACUR                                     Rtd.400 mg comp.x 30    00000000NNInvesti         00002968620160511002081252904607795380004047003010SNN00
0252303BIOTAER AN                                  caram.x 9               00000000NNInvesti         00000651020160511A03001255043907795380001619000910SNN00
2912031BIOTAER NF                                  f.a.x 1 x 5 dosis x 10ml00000000NNInvesti         00000828720160511A03021250256507795380004023000510SNN00
2912032BIOTAER NF                                  f.a.x 2 x 5 dosis x 10ml00000000NNInvesti         00001412920160511A03021250256607795380004030001030SNN00
3129423CALCIO BASE DUPOMAR                         comp.x 30               00004770NNInvesti         00001147120160511002081253621407795309001928003010SNN00
3129422CALCIO BASE DUPOMAR                         comp.x 60               00007800NNInvesti         00001980720160511002081250784707795309000471006030SNN00
4091035CALCIO BASE DUPOMAR D                       comp.x 30               00000000NNInvesti         00000898520160511002081253621507795309001997003010SNN00
4091032CALCIO BASE DUPOMAR D                       comp.x 60               00000000NNInvesti         00001515420160511002081251776407795309001065006030SNN00
4741982CALCIO BASE DUPOMAR D3 200                  comp.x 30               00000000NNInvesti         00000948720160511002081253621607795309002000003010SNN00
4741981CALCIO BASE DUPOMAR D3 200                  comp.x 60               00000000NNInvesti         00001527620160511002081252649907795309001560006030SNN00
4742052CALCIO BASE DUPOMAR D3 400                  comp.x 30               00000000NNInvesti         00001168320160511002081253621707795309002017003010SNN00
4742051CALCIO BASE DUPOMAR D3 400                  comp.x 60               00000000NNInvesti         00001691720160511002081252650007795309001577006030SNN00
2734251CALCITRIOL                                  0.25 mcg caps.x 30      00013299NNInvesti         00002168720160511012081250748307792371013125003010SNN00
2434862CEPOREXIN                                   500 mg comp.x 16        00006049NNInvesti         00001124820160511003081250061907795380003118001630SNN00
2434861CEPOREXIN                                   500 mg comp.x 8         00003585NNInvesti         00000685820160511003081250061807795380001527000810SNN00
3915322CEPOREXIN                                   500 mg susp.x 90 ml     00007227NNInvesti         00001159620160511003081252063707795380003361000110SNN00
2435192CEPOREXIN                                   Ped.250 mg susp.x 90 ml 00004830NNInvesti         00000768120160511003081252063607795380003354000110SNN00
3065072CEPOREXIN DUO 1 GR                          1 g comp.x 14           00013200NNInvesti         00002439520160511003081253723007795380003637001410SNN00
3065073CEPOREXIN DUO 1 GR                          1 g comp.x 16           00013392NNInvesti         00002516920160511003001254945907795380001428001630SNN00
5714262CEPOREXIN DUO 750                           750 mg susp.ped.x 90 ml 00008399NNInvesti         00001486820160511003081254127807795380004658000110SNN00
5182231CEROSPORIN                                  gts.¢ticas x 10 ml      00003489NNInvesti         00000763720160511002021253402707795380004245000110SNN00
9933408CICATREX BABY                               pda.x 50 g              00000000NNInvesti         00000481720160511001101253340807795380002180000110NNN00
2302512CICATREX BIOTIC                             cr.x 15 g               00000000NNInvesti         00001106920160511A03001253407607795345013459000110SNN00
4587382CITRAMAR D 200                              comp.x 30               00000000NNInvesti         00000732320160511002081253584607795309001904003010SNN00
4587381CITRAMAR D 200                              comp.x 60               00000000NNInvesti         00001572320160511002081252400507795309001379006030SNN00
4707082CITRAMAR D 400                              comp.x 30               00000000NNInvesti         00000895620160511002081253584707795309001911003010SNN00
4707081CITRAMAR D 400                              comp.x 60               00000000NNInvesti         00001709120160511002081252568107795309001461006030SNN00
5240226CLIMATIX                                    2.5 mg comp.x 30        00017730NNInvesti         00002531120160511002021253412807795380003538003010SNN00
5416426CLIMATIX 1.25                               1.25 mg comp.x 30       00013653NNInvesti         00002108220160511002021253736507795380003620003010SNN00
3117463CLOBESOL                                    cr.x 20 g               00005251NNInvesti         00000856320160511002021254451107795380000186000110SNN00
3117462CLOBESOL                                    cr.x 30 g               00006322NNInvesti         00001263120160511002021251208507795380042162000130SNN00
6136552CLOBESOL                                    espuma x 100 g          00017636NNInvesti         00002875920160511002021254821307795380000896000110SNN00
5217741CLOBESOL                                    loc.x 30 ml             00006322NNInvesti         00000823720160511002001253386507795380000841000110NNN00
3117541CLOBESOL                                    ung.x 15 g              00004271NNInvesti         00000667720160511002021250128807795380042155000110SNN00
5655391DELTROX                                     150 mg comp.rec.x 1     00014044SNInvesti         00002541420160511002021254064107795309002468000110SNN00
4547281DICLAC                                      150 mg comp.rapirtd.x 1000007786NNInvesti         00001269720160511002021252848707795380003989001020SNN00
4547282DICLAC                                      150 mg comp.rapirtd.x 2000015261NNInvesti         00002488620160511002021252882507795380003996002050SNN00
3026882DOSULFIN FORTE                              comp.x 14               00009025NNInvesti         00001471720160511002081255057207795380001817001410SNN00
2062281EFUDIX                                      ung.x 20 g              00017160ANInvesti         00003735120160511003001252174707795380042193000110NNN00
2226961EUGLUCON                                    comp.x 30               00003392NNInvesti         00000975720160511002041250157407795380010499003010SNN00
2226962EUGLUCON                                    comp.x 60               00006514NNInvesti         00001773920160511002041250157507795380010505006030SNN00
0650382FER IN SOL                                  sol.x 20 ml             00004618NNInvesti         00001013020160511002021251064007795380001329000110SNN00
1527523FILOTRICIN A                                colut.x 45 ml           00000000NNInvesti         00001325720160511002021251050107795309000136000110SNN00
9951443FILOTRICIN A                                spray x 30 ml           00000000NNInvesti         00001284720160511002021255144307795309000372000110SNN00
0051675GENOZYM                                     comp.x 20               00017470NNInvesti         00002849020160511002001252574707795380010536002010SNN00
0051674GENOZYM                                     comp.x 60               00034083NNInvesti         00005558120160511002001251698907795380010543006030SNN00
3743141GLUCAMINOL FORTE                            850 mg comp.x 30        00006105NNInvesti         00001105520160511012041252816407791864600033003010SNN00
3743142GLUCAMINOL FORTE                            850 mg comp.x 60        00011765NNInvesti         00002193220160511012041252816507791864600040006030SNN00
0317902GRISOVIN FP                                 500 mg comp.x 24        00017206NNInvesti         00002805820160511003021250388307795380004283002410SNN00
5286712HEXALER                                     5 mg comp.rec.x 14      00006932NNInvesti         00001291720160511002021253574007795380003958001430SNN00
5286711HEXALER                                     5 mg comp.rec.x 7       00003612NNInvesti         00000726020160511002021253573907795380003941000710SNN00
5287051HEXALER                                     jbe.x 60 ml             00006099NNInvesti         00001237520160511002021253573807795380003965000110SNN00
5671685HEXALER BRONQUIAL                           200 mcg cap.p/inhal.x 6000018208NNInvesti         00002757120160511002021254467607795380000858006010SNN00
5671686HEXALER BRONQUIAL                           200mcg cap.inh.c/dispx3000018766NNInvesti         00002955320160511002021254467507795380000278003010SNN00
5671715HEXALER BRONQUIAL                           400 mcg cap.p/inhal.x 6000020124NNInvesti         00003047420160511002021254467807795380000865006030SNN00
5671716HEXALER BRONQUIAL                           400mcg cap.inh.c/dispx3000019192NNInvesti         00003022520160511002021254467707795380000292003010SNN00
6204972HEXALER BRONQUIAL DUO                       200/10mcg caps.p/inh.x6000000000NNInvesti         00007010420160511002021254918107795380001398006010SNN00
6205002HEXALER BRONQUIAL DUO                       400/10mcg caps.p/inh.x6000000000NNInvesti         00007170120160511002021254918007795380001404006010SNN00
5681843HEXALER CORT                                comp.rec.x 10           00000000NNInvesti         00001205820160511002021254234807795380010529001010SNN00
5681971HEXALER CORT                                jbe.x 60 ml             00000000NNInvesti         00001431120160511002021254234907795380010512000110SNN00
5672392HEXALER NASAL                               spray nasal x 120 ds.   00015300NNInvesti         00002287120160511002021254100607795380004580012030SNN00
9947388HEXALER NASAL                               spray nasal x 60 ds.    00011805NNInvesti         00001449020160511002001254738807795380042810006010SNN00
5696391HEXALER PLUS                                caps.lib.prol.x 10      00000000NNInvesti         00001092120160511002021254172407795380010390001010SNN00
4308851IKOLAN                                      1% cr.x 25 g            00000000NNInvesti         00000404520160511002021252013907795380004146000110SNN00
4308852IKOLAN                                      1% cr.x 50 g            00000000NNInvesti         00000589920160511002021252014007795380004153000130SNN00
5311131ILOTICINA 4%                                fco.x 120 ml            00011000NNInvesti         00001377720160511002021253561307795380004252000110SNN00
5959133ILOTICINA PLUS                              gel x 20 g              00000000NNInvesti         00001786320160511002001254638707795380000360000110SNN00
5238241ISIS                                        comp.rec.x 28           00000000ENInvesti         00002111220160511002001253634607795380003583002810NNN00
5238242ISIS                                        comp.rec.x 56 env.doble 00000000NNInvesti         00003340420160511002001253722907795380003644005620NNN00
5238243ISIS                                        comp.rec.x 84           00000000NNInvesti         00004447320160511002001254837407795380001367008450NNN00
5548391ISIS FE                                     comp.rec.x 28           00000000NNInvesti         00001838420160511002001253927707795380004177002810NNN00
5556971ISIS MINI                                   comp.rec.x 28           00000000ENInvesti         00002365920160511002001253905607795380004184002810NNN00
5556972ISIS MINI                                   comp.rec.x 56 env.doble 00000000NNInvesti         00003793520160511002001253905707795380004191005620NNN00
5556973ISIS MINI                                   comp.rec.x 84           00000000NNInvesti         00004974620160511002001254837507795380001381008450NNN00
5556974ISIS MINI 24                                comp.rec.x 28           00000000ENInvesti         00002728620160511002001253961707795380004412002810NNN00
5556975ISIS MINI 24                                comp.rec.x 56 env.doble 00000000NNInvesti         00004347820160511002001254187607795380004474005620NNN00
5556976ISIS MINI 24                                comp.rec.x 84           00000000NNInvesti         00005731520160511002001254837607795380001374008450NNN00
5636131ISIS MINI FE                                comp.rec.x 28           00000000NNInvesti         00002148920160511002001254034907795380004481002810NNN00
4026021KONAKION MM                                 10 mg a.x 5 x 1 ml      00012151NNInvesti         00001981520160511002001251707107792371026224000510SNN00
4025871KONAKION MM PEDIATRICO                      2 mg a.x 5 c/dosif.oral 00006804NNInvesti         00001109520160511002001251707007792371026125000510SNN00
4308771LANSEKA                                     2 mg comp.x 10          00003206NNInvesti         00000676420160511002021252014107795380003873001010SNN00
4308772LANSEKA                                     2 mg comp.x 20          00005253NNInvesti         00001058420160511002021252630807795380003880002030SNN00
5648844LEVITAL                                     1000 mg comp.rec.x 30   00000000NNInvesti         00018571420160511002021255045507795380001695003010SNN00
5648714LEVITAL                                     500 mg comp.rec.x 30    00000000NNInvesti         00009552420160511002021255045307795380001671003010SNN00
5648716LEVITAL                                     500 mg comp.rec.x 60    00000000NNInvesti         00018571420160511002021255045407795380001688006020SNN00
5926424LEVITAL                                     sol.oral x 200 ml       00000000NNInvesti         00012679920160511002001255219207795380002166000110SNN00
2297171LEXOTANIL                                   3 mg comp.x 20          00001763NNInvesti         00000373920160511403021251885707792371070111002010SNN00
2297173LEXOTANIL                                   3 mg comp.x 30          00002350NNInvesti         00000549520160511403021251044907792371070531003020SNN00
2297093LEXOTANIL                                   6 mg comp.x 30          00003505NNInvesti         00000853720160511403021251045007792371070234003010SNN00
2297092LEXOTANIL                                   6 mg comp.x 50          00005512NNInvesti         00001893520160511403021250751007792371070227005030SNN00
0888405LIBRAXIN                                    comp.rec.x 30           00000000NNInvesti         00000950520160511403001253418607795380000810003010SNN00
6255972LURAP 40                                    40 mg comp.rec.x 30     00000000NNInvesti         00015953020160511A03001255059907795380001770003010SNN00
6256002LURAP 80                                    80 mg comp.rec.x 30     00000000NNInvesti         00025570020160511A03001255059807795380001787003010SNN00
4020661MACROMAX                                    500 mg comp.x 3         00004959NNInvesti         00001129420160511003081251724407795380042308000310SNN00
4020662MACROMAX                                    500 mg comp.x 6         00008699NNInvesti         00001527520160511003081252614007795380042315000630SNN00
6200121MACROMAX 2G                                 2 g susp.x 74 ml        00024805NNInvesti         00004045220160511003081254887907795380001350000110SNN00
4020822MACROMAX PEDIATRICO                         200 mg/5 ml susp.x 30 ml00008064NNInvesti         00001746420160511003081254381807795380000100000110SNN00
2785581MADOPAR                                     250 mg comp.x 30        00017240NNInvesti         00002709220160511002061250751607792371032508003010SNN00
2785582MADOPAR                                     250 mg comp.x 50        00029000NNInvesti         00004474020160511002061250751507792371032539005030SNN00
3837611MADOPAR DISPERSABLE                         125 mg tab.dispers.x 10000026466NNInvesti         00004007720160511002061251414407792371032836010010SNN00
3837531MADOPAR DISPERSABLE                         62.5 mg tab.dispers.x10000021956NNInvesti         00003324720160511002061251963607792371032638010010SNN00
3071752MADOPAR HBS                                 125 mg caps.x 50        00010606NNInvesti         00001606120160511002061250047807792371032737005010SNN00
5148233MAILEN                                      caps.blandas vag.x 12   00000000NNInvesti         00001738220160511002001253313207795380003439001230SNN00
5148232MAILEN                                      caps.blandas vag.x 6    00000000NNInvesti         00000995620160511002001253313107795380003422000610SNN00
3965241MANTUS                                      pda.x 10 g              00000000NNInvesti         00000677220160511002021251788307795380000599000110SNN00
3965242MANTUS                                      pda.x 30 g              00000000NNInvesti         00001088020160511002021251788407795380000605000130SNN00
2896202MAR-V                                       fco.x 45 ml             00000000NNInvesti         00000871020160511002021250282007795309001027000110SNN00
9938757MASIVOL                                     cr.x 100 g              00000000NNInvesti         00000805220160511001001253875707795380042339000110NNN00
1780710MASIVOL UREA                                cr.x 30 g               00000000NNInvesti         00000747320160511002001250133107795380042353000110SNN00
3599441MAXISALIC                                   ung.x 30 g              00004033NNInvesti         00001623620160511002021251209107795380042384000110SNN00
4353222MEGAPLUS                                    sob.monodosis x 30      00000000NNInvesti         00003387720160511002021252240207795380042414003010SNN00
5169991METGLUCON 1000 AP                           comp.rec.x 30           00008440NNInvesti         00001242020160511002041254320607795380000049003010SNN00
5169992METGLUCON 1000 AP                           comp.rec.x 60           00020500NNInvesti         00002320620160511002041254320707795380000056006030SNN00
5169831METGLUCON 500                               comp.rec.x 30           00003300NNInvesti         00000404720160511002041254228407795380010451003010SNN00
5169832METGLUCON 500                               comp.rec.x 60           00007000NNInvesti         00000809420160511002041254228507795380010468006030SNN00
6171973METGLUCON 500 AP                            comp.rec.acc.prol. x 30 00006670NNInvesti         00001156520160511002041254824307795380001084003010SNN00
6171974METGLUCON 500 AP                            comp.rec.acc.prol. x 60 00012685NNInvesti         00002197620160511002041254824107795380001091006030SNN00
5232511METGLUCON 850 AP                            comp.rec.x 30           00007500NNInvesti         00000802120160511002041254228607795380010475003010SNN00
5232512METGLUCON 850 AP                            comp.rec.x 60           00015000NNInvesti         00001604320160511002041254228707795380010482006030SNN00
5883004METGLUCON DUO                               comp.x 30               00000000NNInvesti         00000989720160511002061254467907795380000308003010SNN00
5883005METGLUCON DUO                               comp.x 60               00000000NNInvesti         00001517320160511002061254468007795380000315006030SNN00
2781281MICOMAZOL                                   cr.derm.x 30 g          00000000NNInvesti         00001194720160511002021250204207795380042438000110SNN00
2875751MICOMAZOL                                   pasta x 30 g            00000000NNInvesti         00001266120160511002001251053507795380042445000110SNN00
4000441MICOMAZOL                                   pvo.x 50 g              00000000NNInvesti         00001124720160511002001251662707795380042452000110SNN00
3670382MICOMAZOL B                                 cr.derm.x 30 g          00000000NNInvesti         00001654620160511002001251295007795380042476000110SNN00
2781362MICOMAZOL DEO                               aer.x 110 g             00000000NNInvesti         00001711520160511002021250892507795380042469000110SNN00
5999132MICOMAZOL LACA                              laca x 5 ml             00000000NNInvesti         00002539920160511002001255057807795380001701000110SNN00
2866341MICORAL                                     comp.x 10               00004665NNInvesti         00000760720160511002021250204507795380042490001010SNN00
2866342MICORAL                                     comp.x 30               00010289NNInvesti         00001404220160511002021250204607795380042506003030SNN00
3083712MICORAL                                     cr.x 30 g               00004665NNInvesti         00000697920160511002021251209407795380042513000110SNN00
3083891MICORAL                                     shamp.x 100 ml          00005872NNInvesti         00001516920160511002021250612107795380042483000110SNN00
5136481MICORAL FLUCO                               caps.x 1                00004800NNInvesti         00000568020160511002021254563207795380000209000110SNN00
5136482MICORAL FLUCO                               caps.x 2                00007600NNInvesti         00001196220160511002021254563307795380000216000220SNN00
5136483MICORAL FLUCO                               caps.x 4                00013727NNInvesti         00002089820160511002021254563407795380000223000450SNN00
6002263MIKONOS FORTE                               caps.x 30               00000000NNInvesti         00005300320160511002001254948207795380001251003010SNN00
5800421MOMETAX                                     cr.x 15 g               00009128NNInvesti         00000983520160511002021254467207795380042766000110SNN00
5800422MOMETAX                                     cr.x 30 g               00011140NNInvesti         00001782320160511002021254467307795380042773000130SNN00
5800552MOMETAX                                     loc.x 30 ml             00009459NNInvesti         00001625820160511002021254467407795380000254000110SNN00
9900717NOSOAP                                      jab.x 80 g              00000000NNInvesti         00000797820160511001001250071707795380042551000110NNN00
2514211OILALFO                                     Cpto.sol.x 100 ml       00000000NNInvesti         00001564820160511002001250205307795380042575000110SNN00
0742112OTOSPORIN                                   gts.¢ticas x 10 ml      00000000NNInvesti         00000775220160511002021252165807795345013411000110SNN00
5671422OTOSPORIN DEXA                              gts.¢ticas x 5 ml       00006921NNInvesti         00000764120160511002081254114907795380004603000110SNN00
2152792OTOSPORIN L                                 gts.¢ticas x 10 ml      00000000NNInvesti         00000873920160511002021252165907795345013428000110SNN00
4065892OXSORALEN ULTRA                             caps.blandas x 30       00050856SNInvesti         00010334920160511003001251802407795380042582003010SNN00
2686901OXSORALEN ULTRA                             caps.rigidas x 30       00000000NNInvesti         00010334920160511003001255144507795380001947003010SNN00
5684391PALDAR                                      cr.x 15 g               00008198NNInvesti         00001496220160511002021254467107795380000193000110SNN00
4869031PALDAR                                      ung.x 15 g              00008198NNInvesti         00001130320160511002021252835007795380042599000110SNN00
6248131PALDAR H                                    cr.x 15 g               00000000NNInvesti         00002626520160511002001255024107795380001596000110SNN00
4540751PREVISCAN                                   Rtd.600 mg comp.x 30    00013584NNInvesti         00002056920160511002021252351607795380003866003010SNN00
4995101RIVOTRIL                                    0.25 mg Subl.comp.x 30  00003727NNInvesti         00000871220160511403021252980607792371009289003010SNN00
4494641RIVOTRIL                                    0.25 mg comp.x 30       00002558NNInvesti         00000498720160511403021252286907792371086136003010SNN00
2238342RIVOTRIL                                    0.25% gts.x 20 ml       00004787NNInvesti         00000641820160511403021251776907792371086426000110SNN00
2290563RIVOTRIL                                    0.5 mg comp.x 30        00004300NNInvesti         00001334420160511403021251754607792371086228003010SNN00
2290562RIVOTRIL                                    0.5 mg comp.x 50        00006944NNInvesti         00001774420160511403021251445007792371086259005020SNN00
2290564RIVOTRIL                                    0.5 mg comp.x 60        00007500NNInvesti         00001690620160511403021251874607792371086266006050SNN00
2238261RIVOTRIL                                    2 mg comp.x 30          00004800NNInvesti         00001196520160511403061251754707792371086211003010SNN00
2238263RIVOTRIL                                    2 mg comp.x 50          00008300NNInvesti         00001478020160511403061251051907792371086235005020SNN00
2238264RIVOTRIL                                    2 mg comp.x 60          00008000NNInvesti         00001513620160511403061251874707792371086204006050SNN00
3046342ROACCUTAN                                   10 mg caps.x 30         00028582SNInvesti         00005909120160511A03021252605107660113941770003010SNN00
3046422ROACCUTAN                                   20 mg caps.x 30         00052300SNInvesti         00010799820160511A03021252605207660113942159003010SNN00
3969201ROHYPNOL                                    1 mg comp.laq.x 30      00003800NNInvesti         00001149920160511303021251628707795380001732003010SNN00
2052041SIDERBLUT                                   comp.x 30               00009300NNInvesti         00001470820160511002021250258307795345013237003010SNN00
2052042SIDERBLUT                                   comp.x 60               00015800NNInvesti         00002648020160511002021252014907795345013244006030SNN00
5360713SIDERBLUT COMPLEX                           comp.x 30               00000000NNInvesti         00001831920160511002021253997307795380004238003010SNN00
5360714SIDERBLUT COMPLEX                           comp.x 60               00000000NNInvesti         00003307820160511002021253997407795380004443006030SNN00
5623684SIDERBLUT FOLIC                             comp.rec.x 30           00000000NNInvesti         00001752220160511002001254035007795380004498003010SNN00
5497682SIDERBLUT GOTAS                             gts.x 20 ml             00005332NNInvesti         00000895620160511002021253896507795380004160000110SNN00
5565713SIDERBLUT IM                                iny.IM a.x 5 x 2 ml     00000000NNInvesti         00004008320160511002001255217207795380002227000510SNN00
5615685SIDERBLUT POLI                              comp.x 30               00006268NNInvesti         00001209620160511002021254381007795380004450003010SNN00
5615687SIDERBLUT POLI                              comp.x 60               00012838NNInvesti         00002177320160511002021254381107795380004467006030SNN00
4745361SOTACOR                                     160 mg comp.x 20        00014851NNInvesti         00002421920160511002081252954807795380003859002010SNN00
4745281SOTACOR                                     80 mg comp.x 20         00010496NNInvesti         00001711620160511002081252954607795380003842002010SNN00
6283002TENEGLUCON                                  20 mg comp.rec.x 30     00000000NNInvesti         00009035920160511002001255086707795380001855003010SNN00
0655672TRI VI FLUOR                                sol.x 30 ml             00000000NNInvesti         00000924620160511002021250526407795380001336000110SNN00
0655832TRI VI SOL                                  sol.x 20 ml             00000000NNInvesti         00001309120160511002021251064107795380001343000110SNN00
9923323TRICOLOCION 2%                              sol.x 120 ml            00000000NNInvesti         00001856920160511001001252332307795380042667000110NNN00
4047151TROPICUR                                    250 mg comp.x 8         00000000NNInvesti         00003010520160511002001251706907792371028013000810SNN00
2333881UNAVA                                       comp.x 20               00006333NNInvesti         00000959020160511002061250475407795380000681002010SNN00
2333882UNAVA                                       comp.x 60               00015884NNInvesti         00002405220160511002061250475507795380000698006030SNN00
0890462VALIUM                                      10 mg a.x 5 x 2 ml      00007632NNInvesti         00001244520160511403021252697507660113955807000510SNN00
0968273VALIUM                                      10 mg comp.x 30         00004800NNInvesti         00001007820160511403021251832207792371087430003010SNN00
0968272VALIUM                                      10 mg comp.x 50         00008000NNInvesti         00001480720160511403021250466107792371087423005030SNN00
0890882VALIUM                                      5 mg comp.x 30          00004477NNInvesti         00000730120160511403021251754807792371087331003020SNN00
0890883VALIUM                                      5 mg comp.x 60          00008802NNInvesti         00001435420160511403021251874407792371087355006050SNN00
2309883VEGESTABIL                                  comp.x 30               00000000NNInvesti         00001918720160511403021251101007795380000728003010SNN00
3209031VEGESTABIL DIGEST                           comp.x 20               00000000NNInvesti         00001590020160511403021251210207795380000704002010SNN00
3209032VEGESTABIL DIGEST                           comp.x 50               00000000NNInvesti         00003505020160511403021251331807795380000711005030SNN00
4379301VERAL                                       Rtd.240 mg comp.x 30    00025303NNInvesti         00003257420160511002081252313707795380003835003010SNN00
6288841VISDON 20                                   20 mg comp.x 15         00000000NNInvesti         00005033720160511403001255072507795380001756001510SNN00
6288842VISDON 20                                   20 mg comp.x 30         00000000NNInvesti         00007994120160511403001255179507795380002173003030SNN00
6288972VISDON 40                                   40 mg comp.x 30         00000000NNInvesti         00009926620160511403001255072607795380001763003010SNN00
4819033ADIUVAN                                     2 mg comp.x 30          00009537NNLazar           00001560020160511002041383372107795347971108003010SNN00
4819113ADIUVAN                                     4 mg comp.x 30          00018000NNLazar           00002775020160511002041383372207795347971115003010SNN00
5876841ADIUVAN MET 2/1000                          comp.x 30               00000000NNLazar           00001850020160511002021384635307795347000433003010SNN00
5876971ADIUVAN MET 4/1000                          comp.x 30               00000000NNLazar           00003260020160511002021384635407795347000457003010SNN00
4513601ALERFEDINE                                  120 mg comp.x 10        00007413NNLazar           00001265020160511002021382317207795347900108001010SNN00
4513602ALERFEDINE                                  120 mg comp.x 30        00022024NNLazar           00003370020160511002021382317307795347900115003030SNN00
4578391ALERFEDINE                                  180 mg comp.x 10        00012465NNLazar           00001985020160511002021382403407795347900146001010SNN00
4578392ALERFEDINE                                  180 mg comp.x 20        00015616NNLazar           00002900020160511002021382403507795347900153002030SNN00
4803851ALERFEDINE D                                comp.lib.prol.x 10      00000000NNLazar           00001190020160511002021382813807795347900085001010SNN00
5323713ALIN                                        10 mg comp.x 30         00013500NNLazar           00002100020160511002021383620407795347972051003010SNN00
6330421ALZEPRAL                                    20 mg c ps.x 28         00021000NNLazar           00003030020160511002021385155207795347900009002810SNN00
6330551ALZEPRAL                                    40 mg c ps.x 28         00029300NNLazar           00004160020160511002021385155307795347900016002810SNN00
5700711ANIL                                        50 mg comp.rec.x 60     00000000NNLazar           00063350020160511002001384596007795347030140006010NNN00
5610971ARZIMOL                                     2% cr.x 15 g            00000000NNLazar           00001045020160511002081384048007795347972952000110SNN00
5658711ARZIMOL B                                   cr.x 15 g               00000000NNLazar           00001235020160511002021384257407795347973201000110SNN00
5337971ASTENDE                                     10 mg comp.rec.x 14     00011769NNLazar           00001650020160511002021384048107795347972129001410SNN00
5337972ASTENDE                                     10 mg comp.rec.x 28     00021500NNLazar           00003030020160511002021384048207795347972136002830SNN00
5338002ASTENDE                                     20 mg comp.rec.x 28     00036928NNLazar           00005830020160511002021384048307795347972150002810SNN00
2951061ATARAXONE                                   10 mg comp.x 20         00006468NNLazar           00001175020160511403021380491307795347000037002010SNN00
2951141ATARAXONE                                   25 mg comp.x 20         00008957NNLazar           00001635020160511403021380491407795347000044002010SNN00
2951221ATARAXONE                                   50 mg comp.x 20         00017147NNLazar           00003140020160511403021382254807795347905158002010SNN00
2951482ATARAXONE                                   gts.x 20 ml             00005837NNLazar           00001070020160511403021382971507795347907008000110SNN00
2951561ATARAXONE                                   jbe.x 120 ml            00009315NNLazar           00001710020160511403021380491507795347000051000110SNN00
4666321BACTOCILINA                                 500 mg comp.rec.x 7     00009543NNLazar           00001655020160511003081384481707795347000891000710SNN00
5885391BACTOCILINA                                 750 mg comp.rec.x 5     00011351NNLazar           00001900020160511003081384481807795347000952000710SNN00
2925162BILAGOL ANTI GAS                            comp.x 20               00000000NNLazar           00000955020160511002021380492007795347000068002010SNN00
2925164BILAGOL ANTI GAS                            comp.x 40               00000000NNLazar           00001760020160511002001385102407795347911104004030SNN00
4147481CETIZINE                                    10 mg comp.rec.x 10     00005457NNLazar           00001040020160511002021383273007795347970804001010SNN00
4147482CETIZINE                                    10 mg comp.rec.x 20     00007262NNLazar           00001825020160511002021383273107795347970811002030SNN00
5089591CETIZINE                                    gts.x 10 ml             00005567NNLazar           00001050020160511002021383273207795347970996000110SNN00
3218361CIPROFLOXACINA LAZAR                        250 mg comp.x 10        00004320NNLazar           00000700020160511003081381105107795347000082001010SNN00
3218441CIPROFLOXACINA LAZAR                        500 mg comp.x 10        00010500NNLazar           00002230020160511003081381105207795347000099001010SNN00
3218442CIPROFLOXACINA LAZAR                        500 mg comp.x 20        00021933NNLazar           00003790020160511003081381105307795347000105002030SNN00
3218521CIPROFLOXACINA LAZAR                        750 mg comp.x 10        00017875NNLazar           00003190020160511003081382261907795347914785001010SNN00
5049581CIPROFLOXACINA LAZAR HC                     gts.¢ticas x 5 ml       00000000NNLazar           00000436020160511003021383169707795347970880000110SNN00
4592151COLPOFILIN                                  500 mg comp.x 10        00003096NNLazar           00000590020160511002021383791307795347972372001010SNN00
4592152COLPOFILIN                                  500 mg comp.x 20        00005740NNLazar           00001080020160511002021383791407795347972389002030SNN00
4591901COLPOFILIN                                  500 mg ov.x 10          00006388NNLazar           00001025020160511002021383791507795347972396001010SNN00
5611261COLPOFILIN MAX                              ov.vag.x 7              00000000NNLazar           00001290020160511002001384048407795347972945000710SNN00
5284991CORUBIN                                     12.5 mg comp.x 28       00007550NNLazar           00001190020160511002081383620607795347971672002810SNN00
5285011CORUBIN                                     25 mg comp.x 28         00009300NNLazar           00001620020160511002081383620707795347971689002810SNN00
5284831CORUBIN                                     6.25 mg comp.x 28       00005770NNLazar           00000970020160511002081383620507795347971665002810SNN00
5993971CUTANIT                                     ung.x 30 g              00015743NNLazar           00002600020160511002021384773307795347000570000110SNN00
6087681CUTANIT B                                   ung.x 30 g              00000000NNLazar           00004510020160511002021384773407795347001034000110SNN00
5994001CUTANIT LOCION                              env.x 20 ml             00014066NNLazar           00002550020160511002021385031707795347913023000110NNN00
3504392DAPSONA LAZAR                               100 mg comp.x 50        00000000TNLazar           00002340020160511002001385157107795347920519005010SNN00
3054182DELORAT                                     5 mg comp.rec.x 14      00006932NNLazar           00001165020160511002021385097907795347920533001410SNN00
3054261DELORAT                                     5mg/10ml jbe.x 50 ml    00005785NNLazar           00000990020160511002021384179307795347972716000110SNN00
5609131DERMOTOPIC                                  gel 0.1% x 30 g         00016511NNLazar           00002545020160511002021384635607795347000563000110SNN00
6080261DERMOTOPIC                                  gel 0.3% x 30 g         00019584NNLazar           00003330020160511002001384744107795347001027000110SNN00
6176391DERMOTOPIC DUO                              gel x 30 g              00000000NNLazar           00004100020160511002021384877907795347922889000110SNN00
4917702DILUTOL                                     20 mg jga.prell.x2x0.2ml00000000NNLazar           00002169120160511002081383259307795347921509000210NNN00
4917705DILUTOL                                     20mg jga.prell.x10x0.2ml00000000NNLazar           00010246020160511002081383259407795347921516001030NNN00
4918112DILUTOL                                     40mg jga.prell.x 2x0.4ml00000000NNLazar           00003390020160511002081383259507795347921523000210NNN00
4918115DILUTOL                                     40mg jga.prell.x10x0.4ml00000000NNLazar           00017100020160511002081383259607795347921530001030NNN00
4917885DILUTOL                                     60mg jga.prell.x10x0.6ml00000000NNLazar           00026810020160511002081383259807795347921547001010NNN00
4917965DILUTOL                                     80mg jga.prell.x10x0.8ml00000000NNLazar           00036500020160511002081383259907795347921554001010NNN00
5160313DIPEMINA                                    500 mg comp.rec.x 30    00000000NNLazar           00003020020160511002021383388307795347971139003010SNN00
5160316DIPEMINA                                    500 mg comp.rec.x 60    00000000NNLazar           00005300020160511002021383388407795347971146006030SNN00
9933723ECAPRILAT                                   10 mg comp.x 100(s/troq)00010409NNLazar           00001840020160511002061383372307795347971207010050NNN00
3127102ECAPRILAT                                   10 mg comp.x 30         00005500NNLazar           00000981020160511002061383508407795347000143003010SNN00
3127104ECAPRILAT                                   10 mg comp.x 60         00013300NNLazar           00001910020160511002061380703507795347000150006020SNN00
9934449ECAPRILAT                                   20 mg comp.x 100(s/troq)00012379NNLazar           00001985020160511002061383444907795347971214010050NNN00
3127283ECAPRILAT                                   20 mg comp.x 30         00006103NNLazar           00001080020160511002061383508507795347923596003010SNN00
3127284ECAPRILAT                                   20 mg comp.x 60         00015800NNLazar           00002130020160511002061380707207795347000174006020SNN00
2651672ECUAMON                                     comp.x 20               00004800NNLazar           00000955020160511002021380493707795347000181002010SNN00
2651752ECUAMON                                     gts.x 20 ml             00004100NNLazar           00000850020160511002021380493807795347000198000110SNN00
5503422EXPIT                                       50 mg comp.mast.x 10    00000000NNLazar           00001550020160511A03021383879807795347972631001030NNN00
5503421EXPIT                                       50 mg comp.mast.x 2     00000000NNLazar           00000415020160511A03021383879707795347972624000210NNN00
5021211EXPIT                                       50 mg comp.x 2          00000000NNLazar           00000382020160511A03021383151307795347970859000210NNN00
9944921FANALETAS CARAMELOS                         blist.x 6               00000000NNLazar           00000458020160511001001384492107795347000976000610NNN00
3686561FANGAN                                      ov.x 5                  00007476NNLazar           00001560020160511002021382056107795347930204000510SNN00
6326261FANGAN DUO                                  400/100 mg ov.x 7       00000000NNLazar           00001858020160511002021385155507795347930532000710SNN00
5754392FANGAN PLUS                                 ov.x 12                 00000000NNLazar           00002117020160511002021384324307795347973393001230SNN00
5754391FANGAN PLUS                                 ov.x 6                  00000000NNLazar           00001128020160511002021384324207795347973386000610SNN00
5061382FENTANILO LAZAR                             0.25 mg/5 ml iny.a.x 3  00000000NNLazar           00001526020160511603001383372407795347971122000310NNN00
5550131FIXERIL                                     100 mg comp.x 30        00000000NNLazar           00004010020160511002081384261907795347973348003010SNN00
5550132FIXERIL                                     100 mg comp.x 60        00000000NNLazar           00007532020160511002081384262007795347973355006030SNN00
5762261FLEBOSMINA                                  200 mg caps.x 60        00000000NNLazar           00005230020160511002021384635507795347973522006010SNN00
5762131FLEBOSMINA                                  gel 2% x 40 g           00000000NNLazar           00001500020160511002021384635807795347000983000110SNN00
2788632FLOGOL                                      gel x 100 g             00000000NNLazar           00001310020160511002021380495007795347000280000150SNN00
2788633FLOGOL                                      gel x 30 g              00000000NNLazar           00000655020160511002021383503507795347971498000110SNN00
2788631FLOGOL                                      gel x 50 g              00000000NNLazar           00000981020160511002021380494907795347000273000120SNN00
6088001FLUIDIN                                     10 mg comp.x 28         00000000NNLazar           00005610020160511002021384886307795347001188002830SNN00
6087971FLUIDIN                                     5 mg comp.x 28          00000000NNLazar           00002700020160511002021384886207795347001171002810SNN00
3951043FUNGOCINA                                   100 mg comp.x 16        00045500NNLazar           00007865020160511002021385078207795347933489001610SNN00
3951201FUNGOCINA                                   150 mg comp.x 1         00004800NNLazar           00000827020160511002021381628307795347933601000110SNN00
3951202FUNGOCINA                                   150 mg comp.x 2         00007600NNLazar           00001558020160511002021381628407795347933656000220SNN00
3951204FUNGOCINA                                   150 mg comp.x 4         00013727NNLazar           00002693020160511002021381858907795347933687000450SNN00
3951208FUNGOCINA                                   150 mg comp.x 8         00025500NNLazar           00004187020160511002021385078307795347933472000840SNN00
3951123FUNGOCINA                                   200 mg comp.x 12        00057554NNLazar           00009752020160511002021385078407795347933465001210SNN00
3950972FUNGOCINA                                   50 mg comp.x 10         00009100NNLazar           00001565020160511002021385078107795347933496001010SNN00
5083911FUNGUEAL                                    250 mg comp.x 14        00017951NNLazar           00003160020160511002021383690507795347972174001410SNN00
5083912FUNGUEAL                                    250 mg comp.x 28        00034411NNLazar           00006150020160511002021383690607795347972167002830SNN00
5084391FUNGUEAL                                    cr.x 15 g               00003435NNLazar           00000830020160511002021383690707795347972181000110SNN00
5538551GLUKENIL                                    0.5 mg comp.x 30        00000000NNLazar           00001350020160511002021383972707795347972723003010SNN00
5538681GLUKENIL                                    1 mg comp.x 30          00000000NNLazar           00001370020160511002021383972907795347972747003010SNN00
5538711GLUKENIL                                    2 mg comp.x 30          00000000NNLazar           00001370020160511002021383973107795347972761003010SNN00
5346262HIGLUCEM                                    15 mg comp.x 28         00000000NNLazar           00002890020160511002021383973407795347972662002810SNN00
5346392HIGLUCEM                                    30 mg comp.x 28         00000000NNLazar           00003330020160511002021383973607795347972686002810SNN00
5346421HIGLUCEM                                    45 mg comp.x 30         00000000NNLazar           00003550020160511002021383973707795347972693003010SNN00
3498701IBUMULTIN                                   600 mg comp.rec.x 10    00002800NNLazar           00000381520160511002001384886907795347934806001010SNN00
9950790IBUMULTIN V.L.                              2g/100 ml susp.x 100 ml 00002904NNLazar           00000590020160511001001385079007795347934820000110NNN00
9935959IBUMULTIN V.L.                              400 mg comp.rec.x 10    00001289NNLazar           00000220020160511001021383595907795347934783001010SNN00
9935961IBUMULTIN V.L.                              400 mg comp.rec.x 100   00008324NNLazar           00000990020160511001021383596107795347934790010030NNN00
5166721INSPIROL                                    10 mg comp.rec.x 30     00034500NNLazar           00004611020160511002021384388507795347972839003010SNN00
5166511INSPIROL                                    4 mg comp.mast.x 30     00031675NNLazar           00004537020160511002021384388307795347972815003010SNN00
5166671INSPIROL                                    5 mg comp.mast.x 30     00033176NNLazar           00004580020160511002021384388407795347972822003010SNN00
4217272LACTULON                                    10 g sob.x 16           00011557NNLazar           00002100020160511002021382674007795347936169001630SNN00
4217271LACTULON                                    10 g sob.x 8            00005330NNLazar           00000976020160511002021382673907795347936152000810SNN00
2147921LACTULON                                    jbe.x 120 ml            00004698NNLazar           00001167020160511002021380140207795347000297000110SNN00
2147922LACTULON                                    jbe.x 250 ml            00011000NNLazar           00001940020160511002021380399407795347000303000130SNN00
5372712LAZAR CORT                                  cr.x 20 g               00005256NNLazar           00000657020160511002021385078507795347935926000130SNN00
5191033LAZAR CORT COMPLEX                          cr.x 20 g               00000000NNLazar           00001127020160511002021385078607795347935933000110SNN00
9930611LIPONORM                                    10 mg comp.rec.x 100    00039172NNLazar           00006758020160511002061383061107795347970774010040SNN00
4638102LIPONORM                                    10 mg comp.rec.x 20     00012583NNLazar           00002200020160511002061383061007795347970767002010SNN00
4638103LIPONORM                                    10 mg comp.rec.x 30     00018800NNLazar           00003270020160511002061382712007795347936251003020SNN00
4638106LIPONORM                                    10 mg comp.rec.x 60     00038574NNLazar           00005978020160511002061382971607795347936237006050SNN00
4638283LIPONORM                                    20 mg comp.rec.x 30     00029300NNLazar           00005565020160511002061382712107795347936268003010SNN00
4638286LIPONORM                                    20 mg comp.rec.x 60     00063182NNLazar           00010300020160511002061382971707795347936244006030SNN00
5035911LIPONORM                                    40 mg comp.rec.x 30     00042089NNLazar           00006020020160511002061385118707795347935414003010SNN00
5965001LIPONORM PLUS                               10/10 mg comp.x 30      00000000NNLazar           00003975020160511002021384564807795347000020003010SNN00
5965131LIPONORM PLUS                               20/10 mg comp.x 30      00000000NNLazar           00005668020160511002021384564907795347000129003010SNN00
5398421MEDOBIS                                     1000 mg comp.rec.x 30   00008440NNLazar           00001330020160511002041383974207795347972334003010SNN00
5398261MEDOBIS                                     500 mg comp.rec.x 30    00003300NNLazar           00000441520160511002041383973807795347972297003010SNN00
5398262MEDOBIS                                     500 mg comp.rec.x 60    00007000NNLazar           00000959020160511002041383973907795347972303006030SNN00
5398391MEDOBIS                                     850 mg comp.rec.x 30    00006105NNLazar           00000959020160511002041383974007795347972310003010SNN00
5398392MEDOBIS                                     850 mg comp.rec.x 60    00011765NNLazar           00001875020160511002041383974107795347972327006030SNN00
5788421MEDOBIS 1000 AP                             1000 mg comp.rec.x 30   00010800NNLazar           00001220020160511002041384324007795347973492003010SNN00
5788422MEDOBIS 1000 AP                             1000 mg comp.rec.x 60   00020500NNLazar           00002700020160511002041384324107795347973508006030SNN00
5788391MEDOBIS AP                                  850 mg comp.rec.x 30    00007500NNLazar           00001090020160511002041384323807795347973478003010SNN00
5788392MEDOBIS AP                                  850 mg comp.rec.x 60    00015000NNLazar           00002104020160511002041384323907795347973485006030SNN00
6210971MIQUIMOD                                    3.75% cr.x 3 g          00000000NNLazar           00002860020160511002021385091507795347936626000110NNN00
4828781MIQUIMOD                                    5% cr.x 3 g             00000000NNLazar           00004070020160511002021383315707795347971009000110NNN00
2168711MULTIN                                      comp.x 10               00000000NNLazar           00000240020160511002021380495407795347000334001010SNN00
2168712MULTIN                                      comp.x 20               00000000NNLazar           00000352020160511002021380420407795347000341002030SNN00
0554432MULTIN                                      gts.x 20 ml             00000000NNLazar           00000675020160511002021380421407795347000327000110SNN00
2847452MULTIN                                      jbe.x 120 ml            00000000NNLazar           00000981020160511002021381596407795347939016000110SNN00
5086951MUPAX                                       cr.x 15 g               00008198NNLazar           00001650020160511002021383444707795347970958000110SNN00
4712431MUPAX                                       ung.derm.x 15 g         00008198NNLazar           00001380020160511002021383080407795347970781000110SNN00
5087082MUPAX NASAL                                 2% ung.x 5 g            00000000NNLazar           00001250020160511002021385078707795347939184000130SNN00
5935421NEBICOR                                     5 mg comp.x 28          00016000NNLazar           00002385020160511002021384635707795347000990002810SNN00
4332691NEBLIC                                      500 mg comp.x 3         00004959NNLazar           00000853020160511003081382122707795347939412000310SNN00
4332692NEBLIC                                      500 mg comp.x 6         00008699NNLazar           00001374020160511003081382207007795347939436000630SNN00
4332851NEBLIC                                      600 mg pvo.p/susp.x 15ml00004742NNLazar           00000767020160511003081382122807795347939450000110SNN00
3500754NIMODILAT                                   comp.x 100              00017376NNLazar           00002840020160511002021381265507795347000389010050SNN00
3500752NIMODILAT                                   comp.x 30               00006340NNLazar           00001031020160511002021383491507795347971351003010SNN00
3500753NIMODILAT                                   comp.x 60               00010488NNLazar           00001690020160511002021381265407795347000372006020SNN00
9946531NIMODILAT FORTE                             comp.rec.x 100          00000000NNLazar           00002190020160511002001384653107795347971757010090SNN00
4561203NIMODILAT FORTE                             comp.rec.x 30           00010233NNLazar           00001635020160511002021382439407795347939894003010SNN00
4561206NIMODILAT FORTE                             comp.rec.x 60           00014111NNLazar           00002104020160511002021382439507795347939900006030SNN00
4611373NIMODILAT PLUS                              comp.rec.x 30           00000000NNLazar           00002279020160511002021383080507795347939573003010SNN00
4611376NIMODILAT PLUS                              comp.rec.x 60           00000000NNLazar           00004060020160511002021383080607795347939580006030SNN00
5990001NOVURIT                                     10 mg comp.rec.x 20     00000000NNLazar           00004220020160511002021384718007795347000617002010SNN00
5989971NOVURIT                                     5 mg comp.rec.x 20      00000000NNLazar           00003710020160511002021384717907795347000594002010SNN00
6381131PARACETAMOL LAZAR                           1 g comp.x 30           00000000NNLazar           00000392020160511002001385228207795347942689003010NNN00
3224121PARACETAMOL LAZAR                           500 mg comp.x 20        00001062NNLazar           00000240020160511002021381899407795347942504002010SNN00
9934450PARACETAMOL LAZAR                           500 mg comp.x100(s/troq)00002626NNLazar           00000570020160511002021383445007795347971245010030NNN00
3224201PARACETAMOL LAZAR                           gts.x 20 ml             00001702NNLazar           00000395020160511002021381899507795347942603000110SNN00
9950791PARATROPINA ANTIGAS V.L.                    gts.x 20 ml             00000000NNLazar           00000700020160511001001385079107795347947165000110NNN00
9950793PARATROPINA FEM V.L.                        comp.x 10               00000000NNLazar           00000320020160511001001385079307795347946106001010NNN00
9950792PARATROPINA V.L.                            comp.x 24               00002356NNLazar           00000478020160511001001385079207795347946113002410NNN00
9947739PARATROPINA V.L.                            gts.x 22 ml             00000000NNLazar           00000583020160511001001384773907795347001164000110NNN00
0556091PYRALVEX                                    fco.x 10 ml             00000000NNLazar           00001134020160511002021380496507795347000501000110SNN00
2849933RANITIDINA LAZAR                            150 mg comp.x 100       00008391NNLazar           00001766020160511002021382114207795347949299010090SNN00
2849934RANITIDINA LAZAR                            150 mg comp.x 30        00004163NNLazar           00000883020160511002021385078807795347948711003020SNN00
2849935RANITIDINA LAZAR                            150 mg comp.x 60        00007688NNLazar           00001678020160511002021385078907795347948728006050SNN00
3204162RANITIDINA LAZAR                            300 mg comp.x 30        00009500NNLazar           00001766020160511002021381060207795347000532003010SNN00
4573182RANITIDINA LAZAR R.E.                       comp.x 20               00000000NNLazar           00001050020160511002021382403607795347948988002010SNN00
4573184RANITIDINA LAZAR R.E.                       comp.x 40               00000000NNLazar           00001880020160511002021383821507795347972198004020SNN00
9950189RESAQUIT (VENTA LIBRE)                      comp.bicapa x 12        00000000NNLazar           00000540020160511001001385018907795347000969001210NNN00
5310712RESTINIL                                    5 mg f.a.liof.x 5       00000000NNLazar           00010310020160511604001385108307795347971863000510NNN00
9951556SALVICUTAN                                  cr.x 30 g               00000000NNLazar           00001330020160511002021385155607795347954057000110SNN00
5110622SIMULTAN                                    160 mg comp.rec.x 14    00011032NNLazar           00001900020160511002081383596207795347971054001410SNN00
5110624SIMULTAN                                    160 mg comp.rec.x 28    00026200NNLazar           00003860020160511002081383596307795347971061002830SNN00
6259261SIMULTAN                                    320 mg comp.rec.x 28    00026000NNLazar           00003950020160511002081385018707795347954675002810SNN00
5110572SIMULTAN                                    80 mg comp.rec.x 14     00009087NNLazar           00001610020160511002081383413707795347971030001410SNN00
5110574SIMULTAN                                    80 mg comp.rec.x 28     00019000NNLazar           00002910020160511002081383413807795347971047002830SNN00
5972971SIMULTAN A                                  160/10 mg comp.x 14     00000000NNLazar           00002545020160511002021384565207795347000310001410SNN00
5972972SIMULTAN A                                  160/10 mg comp.x 28     00000000NNLazar           00004325020160511002021384565307795347000358002830SNN00
5973001SIMULTAN A                                  160/5 mg comp.x 14      00000000NNLazar           00002550020160511002021384565007795347000259001410SNN00
5973002SIMULTAN A                                  160/5 mg comp.x 28      00000000NNLazar           00004325020160511002021384565107795347000266002830SNN00
5962001SIMULTAN A                                  80/5 mg comp.x 28       00000000NNLazar           00004000020160511002021385098007795347954279002810SNN00
5046942SIMULTAN D                                  160/12.5mg comp.rec.x 1400000000NNLazar           00001630020160511002021383879307795347970934001410SNN00
5046944SIMULTAN D                                  160/12.5mg comp.rec.x 2800000000NNLazar           00003695020160511002021383879407795347970941002830SNN00
5538421SIMULTAN D                                  160/25 mg comp.rec.x 28 00000000NNLazar           00004135020160511002021385018807795347954682002810SNN00
5046892SIMULTAN D                                  80/12.5 mg comp.rec.x 1400000000NNLazar           00001960020160511002021383190207795347970910001410SNN00
5046894SIMULTAN D                                  80/12.5 mg comp.rec.x 2800000000NNLazar           00003310020160511002021383190307795347970927002830SNN00
6197971SIMULTAN TRIPLE                             160/12.5/10 mg comp.x 2800000000NNLazar           00005480020160511002021385031907795347954705002810SNN00
6197841SIMULTAN TRIPLE                             160/12.5/5 mg comp.x 28 00000000NNLazar           00005400020160511002021385031807795347954699002810SNN00
9951346SIMULTAN TRIPLE                             320/25/10 mg comp.x 28  00000000NNLazar           00005080020160511002021385134607795347954712002810SNN00
0551122SUPLIGOL NF                                 IM iny.a.x 1 x 1 ml     00000000NNLazar           00001925020160511002021383563307795347971481000110SNN00
5498711TACRODERM                                   0.03% ung.x 10 g        00014051NNLazar           00002332020160511002001384886407795347957409000110SNN00
5498681TACRODERM                                   0.10% ung.x 20 g        00026735NNLazar           00004452020160511002001384886507795347957393000110SNN00
3863351TERVALON                                    10 mg comp.x 30         00013000NNLazar           00002670020160511002081381817507795347957836003010SNN00
3863271TERVALON                                    5 mg comp.x 30          00008300NNLazar           00001384320160511002081381817407795347957805003010SNN00
6330681TUMULAN                                     0.5 mg comp.x 30        00025044NNLazar           00003815020160511002021385155407795347957997003010SNN00
2925081UROXACIN                                    400 mg comp.x 10        00004382NNLazar           00000959020160511002081380153707795347000686001010SNN00
2925082UROXACIN                                    400 mg comp.x 20        00009564NNLazar           00001750020160511002081380498107795347000693002030SNN00
2647391VERICORDIN                                  100 mg comp.x 28        00003483NNLazar           00000600020160511002061380580807795347000723002810SNN00
2647392VERICORDIN                                  100 mg comp.x 56        00011753NNLazar           00001700020160511002061381076507795347000730005630SNN00
4217191VERICORDIN                                  25 mg comp.x 28         00002689NNLazar           00000382020160511002061381899607795347959809002810SNN00
4217192VERICORDIN                                  25 mg comp.x 56         00005500NNLazar           00000730020160511002061381899707795347959816005630SNN00
2959582VERICORDIN                                  50 mg comp.x 28         00003800NNLazar           00000469020160511002061380498307795347000709002810SNN00
2959583VERICORDIN                                  50 mg comp.x 56         00008000NNLazar           00000905020160511002061381212707795347000716005620SNN00
3002602VERICORDIN COMPUESTO                        comp.x 14               00000000NNLazar           00001035020160511002081380498407795347000747001410SNN00
3002603VERICORDIN COMPUESTO                        comp.x 28               00000000NNLazar           00001525020160511002081381153207795347000754002830SNN00
5359391VESPARAX                                    100 mg comp.rec.x 30    00041700SNLazar           00009540020160511A03021383844707795347972211003010SNN00
5359421VESPARAX                                    200 mg comp.rec.x 30    00059868SNLazar           00012260020160511A03021383844807795347972228003010SNN00
5359262VESPARAX                                    25 mg comp.rec.x 30     00028760SNLazar           00005580020160511A03021383844607795347972617003030SNN00
3245255XICLOVIR                                    200 mg comp.rec.x 30    00011700NNLazar           00002067020160511002081381445107795347965206003010SNN00
4838421XICLOVIR                                    400 mg comp.rec.x 20    00011498NNLazar           00001961020160511002081385057007795347965787002010SNN00
6264681XICLOVIR                                    5% crema x 5 g          00003568NNLazar           00000657020160511002021385057107795347966067000110SNN00
3245331XICLOVIR                                    5% ung.derm.x 5 g       00003568NNLazar           00000636020160511002081383151507795347970897000110SNN00
5234531XICLOVIR                                    8% susp.fco.x 120 ml    00014710NNLazar           00002406020160511002081383444807795347971399000110SNN00
4059031XICLOVIR 800                                comp.x 20               00018461NNLazar           00003070020160511002081381712607795347000846002010SNN00
4059032XICLOVIR 800                                comp.x 40               00034935NNLazar           00006010020160511002081381712707795347000853004030SNN00
6011132EUFOTINA                                    30 mg comp.rec.x 30     00000000NNLepetit         00001750020160511413001405244307798112991684003010NNN00
5930841DIAMICRON MR 60                             60 mg comp.lib.mod.x 30 00016493NNServier         00002471820160425012042594484307795384010488003010SNN00
5930842DIAMICRON MR 60                             60 mg comp.lib.mod.x 60 00032694NNServier         00004834420160425012042594905807795384000137006020SNN00
6379261DICLOMAR GESIC                              50/500 mg comp.rec.x 20 00000000NNMar             00001100020160511002004995244407798074620455002010NNN00
6379262DICLOMAR GESIC                              50/500 mg comp.rec.x 30 00000000NNMar             00001700020160511002004995244507798074620462003030NNN00
5228581AZITROMICINA NEXO                           200 mg/5 ml susp.x 15 ml00004742NNNexo Pharmaceuti00000959320160510003006263419207798112470066000110SNN00
5228372AZITROMICINA NEXO                           500 mg comp.x 3         00004959NNNexo Pharmaceuti00000736720160510003006263419007798112470011000310SNN00
6007391CLARITROMICINA NEXO                         125mg/5ml susp.x 60 ml  00007677NNNexo Pharmaceuti00001677020160510003006264786207798112471612000110SNN00
6007421CLARITROMICINA NEXO                         250mg/5ml susp.x 60 ml  00015083NNNexo Pharmaceuti00002370020160510003006264786307798112471643000110SNN00
5718001DICLONEX 100 AP                             100 mg caps.x 15        00006500NNNexo Pharmaceuti00000567820160510002006264143507798112471216001510SNN00
5329392DICLONEX 50                                 50 mg comp.x 15         00003059NNNexo Pharmaceuti0000034012016051000200626353860             001510SNN00
5329422DICLONEX 75                                 75 mg comp.x 15         00006987NNNexo Pharmaceuti0000046182016051000200626353880             001510SNN00
5517391DICLONEX FLEX                               comp.rec. x 15          00000000NNNexo Pharmaceuti00000471620160510002006264384107798112470912001510SNN00
5235813LOSARTAN NEXO                               50 mg comp.rec.x 30     00020500NNNexo Pharmaceuti00001290420160510002006263419507798112470134003030SNN00
5473132NEXOCARDIL                                  12.5 mg comp.x 28       00007550NNNexo Pharmaceuti00000682520160510002006264028007798112470844002810SNN00
5473002NEXOCARDIL                                  25 mg comp.x 28         00009300NNNexo Pharmaceuti00000979320160510002006264028107798112470868002810SNN00
5473262NEXOCARDIL                                  6.25 mg comp.x 28       00005770NNNexo Pharmaceuti00000561520160510002006264027907798112470820002810SNN00
5476552NEXOFIL                                     50 mg comp.rec.x 2      00000000NNNexo Pharmaceuti00000196220160510A0300626381310             000210NNN00
9938132NEXOFIL                                     50 mg comp.rec.x 4      00000000NNNexo Pharmaceuti00000372520160510A0300626381320             000430NNN00
0054067NEXOFLOXACIN 500                            500 mg comp.x 10        00010500NNNexo Pharmaceuti00001142020160510003006264117307798112471018001010SNN00
5708713NEXOSTATIN                                  10 mg comp.rec.x 30     00018800NNNexo Pharmaceuti00000824820160510002006264133507798112471117003010SNN00
5708843NEXOSTATIN                                  20 mg comp.rec.x 30     00029300NNNexo Pharmaceuti00001277020160510002006264133607798112471148003010SNN00
5405842NEXOTENSIL 10                               10 mg comp.x 30         00013000NNNexo Pharmaceuti00000727120160510002006263682807798112470660003010SNN00
5405712NEXOTENSIL 5                                5 mg comp.x 30          00008300NNNexo Pharmaceuti00000502020160510002006263682707798112470622003010SNN00
5245671OMEPRAZOL NEXO                              20 mg caps.x 15         00005508NNNexo Pharmaceuti00000756020160510002006263419807798112470219001510SNN00
5245372OMEPRAZOL NEXO                              20 mg caps.x 30         00012300NNNexo Pharmaceuti00001327120160510002006263419907798112470226003030SNN00
